:020000040800F2
:10000000800B002029020008212F00088D290008FC
:100010001D2F0008D5030008393300080000000038
:10002000000000000000000000000000292F000870
:100030005104000800000000252F00082D2F0008A3
:10004000430200084302000843020008430200087C
:10005000430200084302000843020008430200086C
:10006000430200084302000843020008430200085C
:1000700009040008430200081504000843020008B0
:10008000430200084302000843020008430200083C
:10009000D9030008E50300084302000843020008F2
:1000A000430200084302000843020008430200081C
:1000B000430200084302000843020008430200080C
:1000C00043020008430200084302000843020008FC
:1000D00043020008153300084302000821330008DA
:1000E00043020008430200084302000843020008DC
:1000F00043020008430200084302000843020008CC
:1001000043020008430200084302000843020008BB
:10011000430200084302000843020008ED2F0008D4
:1001200043020008210400082D04000843020008CF
:10013000430200084302000843020008430200088B
:10014000F1030008FD030008430200084302000811
:100150004302000839040008450400082D33000854
:10016000430200084302000843020008430200085B
:100170004302000843020008430200080000000098
:10018000430200084302000800F002F800F03CF8C7
:100190000AA090E8000C82448344AAF10107DA45E2
:1001A00001D100F031F8AFF2090EBAE80F0013F0F8
:1001B000010F18BFFB1A43F001031847D43E00009B
:1001C000F43E0000103A24BF78C878C1FAD852072C
:1001D00024BF30C830C144BF04680C6070470000C1
:1001E0000023002400250026103A28BF78C1FBD840
:1001F000520728BF30C148BF0B6070471FB503F0DE
:1002000022FF1FBD10B510BD00F0A9F81146FFF781
:10021000F5FF03F0F7FA00F0C7F803B4FFF7F2FFB9
:1002200003BC00F0CFF800000948804709480047A8
:10023000FEE7FEE7FEE7FEE7FEE7FEE7FEE7FEE796
:10024000FEE7FEE704480549054A064B70470000F3
:10025000D92F00088901000880050020800B0020AC
:10026000800700208007002053EA020C00F069801C
:100270002DE9F04B4FF00006002B1FBFB3FA83F5BA
:1002800003FA05F424FA05F65E4012BF1643B2FAEB
:1002900082F502FA05F4C5F120051EBF22FA05FC1D
:1002A00044EA0C04203556EA044C4FEA144418BFC3
:1002B000641C4FF000084FF00009904271EB030CF2
:1002C00039D3002919BFB1FA81F701FA07F6B0FA5C
:1002D00080F700FA07F6C7F120071EBF20FA07FCD7
:1002E00046EA0C062037B6FBF4FCA7EB0507103FE7
:1002F00007F01F0BCBF120062CFA06F60CFA0BFBCD
:1003000044BFB3460026202FA4BF5E464FF0000B2B
:100310005BEA060C08BF4FF0010B19EB0B0948EB29
:100320000608ABFB027C06FB02CC0BFB03CCC01B1C
:1003300071EB0C01C1E70B46024641464846BDE859
:10034000F08B13B5084318BF4FF0FF300146AFF3F1
:100350000080BDE81C407047704770477047754685
:1003600000F02CF8AE4605006946534620F0070021
:10037000854618B020B5FFF765FFBDE820404FF077
:1003800000064FF000074FF000084FF0000BAC469E
:10039000ACE8C009ACE8C009ACE8C009ACE8C009E9
:1003A00021F007018D46704710B50446AFF3008079
:1003B0002046BDE81040FFF730BF000000487047FE
:1003C000A800002001491820ABBEFEE7260002006D
:1003D00070470000FEE7000040F23010C2F200005B
:1003E00000F0B4B940F23010C2F2000000F0AEB933
:1003F00040F25810C2F2000000F0A8B940F25810C4
:10040000C2F2000000F0A2B940F24020C2F20000A7
:1004100000F0B6BC40F2A020C2F2000000F0B0BC78
:1004200040F20030C2F2000000F0AABC40F280109E
:10043000C2F2000000F0A4BC40F26030C2F2000042
:1004400000F09EBC40F2E010C2F2000000F098BC48
:100450007047000072B600BFFEE7000090F8202051
:10046000013A012A04D8006800F11402002004E0D7
:1004700000F1240201204FF4802113681943116018
:100480007047000010B590F820E0D0F800C0AEF141
:10049000010EBEF1010FDCF808E00ED81EF0E05F9F
:1004A00011D0CEF3016E012000FA0EF018608B68B7
:1004B0007BB1486843EAC0030DE000F1240101204C
:1004C0004FF4802223E000F1240101204FF40012B8
:1004D0001DE008684305D1E9030403430CEB0E104B
:1004E000C0F88031C0F88441097D012905D100F5AB
:1004F000C2710B6843F480730B605168C0F88C11B3
:10050000126800F5C071C0F88821002001220B6834
:100510001A430A6010BD0000B0B590F82020013ADF
:10052000012A2FD846F20060C4F20000026842F0AF
:1005300001020260026822F47C520260D1F814E0E9
:10054000CC694A6A0368012C43EA022202600EF079
:100550001F024FF0010303FA02F2C3696FEA020CB3
:1005600023EA0203C36113D02CBBC36803EA0C0364
:10057000C360CB688C8844EA034300EBCE04236459
:100580000B4611E0416A41F4802141620120B0BD77
:10059000C3681343C3600B688C8844EA034300EBD1
:1005A000CE04236401F10C038C681B8843EA0443E6
:1005B00000EBCE04636443688D6943EA0204D1F81A
:1005C00010E0096A002D08BF03EA0C044460436987
:1005D000BEF1000F43EA020408BF03EA0C0401293C
:1005E000446102D1C1691143C161016821F0010177
:1005F00001600020B0BD00007047000010B590F809
:100600002040013C012C0CD8D0F800C079B1DCF8B6
:100610001040A4070FD100F1240101204FF4001273
:1006200076E000F1240101204FF4802270E0DCF834
:100630000C40A40770D00CEB011CDCF8B0410CF5A9
:10064000D87E14F004049460DCF8B04119BFE408CB
:100650005460640D1460DEF800400CF5DA7E04F09E
:100660000204D460DCF8B44124075ABFDEF800402D
:1006700004F00F0408241461DEF800400029C4F3DC
:1006800007249461DEF800404FEA14445461DCF81A
:10069000B8211A70026802EB0112D2F8B8214FEAB1
:1006A00012225A70026802EB0112D2F8B8214FEA06
:1006B00012429A70026802EB0112D2F8B8214FEA96
:1006C0001262DA70026802EB0112D2F8BC211A71D0
:1006D000026802EB0112D2F8BC214FEA12225A71D1
:1006E000026802EB0112D2F8BC214FEA12429A7161
:1006F000026802EB0112D2F8BC214FEA1262DA71F1
:10070000006814BF00F1100100F10C01002020224C
:100710000B681A430A6010BD00F1240101204FF458
:100720000012F5E790F820100139012984BF00205C
:1007300070470068816882688068C1F38061C2F395
:10074000C0621144C0F30070084470472DE9F04FB7
:1007500081B0044600684669D0F804908768D0F8F4
:100760000CB0D0F810A0D0F81880F10703D1002504
:1007700030071CD423E0F90710D00121BA078160AB
:1007800009D4780700F1AA80380700F1B08020462C
:1007900000F094FA02E0204600F092FA0025F805F5
:1007A00000F18480F80300F1AA80300707D51BF020
:1007B000100004D0206845F400751021C160700756
:1007C00008D51BF0080005D020680821C16020462C
:1007D00000F0F2F9B00706D52068C068800702D0A3
:1007E000204600F0EBF9700607D51AF0100004D08F
:1007F000206845F4806510210161B00608D51AF023
:10080000080005D0206808210161204600F022FA86
:10081000F00606D520680069800702D0204600F067
:100820001BFAB00308D519F0100005D0206810217C
:100830004160204600F012FAF00308D519F00800D4
:1008400005D0206808214160204600F043FA3004BA
:1008500040F18F805FEA497040F1888006F4807033
:1008600008EA102028435FEA8871014648BF41F03A
:100870000201B20558BF01465FEA48700D4648BF05
:1008800045F00405700558BF0D4630056ED518F0CB
:1008900070006BD010380009052862D8DFE800F03E
:1008A000035356595C5F45F008055AE020684FF441
:1008B0008071BA0581600AD4780512D4380519D43C
:1008C000204600F0FFF9F8037FF56FAF17E02046F0
:1008D00000F0FAF9F8037FF568AF10E04FF4006517
:1008E0005DE705F50055F8037FF55FAF07E04FF4CE
:1008F000805554E705F58045F8037FF556AF20682D
:100900004FF48031BA0381600AD478030FD43803DE
:1009100013D4204600F0DAF930073FF548AF4EE730
:10092000204600F0D5F930073FF541AF47E705F520
:10093000004530073FF53BAF41E705F5803530070F
:100940003FF535AF3BE745F010050AE045F02005DF
:1009500007E045F0400504E045F0800501E045F47E
:1009600080752068816921F070018161206804210F
:1009700041604DB1606A40EA05012046616201B004
:10098000BDE8F04FFFF738BE01B0BDE8F08F0000C2
:10099000B0B5C8B1044690F8200010B9204600F068
:1009A00071F82068016841F00101016000F05CFC11
:1009B000054600BF20684168C90707D100F054FC14
:1009C000401B0B28F6D312E00120B0BD016821F0D6
:1009D0000201016000F048FC054600BF2068416844
:1009E00089070DD500F040FC401B0B28F6D3606A48
:1009F000052140F400306062012084F82010B0BD71
:100A0000217E0268012922F0800208BF8032026044
:100A1000617E0268012922F0400208BF4032026074
:100A2000A17E0268012922F0200208BF2032026064
:100A3000E17E0268012922F0100218BF1032026024
:100A4000217F0268012922F0080208BF08320260F3
:100A5000617F0268012922F0040208BF04320260AB
:100A6000D4E901C2D4E9033561691A432A43114329
:100A7000ACF101021143C16100200121606284F8E0
:100A80002010B0BDB0B586B0006846F60002C4F2D2
:100A9000000200219042CDE90411CDE9021101913B
:100AA00036D046F20041C4F20001884240F0828014
:100AB00040F20811C2F200010A6843F64000C4F295
:100AC0000200531C0B6052B900210091016841F0F3
:100AD00000710160016801F000710091009900212E
:100AE000009150F8101C152441F0080140F8101C2A
:100AF00050F8100C142500F0080000900098032016
:100B0000019040F20040C4F2020000F5006036E0BF
:100B100043F64000C4F202000091016841F0806198
:100B20000160016801F080610091009940F20811B4
:100B3000C2F200010A68531C0B6052B900210091F7
:100B4000016841F000710160016801F000710091DD
:100B500000990021009150F8101C412441F002013D
:100B600040F8101C50F8100C402500F002000090D6
:100B700000986020019040F20040C4F2020002217F
:100B8000029100210391032104910921059101A9FA
:100B900000F08CFA28460021002200F0E9FB2846EC
:100BA00000F0D6FB20460021002200F0E1FB2046A9
:100BB00000F0CEFB06B0B0BD70470000B0B540F20B
:100BC0000C1540F22814C2F20005C2F20004002104
:100BD0002A462346FFF712FD40F20800C2F2000049
:100BE000B0F9501090F852202B8811448B4218BF56
:100BF000B0BD94E82E0000F1580C8CE82E0021784E
:100C0000E378090180F85810B4F80110257909BA81
:100C1000090CA0F85A10190141EA151102F47042AA
:100C200011446279B0F85E30A0F85C1005F00F0155
:100C300042EA012103F470421144A279A0F85E1047
:100C400080F86020E279002180F86120BDE8B040A2
:100C500002F052BC7047000070470000704700006F
:100C6000B0B5044690F8200001281DD1022084F878
:100C700020002068016821F00101016000F0F4FA11
:100C8000054600BF20684068C00713D000F0ECFAAA
:100C9000401B0B28F6D3606A40F4003060620520E8
:100CA00084F820000120B0BD606A40F4002060623A
:100CB0000120B0BD00206062B0BD000070470000A0
:100CC0007047000070470000704700007047000048
:100CD000704700007047000070B5866D044600F054
:100CE000C3FA94F83510022920D105462068216CFA
:100CF000026822F016020260426922F0800242611C
:100D000009B9A16C19B1016821F0080101600168FD
:100D100021F00101016000BF0068C0070AD000F0A7
:100D2000A3FA401B05280FD82068F5E780206065EE
:100D300001200EE0E06D3F2101FA00F0B0600120DB
:100D400084F83500002004E020206065032084F84A
:100D50003500002184F8341070BD000090F8351083
:100D6000022909D1052180F835100068016821F0B9
:100D7000010101600020704780214165012070471A
:100D8000F0B581B004460020009040F20000C2F2AD
:100D900000000268D4E9166048F2B51337680821EC
:100DA000C1F64E3381403942A2FB03250CD02268A4
:100DB00013685B0708D5136823F004031360B16060
:100DC000616D41F00101616501218140394208D026
:100DD00022685269120604D5B160616D41F00201CA
:100DE000616504218140394208D022681268920767
:100DF00004D5B160616D41F004016165102181404D
:100E0000394215D020680268120711D5B160026816
:100E10000168520306D4C90506D4016821F008010F
:100E2000016001E008033FD4216C09B120468847E6
:100E3000E16D202000FA01F23A4241D020680368B7
:100E4000DB063DD5B26094F835300268052B1BD126
:100E500022F016020260426922F080024261226C96
:100E60000AB9A26C1AB1026822F0080202603F209F
:100E70008840B060012084F83500216D00200029F1
:100E800084F8340052D156E00168520310D4C905E9
:100E900012D4016821F010010160012084F83500AE
:100EA000002084F8340007E0A16C0029BED1BFE720
:100EB000080301D4616C00E0E16B09B1204688476A
:100EC000606DC0B3606DC0072ED0052084F835007A
:100ED0002068A90A026822F001020260009A013229
:100EE0008A4200921AD80268D20717D0009A0132BB
:100EF0008A42009212D80268D2070FD0009A0132BB
:100F00008A4200920AD80268D20707D0009A0132BA
:100F10008A42009202D80268D207DFD1012084F809
:100F20003500002084F83400E16C21B1204601B086
:100F3000BDE8F040084701B0F0BD00002DE9F041E8
:100F4000044600F091F9002C4DD00546022084F8AB
:100F500035000020216884F83400086820F0010082
:100F6000086000BF0868C00706D000F07DF9401B8C
:100F7000052865D82168F5E7086848F23F02CFF2F6
:100F80001002D4E90135024004F10C0E9EE8C15173
:100F90001A432A4310433043384340EA0800626A48
:100FA00040EA0C00042A40EA0E031FD1D4E90A5E8D
:100FB000206B4EEA0302104308604869BEF1000F3F
:100FC00020F0030040EA050040F0040C14D0B8F50E
:100FD000005F39D0B8F1000F45D1022D46D0012D68
:100FE0003BD04DB942E00120BDE8F0810B6048697B
:100FF00020F0070040EA020C6FF00F004AF6AB2227
:1010000050FA81F0CAF6AA22A0FB02231A0944F280
:101010008803C0F600039A5C40F2FF335F284FF06C
:101020003F00C1F814C021EA030100FA02F088BFB2
:101030000431C4E9161288600023012200201CE05C
:1010400003222023032018E0032DD5D801224023BA
:101050000120DFE805F0120B1202AEF1C070B0FA09
:1010600080F0400904E0032D04D3C5D1CEF3006025
:101070000028C1D0012240230120636584F8352077
:10108000BDE8F081B0B5044600F0EEF8054640F248
:10109000A000C2F200000078611C18BF044400BF29
:1010A00000F0E2F8401BA042FAD3B0BD2DE9F04FAA
:1010B00082B000F13E4241F6004502F1FF77C4F2F2
:1010C000020508224FEAB726A84208BF0722072ECA
:1010D00038BF4FEAB7224FF0010A002400274FF033
:1010E0000008009208E000BF023708F10108202F35
:1010F00004F1040400F0B4800E680AFA08F916EA54
:10110000090FF1D0D1F804A00AF0030BABF10106EE
:10111000012E17D80322866802FA07FECA6826EA5B
:101120000E06BA40324382604268CAF3001522EAD2
:10113000090205FA08F54FEA480C6FEA0E062A4341
:1011400042600BE00322BA40D643BBF1030FBC461A
:1011500004D1BC464FF0030B22E000BFC2688D688B
:10116000324005FA0CF52A43BBF1020FC26017D1D9
:101170006FF0030202EA5802024404F01C030F2538
:10118000D2F820E005FA03FA0D692EEA0A0E05FAF4
:1011900003F343EA0E031362D1F804A00AF0030B31
:1011A00002680BFA0CF332401A431AF4403F4FF036
:1011B000010A026098D0002243F644030192C4F26F
:1011C00002031A6843F6004E42F480421A601A681D
:1011D000C4F2010E02F480420192019A28F0030247
:1011E0004FF6084C7244CFF6FF7C52F80C3004F0F6
:1011F0000C060F25B540AB43009D05FA06F63343B8
:1012000042F80C30DEF808204B6842EA090643F643
:101210000C4CDD0258BF22EA0906CEF80860C4F281
:10122000010CDCF800209D0242EA090658BF22EAC0
:101230000906CCF80060DEF804209D0342EA0906A6
:1012400058BF22EA0906CEF80460DEF80020DB036E
:1012500042EA090658BF22EA0906CEF8006043E7D1
:1012600002B0BDE8F08F000040F27450C2F20000FE
:101270000068704740F2A00040F27451C2F20000D2
:10128000C2F2000100780A6810440860704700004C
:1012900080B543F60040C4F20200016841F40071D9
:1012A0000160016841F480610160016841F480716E
:1012B0000160032000F088F80F2000F005F800F02E
:1012C0002BF8002080BD0000B0B540F2A002C2F2B1
:1012D000000240F200011278C2F200014FF47A736A
:1012E0000968B3FBF2F20446B1FBF2F1084600F0E4
:1012F00039FB0F2C4FF001050CD858B94FF0FF30D7
:1013000021460022002500F033F840F2A400C2F28A
:10131000000004602846B0BD82B0002043F64001C2
:101320000190C4F202014A6842F480424A604A686D
:1013300002F480420192019A0090086840F08050C7
:101340000860086800F080500090009802B0704774
:10135000002848BF704700F01F01012202FA01F186
:101360004EF200124009CEF2000242F820107047FF
:1013700010B54EF60C5CCEF2000CDCF80030C3F376
:10138000022E8EF00704042C28BF0424BEF10303B0
:101390004FF0FF3E0EFA04F438BF0023A1439940FA
:1013A0000EFA03F39A43114300F00F02043A624429
:1013B00009010C3200F16043B0F1FF3FC8BF03F5F3
:1013C0006442117010BD00004EF60C51CEF20001C7
:1013D0000A684FF6FF031A4060F30A2242F0806069
:1013E00040F0FD70086070472DE9F041002800F0E2
:1013F0008B8043F60808C4F202080446D8F8F803C4
:101400000D4600F00700884207D288F8F853D8F854
:10141000F80300F00700A84276D12068810717D5AD
:10142000410705D5D8F8001041F4E051C8F8001084
:10143000010705D5D8F8001041F46041C8F8001044
:10144000D8F80010A26821F0F0011143C8F800108C
:10145000C0073FD1D8F8F80300F00700A84207D929
:1014600088F8F853D8F8F80300F00700A8424BD1E9
:101470002068410707D5D8F80010E26821F4E05150
:101480001143C8F80010000708D5D8F800002169FA
:1014900020F4604040EAC100C8F8000000F07CF889
:1014A000D8F8001044F26002C1F30311C0F6000244
:1014B000515C40F2000220FA01F140F2A400C2F2B5
:1014C00000000068C2F200021160FFF7FDFE00207C
:1014D000BDE8F0816068811E022907D258F8081C17
:1014E00089015CBF0120BDE8F08110E0012807D12F
:1014F00058F8081C89035CBF0120BDE8F08106E0B4
:1015000058F8081C890702D40120BDE8F081D8F8FA
:10151000001021F003010843C8F80000FFF7A4FE03
:10152000064641F2883700BFD8F80000616800F035
:101530000C00B0EB810F8DD0FFF796FE801BB842F8
:10154000F2D90320BDE8F08140F2000043F6080123
:10155000C2F20000C4F202010068096844F270029D
:10156000C1F38221C0F60002515CC8407047000000
:1015700040F2000043F60801C2F20000C4F202018A
:101580000068096844F27002C1F34231C0F60002FB
:10159000515CC8407047000010B543F60404C4F223
:1015A0000204606800F00C0008280AD0042819BF63
:1015B00042F20040C0F2F40041F60030C0F2B70041
:1015C00010BD206821682368490241F60031C0F24D
:1015D000B70100F03F02C3F388105CBF42F2004144
:1015E000C0F2F401A1FB00010023FEF73DFE2168DB
:1015F0000222C1F3014102EB4101B0FBF1F010BD49
:101600002DE9F04182B0002869D00446007843F605
:101610000006C007C4F202060BD0B06800F00C0050
:10162000042840F09C803068800302D56068002860
:1016300055D0207880071AD5B06810F00C0F09D06B
:10164000B06800F00C00082840F0A38070684002E9
:1016500000F19F803068800702D5E06801283ED104
:101660003068216920F0F80040EAC100306020783D
:10167000000738D4207840074BD4A5695DB3B06823
:1016800000F00C00082840F0B780012D27D07068CA
:10169000E16900F480028A4221D1216A00F03F0210
:1016A0008A421CD147F6C071626A0140B1EB821FC9
:1016B00015D1A26A0023CFF6FF7303EBC23200F408
:1016C00040316FF30F02914209D1E16A00F070607E
:1016D000B0EB016F03D1002002B0BDE8F081012022
:1016E00002B0BDE8F0816069002840F20000C4F259
:1016F000472071D00121C0F8801EFFF7B5FD0546D7
:10170000706F8007B6D4FFF7AFFD401B0228F7D9F2
:10171000D7E0306C10F080580AD100200190306C76
:1017200040F080503064306C00F08050019001989F
:1017300047F20007C4F200073868C0053ED4386895
:1017400040F480703860FFF78FFD05463868C005AB
:1017500034D4FFF789FD401B0228F7D9B1E0B06807
:1017600000F00C00082803D1706840023FF55BAF21
:101770006068B0F5803F07D0B0F5A02F40F08B80B7
:10178000306840F480203060306840F48030306051
:101790008BE0E068002851D00020C4F247200121EE
:1017A0000160FFF761FD0546306880073FF558AFDF
:1017B000FFF75AFD401B0228F6D982E0A0680128F5
:1017C00005D005284ED1306F40F004003067306FEF
:1017D00040F0010030674FE00021C0F8801EFFF7A5
:1017E00043FD0546706F80077FF544AFFFF73CFD72
:1017F000401B0228F6D964E00027C4F247270020E6
:101800003866FFF731FD022D05460BD130688001A7
:101810005BD5FFF729FD401B02284FF00300F5D9E7
:101820005AE700BF306880017FF555AFFFF71CFD18
:10183000401B02284FF00300F4D94DE70020C4F20A
:10184000472000210160FFF70FFD05463068800743
:101850007FF50DAFFFF708FD401B02284FF0030096
:10186000F4D939E7316F002821F001013167316F78
:1018700021F0040131674BD0FFF7F6FC054641F239
:10188000883700BF306F800753D4FFF7EDFC401B53
:10189000B842F7D915E03168002821F48031316071
:1018A000316821F4802131604CD0FFF7DDFC054622
:1018B000306880033FF5BDAEFFF7D6FC401B6428BF
:1018C000F6D9032002B0BDE8F08104F11C052FCD4C
:1018D00008430021CFF6FF7140EA821001EBC331CB
:1018E0006FF30F0140EA056008437060012038661D
:1018F000FFF7BAFC044600BF306880013FF5EBAE4D
:10190000FFF7B2FC001B02284FF00300F4D9E3E616
:10191000FFF7AAFC054641F2883700BF306F800709
:1019200007D5FFF7A1FC401BB8424FF00300F5D9E3
:10193000D2E6B8F1000F7FF4A0AE306C20F08050FA
:1019400030649AE6FFF790FC054600BF30688003DC
:101950007FF56FAEFFF788FC401B64284FF0030053
:10196000F4D9B9E6411E0020B0EB116F1CBF012075
:1019700070474EF21002CEF2000251604EF6235133
:10198000CEF20001F0230B700721906011607047C8
:10199000704700007047000010B590F83C20012A05
:1019A0004FF002024FD080F83D200268D2F804E0E8
:1019B000D2F808C00C682EF07003234341F2FF7484
:1019C000C4F20004A24253600DDC40F2FF73C4F283
:1019D00000039A4215DCB2F1804F29D040F2004357
:1019E000C4F2000322E040F2FF33C4F201039A4242
:1019F00012DC41F60003C4F200039A4218D000231F
:101A000012E040F60003C4F200039A4210D040F600
:101A10000043C4F2000309E044F20003C4F20103EE
:101A20009A4205D040F20043C4F201039A4204D125
:101A300049682CF08003194391600121002280F84D
:101A40003D1080F83C20104610BD0000002804BF67
:101A50000120704710B5044690F83D0028B90020D9
:101A600084F83C00204600F01FF8022084F83D0076
:101A70002068211D01F0C0FA012084F8460084F896
:101A80003E0084F83F0084F8400084F8410084F868
:101A9000420084F8430084F8440084F8450084F848
:101AA0003D00002010BD000080B582B0006841F20A
:101AB0000041C4F20001884216D040F60041C4F251
:101AC000000188420ED10020019043F64000C4F28C
:101AD0000200016841F008010160006800F00800A0
:101AE0000190019802B080BD0020009043F64000B4
:101AF000C4F202000168002241F020010160006888
:101B0000012100F02000009000983720FFF730FC02
:101B1000372002B0BDE88040FFF71ABC80B590F8CE
:101B20003C20012A4FF0020200F0BF8080F83D20E7
:101B3000D0F800C04FF67772DCF8083023EA0202D2
:101B4000CCF808200B684F2B28DC1F2B43DD202B03
:101B500044D0302B42D0402B40F0A980D1F804E093
:101B6000C968DCF82030DCF8202022F00102CCF833
:101B70002020DCF8182022F0F00242EA011123F0C4
:101B80000A0242EA0E02CCF81810CCF82020DCF849
:101B9000081041F0470121F030017DE06F2B25DD79
:101BA000B3F5005F46D0B3F5805F77D0702B7ED160
:101BB000D1E901E3C968DCF8082043EA0E0322F406
:101BC0007F4243EA01211143CCF80810DCF80810E9
:101BD00041F0770160E00BB1102B68D1DCF8081000
:101BE00021F07001194341F0070155E0502B34D02A
:101BF000602B5CD1D1F804E0C968DCF82030DCF857
:101C0000202022F01002CCF82020DCF8182022F44A
:101C1000704242EA013123F0A00242EA0E12CCF8EF
:101C20001810CCF82020DCF8081041F0670121F0F2
:101C3000100131E0D1E901E3C968DCF8082043EA8A
:101C40000E0322F47F4243EA01211143CCF808102D
:101C5000DCF8081041F480411EE0D1F804E0C968C6
:101C6000DCF82030DCF8202022F00102CCF8202023
:101C7000DCF8182022F0F00242EA011123F00A02F7
:101C800042EA0E02CCF81810CCF82020DCF808103C
:101C900041F0570121F02001CCF808100022012169
:101CA00080F83D10002180F83C10104680BD0122D4
:101CB000F5E700007047000070B504460068C5688D
:101CC0000669B10716D515F0020113D06FF00201B5
:101CD0000161012121778069800703D02046FFF749
:101CE000E9FF05E0204600F08DF8204600F0E0F91D
:101CF00000202077700718D515F0040015D0206853
:101D00006FF00401016102212177806910F4407FA6
:101D100003D02046FFF7CEFF05E0204600F072F822
:101D2000204600F0C5F900202077300717D515F0C0
:101D3000080014D020686FF00801016104212177A8
:101D4000C069800703D02046FFF7B4FF05E02046B6
:101D500000F058F8204600F0ABF900202077F0069C
:101D600018D515F0100015D020686FF01001016132
:101D700008212177C06910F4407F03D02046FFF787
:101D800099FF05E0204600F03DF8204600F090F96C
:101D900000202077F00718BF15F0010002D13006AF
:101DA00009D412E020686FF001010161204600F0C3
:101DB00081F9300609D515F0800006D020686FF053
:101DC000800101612046FFF7E3FD700609D515F09B
:101DD000400006D020686FF040010161204600F00D
:101DE0006BF9B00658BF70BD15F0200008D021680F
:101DF0006FF0200220460A61BDE87040FFF7CABDBF
:101E000070BD0000704700002DE9F04190F83C30B3
:101E1000012B04BF0220BDE8F0814FEAB202032A81
:101E200000F2FA80DFE802F0023E7DBC036840F277
:101E300000471C6A1A6A24F0020422F001021A62A6
:101E40001A46D3F804E052F818CF8E6843F4806540
:101E5000C4F20107BD4244EA060405D1CE6824F06D
:101E60000C0426F0040634430E68BD4207D1D1E9C4
:101E700005572EF4407E45EA0E0545EA070E2CF084
:101E800073073743C3F804E09F614F6809695F63D4
:101E90001C629F6947F008079F619F6927F004074C
:101EA0009F61AFE0036840F200481C6A1A6A24F0A0
:101EB000200422F010021A621A46D3F804E052F805
:101EC00018CF8F6843F48065C4F20108454544EAA1
:101ED000071407D1CF686FF0400624F0C00406EA6B
:101EE000071634430F68454507D1D1E905562EF44E
:101EF000406E4EEA850545EA860E2CF4E64646EA33
:101F00000727C3F804E09F614F6809699F631C625B
:101F10009F6947F400679F619F6927F480679F610D
:101F20006FE0036840F200481C6A1A6A24F40074E7
:101F300022F480721A621A46D3F804E052F81CCFD9
:101F40008F6843F48065C4F20108454544EA0724DC
:101F500008D1CF6840F2FF463F0224F4406427EAEC
:101F6000060634430F68454507D1D1E905562EF4DE
:101F7000405E4EEA051545EA061E2CF0730637430F
:101F8000C3F804E0DF614F680969DF631C62DF6941
:101F900047F00807DF61DF6927F00407DF6131E000
:101FA000036840F20045D3F820C01A6A43F4806702
:101FB00022F480521A621A465C6852F81CEFD1F87B
:101FC00000808E68C4F20105AF4204D14D6924F44B
:101FD000804444EA85142CF4005747EA06372EF46F
:101FE000E64646EA08265C60DE614E6809691E64C2
:101FF0001F62DF6947F40067DF61DF6927F48067EC
:10200000DF6109021368194311600021002280F882
:102010003C200846BDE8F0810121F7E7002804BF15
:102020000120704710B5044690F83D0028B9002003
:1020300084F83C00204600F01FF8022084F83D00A0
:102040002068211D00F0D8FF012084F8460084F8A4
:102050003E0084F83F0084F8400084F8410084F892
:10206000420084F8430084F8440084F8450084F872
:102070003D00002010BD000081B0006840F6000166
:10208000C4F20001884201D001B0704700200090E6
:1020900043F64000C4F20200016841F0040101600F
:1020A000006800F004000090009801B07047000044
:1020B0007047000070470000704700007047000044
:1020C00070470000B0B582B0044600680168C3687C
:1020D000426901F02F05202D03F0200506D12DB116
:1020E000204602B0BDE8B04001F026B85FEA017CAE
:1020F0001EBF02F0010E03F4907212EB0E0255D1D6
:10210000226B012A05D111F0100218BF13F0100242
:1021100036D10A0622D513F080021FD094F8411060
:10212000212941D1A168B1F5805F03D1216900293E
:1021300000F06E82216A4A1C226209784160E18CBB
:1021400001390A04E1842FD1C16821F08001C16006
:10215000C16841F04001C16002B0B0BD490623D55D
:1021600013F0400120D0C16821F04001C16020215E
:10217000204684F8411002B0BDE8B04000F004BC35
:102180000021019101680191416801910199416922
:10219000490600F18E80A18DE28DE38D002B1CBFDE
:1021A000891A5FEA01420CD102B0B0BDCA0718BF5C
:1021B00013F4807240F036814A0700F139813EE124
:1021C000206850E8030F226820F4907042E803036F
:1021D000DBB1206850E8030F226820F4907042E8D9
:1021E000030393B1206850E8030F226820F4907035
:1021F00042E803034BB1206850E8030F226820F443
:10220000907042E80303002BDAD1206850E8050FF4
:10221000226820F0010042E80503DBB1206850E8A5
:10222000050F226820F0010042E8050393B1206801
:1022300050E8050F226820F0010042E805034BB189
:10224000206850E8050F226820F0010042E80503ED
:10225000002BDAD1202084F842000020206320687F
:1022600050E8030F226820F0100042E80303DBB1BE
:10227000206850E8030F226820F0100042E80303B2
:1022800093B1206850E8030F226820F0100042E864
:1022900003034BB1206850E8030F226820F01000C0
:1022A00042E80303002BDAD1022289B2204662639E
:1022B000B3E0E16B0A68526893B2002B3FF474AF4D
:1022C000A58DAB42BFF470AFE285C969B1F5807FDF
:1022D00000F09C8050E8030F216820F4807041E8F2
:1022E0000302E2B1206850E8030F216820F48070F7
:1022F00041E803029AB1206850E8030F216820F4F6
:10230000807041E8030252B1206850E8030F216851
:1023100020F4807041E803020AB12068DAE72068FF
:1023200050E8050F216820F0010041E80502DAB10C
:10233000206850E8050F216820F0010041E80502FF
:1023400092B1206850E8050F216820F0010041E8B3
:1023500005024AB1206850E8050F216820F001000D
:1023600041E80502002ADAD1206850E8050F21680B
:1023700020F0400041E80502DAB1206850E8050F7E
:10238000216820F0400041E8050292B1206850E841
:10239000050F216820F0400041E805024AB120689D
:1023A00050E8050F216820F0400041E80502002AAE
:1023B000DAD1202084F8420000202063206850E811
:1023C000030F216820F0100041E80302DAB1206811
:1023D00050E8030F216820F0100041E8030292B199
:1023E000206850E8030F216820F0100041E8030244
:1023F0004AB1206850E8030F216820F0100041E83E
:102400000302002ADAD1E06BFEF766FC022060636B
:10241000A08DE18D401A81B2204602B0BDE8B040E7
:10242000FFF74CBE626C42F0010262644A0706D5B7
:10243000BEF1000F03D0626C42F0020262648A07B0
:1024400006D5BEF1000F03D0626C42F00402626454
:10245000BCF1000F06D555EA0E0203D0626C42F0C3
:1024600008026264626C002A3FF49EAE11F0200103
:1024700018BF002D03D0204600F05EFE20684169A1
:10248000626C01F0400102F00802891800F0A1809E
:1024900050E8030F216820F4907041E80302C2B3B2
:1024A000206850E8030F216820F4907041E803028F
:1024B0007AB3206850E8030F216820F4907041E857
:1024C000030232B3206850E8030F216820F49070B3
:1024D00041E80302EAB12068DAE700BF206850E86B
:1024E000050F216820F0010041E80502DAB12068FB
:1024F00050E8050F216820F0010041E8050292B183
:10250000206850E8050F216820F0010041E805022D
:102510004AB1206850E8050F216820F0010041E829
:102520000502002ADAD1206B012824D1206850E866
:10253000030F216820F0100041E80302DAB120689F
:1025400050E8030F216820F0100041E8030292B127
:10255000206850E8030F216820F0100041E80302D2
:102560004AB1206850E8030F216820F0100041E8CC
:102570000302002ADAD1202084F8420000202063E0
:102580002068416949063DD550E8050F216820F0D3
:10259000400041E805021AB3206850E8050F2168A1
:1025A00020F0400041E80502D2B1206850E8050F54
:1025B000216820F0400041E805028AB1206850E817
:1025C000050F216820F0400041E8050242B1206873
:1025D000DAE72046FFF774FD0020606402B0B0BD6A
:1025E000E06B78B143F22D11C0F600010165FEF7F2
:1025F000B5FB00283FF4D8ADE06B016D02B0BDE83B
:10260000B0400847204602B0BDE8B040FFF758BDD3
:10261000216A31F8022B6FF35F22426021628EE55E
:10262000002804BF0120704710B5044690F841000F
:1026300028B9002084F84000204600F021F824202A
:1026400084F841002068C16821F40051C16020462F
:1026500000F0F0FD2068016921F4904101614169B9
:1026600021F02A014161C16841F40051C16000209C
:102670002021606484F8411084F84210606310BD2A
:102680002DE9F04F87B00446006844F60001C4F21B
:10269000000100268842CDE90566CDE90366029671
:1026A00000F0938041F20041C4F20101884200F041
:1026B000F68041F20001C4F20101884240F05F81DE
:1026C000002743F630000197C4F20200416900255B
:1026D00041F0100141614169C4F2020501F01001AD
:1026E000019101990197016802AE41F00201016078
:1026F000016846F2280801F0020101910199019751
:1027000001684FF0020941F00101016000684FF0DB
:10271000030A00F0010001900198802002904FF020
:10272000070B05F580603146C4F20208CDE9039736
:10273000CDF814A0CDF818B0FEF7B8FC4FF4007037
:10274000CDE9020904A880E8800C28463146FEF74E
:10275000ADFC40F2E01508F59260C2F200054FF0C2
:1027600000664021C5E9000605F108004FF48069C4
:1027700080E882022846C5E90577C5E907776F62D8
:10278000FEF7DCFB002818BFFDF764FEA563AC6311
:1027900040F2801508F58360C2F2000585E8C100AB
:1027A0002846C5E90379C5E90577C5E907776F626A
:1027B000FEF7C4FB002818BFFDF74CFEE563AC63D1
:1027C0002520002100222524D4E043F63000019684
:1027D000C4F20200016946F2280841F48021016137
:1027E0000169C4F2020801F4802101910199019666
:1027F000016841F004010160006802A900F00400D2
:10280000019001984FF4406002900220CDE9030648
:1028100003200590072006900020C4F2020000F576
:102820000060FEF743FC40F24025C2F200054FF085
:1028300000674FF480692846C5E90087C5E902664C
:10284000C5E90496C5E90666C5E90866FEF776FBA4
:10285000002818BFFDF7FEFDE563AC6340F2A0253C
:1028600008F13000C2F200054021C5E9000705F17A
:102870000800002280E806022846C5E90522C5E9CD
:1028800007226A62FEF75AFB002818BFFDF7E2FD37
:10289000A563AC6327200421002227246AE00026D8
:1028A00043F630000196C4F20200416946F228085E
:1028B00041F0200141614169C4F2020801F02001A8
:1028C000019101990196016841F0400101600068A1
:1028D00002A900F04000019001984FF4844002905A
:1028E0000220CDE903060320059008200690002071
:1028F000C4F2020000F5C050FEF7D8FB40F260358C
:1029000008F58F60C2F200054FF020674021C5E94D
:10291000000705F108004FF4806980E8420228466C
:10292000C5E90566C5E907666E62FEF707FB002884
:1029300018BFFDF78FFDA563AC6340F2003508F5C5
:102940008060C2F20005C5E900072846C5E90266B5
:10295000C5E90496C5E90666C5E90866FEF7EEFA1C
:10296000002818BFFDF776FDE563AC63472004211E
:1029700000224724FEF7FCFC2046FEF7E9FC07B0E6
:10298000BDE8F08F7047000070470000FEE70000D0
:1029900070B58AB040F2301401200021C2F2000468
:1029A0006D460890CDE90011CDE90211CDE9041181
:1029B000CDE906100E26204629460996FDF7ACFD06
:1029C000059640F258161C20C2F2000609903046C7
:1029D0002946FDF7A1FD2046FEF742F920460221D7
:1029E000FDF73CFD3046FEF73BF930460221FDF78E
:1029F00035FD0AB070BD000080B540F2301046F2DF
:102A00000041C2F20000C4F200010622002380E867
:102A10000E0000F10C014FF4403C4FF4801E81E8A1
:102A2000085083618383FDF7B3FF002808BF80BD92
:102A3000BDE88040FDF70EBD80B540F2581046F667
:102A40000001C2F20000C4F200010622002380E867
:102A50000E0000F10C014FF4403C4FF4801E81E861
:102A6000085083618383FDF793FF002808BF80BD72
:102A7000BDE88040FDF7EEBC80B582B0002043F693
:102A800030010190C4F202010A6842F480020A6037
:102A90000A6802F480020192019A009008680022FC
:102AA00040F4001008600868002100F40010009055
:102AB00000980C20FEF75CFC0C20FEF749FC0E2071
:102AC00000210022FEF754FC0E20FEF741FC3920C5
:102AD00000210022FEF74CFC3920FEF739FC3A2099
:102AE00000210022FEF744FC3A20FEF731FC45208D
:102AF00000210022FEF73CFC4520FEF729FC462081
:102B000000210022FEF734FC462002B0BDE88040E0
:102B1000FEF71EBC81B0002143F630000091C4F2E4
:102B20000200026842F002020260026802F0020241
:102B30000092009A0091026842F04002026002682E
:102B400002F040020092009A0091026842F00102F5
:102B50000260026802F001020092009A009102688D
:102B600042F008020260026802F008020092009A35
:102B70000091026842F004020260026802F004025E
:102B80000092009A0091016841F0800101600068A4
:102B900000F080000090009801B0704770B590B0D0
:102BA00040F6000540F2C030C4F200050021C2F238
:102BB0000000A7224FF6FF73CDE90811CDE90611F9
:102BC000CDE90411C0E90052C0E90213016181613D
:102BD000FFF724FA002818BFFDF73CFC40F2C03094
:102BE000C2F2000008A9FEF7D7FE002818BFFDF7C3
:102BF00031FC40F2C0346020C2F200040190002693
:102C000001A920460822CDE902660596FFF7FCF8E7
:102C1000002818BFFDF71EFC206840F60041C4F2F2
:102C2000000188420B9618D0A84233D100200A90A8
:102C300043F63000C4F202000168032241F00801AB
:102C400001600068012100F008000A900A984FF422
:102C500080400B9005F5013014E0002143F6300070
:102C60000A91C4F20200026842F080020260006829
:102C7000002200F080000A900A984FF4E0500B9078
:102C800005F505300223CDE90C310BA9CDE90E2362
:102C9000FEF70CFA10B070BDB0B594B040F6004528
:102CA00040F20840C4F200050021C2F200004FF6D5
:102CB000FF720D91CDE90B110991CDE90711CDE915
:102CC0000511CDE90311CDE90111C0E90051C0E9B9
:102CD000021201618161FEF7B9FE002818BFFDF7FD
:102CE000B9FB4FF480500A9040F20840C2F2000055
:102CF0000AA9FEF713FF002818BFFDF7ABFB40F24F
:102D00000840C2F20000FFF789F9002818BFFDF75C
:102D1000A1FB40F208400024C2F2000008A9CDE95E
:102D20000844FEF739FE002818BFFDF793FB60202A
:102D3000019042F21070CDE9020440F20840C2F264
:102D4000000001A900220594FFF75EF8002818BFD3
:102D5000FDF780FB40F20840C2F2000001A9042206
:102D6000FFF752F8002818BFFDF774FB40F2084443
:102D7000C2F2000401A920460822FFF745F8002806
:102D800018BFFDF767FB20680021A8420F911CD0F7
:102D900040F60001C4F20001884232D100200E90BA
:102DA00043F63000C4F202000168032241F008013A
:102DB00001600068012100F008000E900E984FF4A9
:102DC00080400F9005F5003013E043F630000E917F
:102DD000C4F20200026842F0800202600068002231
:102DE00000F080000E900E984FF4E0500F9005F523
:102DF00004300223CDE910310FA9CDE91223FEF7EB
:102E000055F914B0B0BD000080B582B040F250401A
:102E10000021C2F2000041F2004240F2E73CCDE95D
:102E20000011C4F200025323C0E9021C8021C0E952
:102E300000238161FEF70AFE002818BFFDF70AFB98
:102E400040F25040C2F200006946FEF7A5FD00289E
:102E500018BFFDF7FFFA02B080BD000080B540F258
:102E6000984041F20001C2F20000C4F201010023C7
:102E70004FF00C0C4FF4E13280E80E00C0E9033350
:102E8000C0E905C3C361FFF7CBFB002808BF80BDC5
:102E9000BDE88040FDF7DEBA10B540F2E04044F6F0
:102EA000000C48F2A062C2F20000C4F2000CC0F2B2
:102EB00001024FF4805300214FF4806E0C24C0E9CE
:102EC00000C2C0E90231C0E904E4C0E90611FFF71D
:102ED000A7FB002808BF10BDBDE81040FDF7BABA37
:102EE00080B540F2285041F20041C2F20000C4F225
:102EF000010100234FF00C0C4FF4E13280E80E008A
:102F0000C0E90333C0E905C3C361FFF789FB0028AB
:102F100008BF80BDBDE88040FDF79CBAFEE7000019
:102F2000FEE700007047000070470000FEF7A2B9FE
:102F3000B0B592B0002443F64000CDE90A44CDE993
:102F400008440594CDE90344CDE901440094C4F25A
:102F500002000168022541F080510160006800F024
:102F600080500090009847F200000094C4F20000E6
:102F7000016841F480410160006800F480400090E5
:102F80000098012006904FF4803007904FF48000A5
:102F90000D9006200E90A820CDE90F050420119079
:102FA00006A80C95FEF72CFB08B172B6FEE70F20C1
:102FB000CDE901054FF4A05004904FF480500590E6
:102FC00001A805210394FEF70FFA10B172B600BFF5
:102FD000FEE712B0B0BD00004EF68850CEF2000001
:102FE000016841F4700101607047000040F25040F8
:102FF000C2F20000FEF760BE10B540F6FF3E036867
:10300000C4F2000E40F2004C7045C4F2010C0FDC1B
:10301000B0F1804F19D040F20042C4F20002904259
:1030200013D040F60002C4F2000290420DD010E02E
:1030300040F60042C4F20002904206D0604504D03F
:103040000022C4F20102904203D14A6823F07003C7
:10305000134341F6FF72C4F2000290420DDC70454A
:103060001FDCB0F1804F41D040F20042C4F20002B8
:1030700090423BD040F6000221E043F6FF72C4F2DA
:103080000102904220DC42F20002C4F200029042AF
:103090002CD00022C4F20102904227D0604525D0F6
:1030A00028E040F60042C4F2000290421ED041F6F1
:1030B0000002C4F20002904218D041F60042C4F26D
:1030C0000002904212D015E044F20002C4F2010264
:1030D00090420BD044F60002C4F20102904205D0A7
:1030E00044F20042C4F20102904203D1CA6823F4C0
:1030F0004073134323F080024B69D1F800E08C68E1
:103100001A430260C46240F48062C0F828E062455D
:1031100004BF09690163012141610169C90708BF51
:1031200010BD016921F00101016110BD806B00211A
:10313000C185C184FEF7C4BF81B090F84210222936
:1031400020D18368B3F5805F08D10169002964D07C
:1031500000F128010A6803685B680AE0014651F83B
:10316000282F13B90369002BF5D003685B6803F0BF
:103170007F0313700A6801320A60C18D01390A04A5
:10318000C18501D001B070470168CA6822F02002F1
:10319000CA60CA6822F48072CA604A6922F00102D9
:1031A0004A61202280F8422000224263036B012BF7
:1031B0003CD1026351E8031F026821F0100142E88C
:1031C00003130168DBB151E8031F026821F010010D
:1031D00042E80313016893B151E8031F026821F02C
:1031E000100142E8031301684BB151E8031F026864
:1031F00021F0100142E803130168002BDAD10A68BC
:10320000D20606D5002200920A6800924968009111
:103210000099818D01B0FEF751BF0168826A49684B
:103220006FF35F2122F8021B8262A6E701B0FFF76D
:10323000A9BB000010B504460068D4E902C22369A6
:10324000016921F4405111430161626943EA0C01B3
:10325000E3691143C268194349F20C639A4311436D
:10326000C1604169A26921F4407141F200431143F8
:1032700040F48062C4F201039A42416102D1FEF738
:1032800077F901E0FEF760F9E16963681922B1F5A9
:10329000004FA0FB02011DD15A00DB0FFCF7E4FF39
:1032A00048F21F51C5F2EB11A0FB01235A096FF040
:1032B000630302FB0300322303EBC000A0FB010108
:1032C0004FF4F87000EA111000EB0210C1F3421144
:1032D00008441BE09A009B0FFCF7C6FF48F21F5101
:1032E000C5F2EB11A0FB01235A096FF0630302FB47
:1032F0000300322303EB0010A0FB0101F02000EAE1
:10330000511000EB0210C1F343110844216888609A
:1033100010BD000040F29840C2F20000FEF7D2BE9D
:1033200040F2E040C2F20000FEF7CCBE40F228506E
:10333000C2F20000FEF7C6BEFEE7000070B588B01E
:1033400090ED1A3A90ED1B4A30EE430A34EE434AB0
:103350009FED423A90ED1C5A90ED1D6A20EE030A53
:1033600080EE040A9FED3E4A36EE453A30EEC55AED
:1033700090ED206A90ED217A25EE045A85EE033A0D
:1033800037EE465A31EE461A90ED226A90ED237AD6
:1033900021EE041A81EE051A37EE465A90ED1E7A98
:1033A00031EEC66AD0ED1F0A26EE046A32EE472AD5
:1033B00086EE055A30EEC76A22EE042A82EE062A0D
:1033C000BDEEC00A10EE103ABDEEC30A10EE105A60
:1033D000BDEEC10A10EE104A1E0A80F891302B098A
:1033E00080F89230BDEEC50A230A10EE10CABDEE79
:1033F000C20A43EA051310EE10EA80F893304FEA50
:103400001C1380F895304FEA1E2380F8944043EA5D
:103410000C13044680F8963080F897E000EB8202A7
:1034200004F8906FB0F95030106D0D4604210791EB
:103430000821184405910021CDE901012846CDE974
:1034400003118DF81810FDF76DF928B101A907AB2C
:1034500028462246FDF716F808B070BD00FF7F47EA
:1034600000F07F4580B5B0F9502090F8523089B215
:103470001A44914218BF80BD06990A68D1F804C069
:10348000D1F808E0CB68826502F0F0024366C0F82C
:1034900060E0C0F85CC080F858200A78120180F81B
:1034A0005820B1F8012012BA120CA0F85A20CA789C
:1034B0000B79120142EA13120CF470431A44A0F87B
:1034C0005C200A7991F805C0B0F85E3002F00F0276
:1034D0004CEA022203F470431A44A0F85E208A7971
:1034E00080F86020CA79002180F86120BDE8804022
:1034F00000F002B8000000002DE9F04F81B02DED82
:10350000068B8AB0064600680F4642686846314618
:10351000904706EB0715B5F85A40204600F080FAB0
:103520009FED670B53EC102B00F006FB9DED000A9E
:103530009DED011A02EE104A31EE401AB8EE422A11
:103540009FED693A21EE021A81EE031A814641ECA1
:10355000180B07EBC70006EBC0069DED029A9DED28
:1035600003AA884686ED028B30EE010A10EE100A9F
:1035700000F0CEFC41EC100B86ED040BB5F85C00BE
:103580003AEE490A6FF31F3001EE100AB8EE411A05
:103590009FED56AA20EE010A80EE0A0A39EE000AD3
:1035A00010EE100A00F0B4FC41EC100B9DED051A72
:1035B00086ED060BB5F85E009DED040A6FF31F3033
:1035C00002EE100A31EE401AB8EE422A21EE021A3B
:1035D00081EE0A1A30EE010A10EE100A00F098FC93
:1035E00041EC100B86ED0C0B95F8600000F018FA1A
:1035F00041EC100B484686ED0E0B96ED100B414644
:103600005AEC107B3A46534606F1400B00F092FB11
:103610009FED2D0B044653EC102B0D4600F0B8FC2B
:10362000C0B99FED2F0B3A4651EC100B534600F0FA
:1036300081FB02460B464846414600F001F996EDF3
:10364000120B53EC102B00F0FBF841EC100B86ED45
:10365000120B2DE09FED1E0B204653EC102B29463C
:1036600000F09DFCC0B99FED1C0B484653EC102B9D
:10367000414600F0E5F83A46534600F05BFB96ED14
:10368000120B02460B4651EC100B00F0D9F841EC3E
:10369000100B86ED120B0BE096ED120B204653EC4F
:1036A000102B294600F0CCF841EC100B86ED120BE4
:1036B0008BED008B0AB0BDEC068B01B0BDE8F08F3E
:1036C000172751A246DF913F00000000008066C02E
:1036D000000000000080664000000000008076C00E
:1036E000000000000080764000FF7F4700F07F452B
:1036F00070B54FF2C351CCF248114FF2C3520023C0
:1037000040F2000C40F2000E0024C4F24812CCF249
:10371000F013C4F2F01CCCF2201EC4F220140026D8
:1037200080E80E5000F114010025C4F2FA3670C191
:103730000021C4F2A001C0E9085170BDB0B588B045
:1037400040F27054C2F200042078022808D0012808
:1037500037D140F20805C2F200056FF0407007E073
:103760006FF0407040F2080500F18070C2F2000571
:10377000B5F950206B6D4FF0FF31C5E92410981852
:10378000042107910821019040F230100591002199
:10379000C2F200000291039104918DF81810FCF719
:1037A000C1FF48B140F2301005F19002C2F20000B2
:1037B00001A907ABFCF766FE0A20FDF763FC0020B9
:1037C000207040F27850C2F200009FED0D0A90ED9B
:1037D000002A40F2080040F23011C2F20000C2F2AA
:1037E00000010122F0EE400AB0EE401AF0EE401A5D
:1037F000FFF7A4FD0120FDF745FC08B0B0BD00BFF8
:1038000000000000FDF744FDFFF792FBFFF782F98F
:10381000FFF732F9FFF7F0F8FFF70EF9FFF71EFB9D
:10382000FFF73AFBFFF75CFBFFF7EEFAFFF7B6F99D
:10383000FFF732FAFFF7ACF8FFF780FFFCE7000074
:1038400010B591EA030F48BF83F0004300F17A827C
:10385000841A71EB030C05D2121943EB0C03001B05
:1038600061EB0C014FEA1154A4EB135CDFF81CE18F
:103870001EEA430F18BF9EEA445F00F0748021EAFD
:10388000045123EA0E0343F48013DCF1200E32D3FB
:1038900022FA0CFE10EB0E0023FA0CFE41EB0E0197
:1038A000CCF1200E03FA0EFE10EB0E00CCF1200E30
:1038B00051F10001B1F5801F32D201EB045112FA2F
:1038C0000EF2BDE8104058BF7047401C38BF5FEA99
:1038D000420218BF7047002814BF20F0010041F1D8
:1038E00000014FEA410313F5001F38BF7047A1F1F3
:1038F000C04100F019BA012A43EB0302ACF1200CDD
:10390000DCF11F0E32BF4FF0000E23FA0CF310EB68
:10391000030041EB0451B4EB115FD0D0A1EB045193
:1039200001F58011490801EB04515FEA30000ED324
:1039300050F1000038BF12FA0EFE08D1BDE8104069
:10394000C9E7401C38BF5FEA4202CAD1C3E7BDE8FD
:1039500010404FEA410313F5001F38BF7047A1F133
:10396000C04100F0E1B99EEA445F08D011EA5E0F61
:10397000BDE8104004BF01F0004100207047BDE8E1
:10398000104070B500F082F964FBBE3E0000E0FF1D
:10399000491058BFC1F140415B1058BFC3F14043CB
:1039A0008B42EFF30080704751EA030C17D41CF5EB
:1039B000801F58BFBCF5801F00F10680994218BFD8
:1039C000704708BF9042704707D711F5801F58BF56
:1039D00013F5801F19D499427047894270471CF52E
:1039E000801F08D5BCF5801FF7D58B4218BF7047E4
:1039F00008BF824270474FF4001C1CEB410F38BFD8
:103A00001CEB430F01D28B42704770B500F03EF9BA
:103A1000922449004FF000514FF08053FFF7B8BF98
:103A2000B0FA80F310FA03F10AD0C3F11D0303F5D5
:103A300080634FEA03524FEA415002EBD1217047B5
:103A40004FF000007047000051EA030C17D41CF53A
:103A5000801F58BFBCF5801F00F10680994218BF37
:103A6000704708BF9042704707D711F5801F58BFB5
:103A700013F5801F19D499427047894270471CF58D
:103A8000801F08D5BCF5801FF7D58B4218BF704743
:103A900008BF824270474FF4001C1CEB410F38BF37
:103AA0001CEB430F01D28B42704770B500F0EEF86B
:103AB000922449004FF080514FF00053FFF768BF48
:103AC00051EA030C17D41CF5801F58BFBCF5801FAA
:103AD00000F10680994218BF704708BF90427047B6
:103AE00007D711F5801F58BF13F5801F19D49942CD
:103AF0007047894270471CF5801F08D5BCF5801FB0
:103B0000F7D58B4218BF704708BF824270474FF409
:103B1000001C1CEB410F38BF1CEB430F01D28B4242
:103B2000704770B500F0B2F8922449004FF0005190
:103B30004FF08053FFF72CBF70B5DFF848C11CEA87
:103B4000111E1EBF1CEA13159EEA0C0F95EA0C0FFE
:103B500000F06F8081EA03044EEAD47EAE4421EA8D
:103B60004C1123EA4C1341F4801143F48013AEF15D
:103B70007F7EA1FB024CA0FB0365361955EB0C05BB
:103B8000A1FB034C4CF10003A0FB021C16EB0C063E
:103B9000654153F10003094218BF46F0010613F4D2
:103BA000007F0BD14FEA03314FEA053041EA15514E
:103BB00040EA165034036FF003020AE04FEAC321D3
:103BC0004FEAC52041EA555140EA5650F4026FF0E1
:103BD000020202EB2E4201EB025585EACE710AD0B9
:103BE0005FEA440C18BF24F0004450F1000041F19A
:103BF000000120EAD47040F2FE7C624500D270BD24
:103C0000A84214BF4FF080444FF04044002E08BF3C
:103C10000024BEF1806FA8BFA1F1C041BDE8704093
:103C200080F2828001F1C04101F000414FF00000BC
:103C300070470CEA13159EEA0C0F18BF95EA0C0F9B
:103C400006D081EA030E4FF000000EF0004170BD77
:103C500000F01CF88900013E00F007B800F009B838
:103C60004FEA430C5FEA5C5C08D081EA030100F094
:103C70005BB84FEA410C5FEA5C5CF6D102494FF059
:103C8000000070470000FF070000F87F0EF1020EF1
:103C90002EF0030E5EF8046B364205D4012A43EB86
:103CA000030515F5001F12D8012841EB010C1CF586
:103CB000001F0CD80ED14FEAD17C0CEB4C0C0CF150
:103CC000020C15F5001F08BF4CEBD37C04E04FF04D
:103CD000080C01E04FEAD37C0CEB4C0526FA05F604
:103CE00006F00706B6F1040C06D20EEB860CBDE812
:103CF00070404CF0010C6047DFE80CF0090B020249
:103D00004FF00041A1F500214FF0000070BD1946B1
:103D10001046012851EB010418BFD4F5001484BFEC
:103D2000002001F0004170BD0808A0F500114FEA25
:103D30003101704710B591EA030F48BF83F000438B
:103D40003FF586AD841A71EB030C07D28CF0004C62
:103D5000121943EB0C03001B61EB0C014FEA1154E9
:103D6000A4EB135CDFF8A4E11EEA430F18BF9EEA40
:103D7000445F00F0B48021EA045123EA6E0352420A
:103D8000C3EB6E0338BF5B1EDCF1200E25D322FA95
:103D90000CFE10EB0E0043FA0CFE41EB0E01CCF1D1
:103DA000200E03FA0EFE10EB0E00CCF1200E51F1A6
:103DB000000129D401EB045112FA0EF2BDE81040C3
:103DC00058BF7047401C1CBFB2F1004F704700281D
:103DD0000CBF491C20F00100704712EB020E43EBB0
:103DE000030218BF4FF0010E4EEA4202ACF1200C64
:103DF000DCF11E0E56D943FA0CFE10EB0E00CCF18E
:103E00001E0E51F1FF31D5D50EF1010E12FA0EFE44
:103E1000404141EB010101EB445C5FEA5C5C10D97D
:103E200001EB045110EBDE7038BFBEF1004FBDE86E
:103E3000104018BF704700280CBF491C20F001003B
:103E4000704734D24FEAD42C24F4006411F50011E9
:103E50001BD0B1FA81F20B3AA41AA41ED2F12003AE
:103E6000914030FA03F31943904001EBCC7101EB20
:103E70000451002CBDE81040A8BF704701F1C041BB
:103E800001F000414FF000007047B0FA80F310FAE3
:103E900003F102D1BDE810407047E41A173C480511
:103EA000C90AE2E701EB0451BDE810407047491030
:103EB0004FEA300001EB0451BDE8104002E04FF042
:103EC000000170474A0008BF0042F8D0B2F5001F59
:103ED00028BF704701F000414FF0000070479EEA94
:103EE000445F07D011EA5E0FBDE8104004BF002117
:103EF00000207047BDE8104070B5FFF7C7FE00BF57
:103F000040DFF63E104683F0004170470000E0FFBE
:103F100043004FEAD30C4FEA3C0C43401FBF40071D
:103F20000CF1605113F0FE4F70471CF0006F03D18D
:103F30000CF00041002070470CF0004343EA507041
:103F400040EACC0010B500F038F800BF0000009245
:103F50004FEA0001FFF7E8BE4FF00041A1F5002154
:103F60004FF00000704710B5FFF71EFD0CBF012099
:103F7000002010BD10B5FFF717FD14BF0120002071
:103F800010BD10B5FFF760FD8CBF0120002010BDF3
:103F900010B5FFF759FD2CBF0120002010BD10B552
:103FA000FFF78EFD94BF0120002010BD10B5FFF774
:103FB00087FD34BF0120002010BD0EF1020E2EF04F
:103FC000030E5EF8044B244204D44FEA4102B2F1DE
:103FD0007F4F11D84FEA4003B3F17F4F0CD80ED179
:103FE0004FEAD07C0CEB4C0C0CF1020CB2F17F4F81
:103FF00008BF4CEBD17C04E04FF0080C01E04FEA25
:10400000D17C0CEB4C0324FA03F404F00704B4F164
:10401000040C06D20EEB840CBDE810404CF0010CF1
:104020006047DFE80CF0070802024FF00040A0F5FF
:10403000800010BD0846420018BFD2F1807288BFD0
:1040400000F0004010BDF1EE100A4FF6FF71C0F213
:10405000C03120EA010040F04070E1EE100A7047E4
:104060000000000000000000010203040607080928
:104070000000000001020304000000000000000036
:1040800065340008F1360008000610160006101608
:10409000B040000800000020A8000000C401000893
:1040A00058410008A8000020D80A0000E0010008DC
:1040B0000024F40000000000804000080000000020
:1040C00000000000000000000000000000000000F0
:1040D00000000000000000000000000000000000E0
:1040E00000000000000000000000000000000000D0
:1040F00000000000000000000000000000000000C0
:1041000000000000000000000000040008000000A3
:10411000000000000000000000000000000000009F
:10412000C3F548C1C3F548410000F0C10000F041AB
:10413000000020C100002041000000000000FA4300
:10414000000000000000A04000000000000000008F
:08415000010000001000000056
:040000050800018965
:00000001FF
