:020000040800F2
:10000000A00E00202D020008C9420008B13D0008E2
:10001000C54200084D050008F14E00080000000030
:100020000000000000000000000000003D43000848
:100030003907000800000000394300089543000814
:10004000470200084702000847020008470200086C
:10005000470200084702000847020008470200085C
:10006000470200084702000847020008470200084C
:100070009105000847020008A10500084702000892
:10008000470200084702000847020008470200082C
:1000900051050008610500084702000847020008F2
:1000A000470200084702000847020008470200080C
:1000B00047020008470200084702000847020008FC
:1000C00047020008470200084702000847020008EC
:1000D00047020008C14E000847020008D14E000840
:1000E00047020008470200084702000847020008CC
:1000F00047020008470200084702000847020008BC
:1001000047020008470200084702000847020008AB
:100110004702000847020008470200086D44000833
:1001200047020008B1050008C105000847020008A1
:10013000470200084702000847020008470200087B
:100140007105000881050008470200084702000801
:1001500047020008D1050008E1050008E14E00084B
:10016000470200084702000847020008470200084B
:10017000470200084702000847020008000000008C
:10018000470200084702000800F002F800F03EF8BD
:100190000AA090E8000C82448344AAF10107DA45E2
:1001A00001D100F033F8AFF2090EBAE80F0013F0F6
:1001B000010F18BFFB1A43F001031847446E0000FB
:1001C000646E0000103A24BF78C878C1FAD852078C
:1001D00024BF30C830C144BF04680C6070470000C1
:1001E0000023002400250026103A28BF78C1FBD840
:1001F000520728BF30C148BF0B6070471FB506F0DB
:10020000A6FE00F007F91FBD10B510BD00F026F9DD
:100210001146FFF7F3FF06F005F900F044F903B4C7
:10022000FFF7F2FF03BC00F013F900000948804714
:1002300009480047FEE7FEE7FEE7FEE7FEE7FEE7C8
:10024000FEE7FEE7FEE7FEE704480549054A064BE0
:10025000704700005944000889010008A0080020E8
:10026000A00E0020A00A0020A00A002053EA020CE1
:1002700000F069802DE9F04B4FF00006002B1FBF06
:10028000B3FA83F503FA05F424FA05F65E4012BFCB
:100290001643B2FA82F502FA05F4C5F120051EBF35
:1002A00022FA05FC44EA0C04203556EA044C4FEAD5
:1002B000144418BF641C4FF000084FF0000990422E
:1002C00071EB030C39D3002919BFB1FA81F701FA98
:1002D00007F6B0FA80F700FA07F6C7F120071EBF4D
:1002E00020FA07FC46EA0C062037B6FBF4FCA7EB25
:1002F0000507103F07F01F0BCBF120062CFA06F67E
:100300000CFA0BFB44BFB3460026202FA4BF5E4669
:100310004FF0000B5BEA060C08BF4FF0010B19EB26
:100320000B0948EB0608ABFB027C06FB02CC0BFB7F
:1003300003CCC01B71EB0C01C1E70B4602464146E2
:100340004846BDE8F08B13B5084318BF4FF0FF30A7
:100350000146AFF30080BDE81C40704710B5203A5D
:10036000C0F00B80B1E81850A0E81850B1E8185060
:10037000A0E81850203ABFF4F5AF5FEA027C24BF32
:10038000B1E81850A0E8185044BF18C918C0BDE81B
:1003900010405FEA827C24BF51F8043B40F8043BE4
:1003A00008BF7047D20728BF31F8023B48BF11F899
:1003B000012B28BF20F8023B48BF00F8012B7047F3
:1003C0004FF0000200B5134694469646203922BFEE
:1003D000A0E80C50A0E80C50B1F12001BFF4F7AF39
:1003E000090728BFA0E80C5048BF0CC05DF804EB1B
:1003F000890028BF40F8042B08BF704748BF20F889
:10040000022B11F0804F18BF00F8012B7047704786
:100410007047704770B5064C7C44064D7D4404E03F
:100420002046016808448047241DAC42F8D170BDC5
:10043000046C0000046C000010B5002000F03CF8D3
:10044000FFF7E2FEBDE81040012000F001B8000017
:1004500001491820ABBEFEE726000200754600F0F9
:1004600033F8AE4605006946534620F0070085463E
:1004700018B020B5FFF7E8FEBDE820404FF00006B9
:100480004FF000074FF000084FF0000BAC46ACE80F
:10049000C009ACE8C009ACE8C009ACE8C00921F06B
:1004A00007018D46704710B50446AFF30080204623
:1004B000BDE81040FFF7B3BE10B500F00FF8BDE87F
:1004C000104000F006B800000048704710000020FF
:1004D0007047002801D0FFF7BBBF704710B500215F
:1004E00002A000F013F8012010BD0000534947415D
:1004F0004252543A2041626E6F726D616C20746595
:10050000726D696E6174696F6E00000070B50546AA
:100510000C460A2000E06D1C00F011F835B1287877
:100520000028F8D102E0641C00F009F814B120782A
:100530000028F8D1BDE870400A20AFF3008008B56C
:1005400069468DF800000320ABBE08BDFFE7FEE75B
:1005500080B540F24840C2F2000000F0E1FB80BDEF
:1005600080B540F24840C2F2000000F0D9FB80BDE7
:1005700080B540F27040C2F2000000F0D1FB80BDB7
:1005800080B540F27040C2F2000000F0C9FB80BDAF
:1005900080B540F25850C2F2000001F0C9F880BDA9
:1005A00080B540F2B850C2F2000001F0C1F880BD41
:1005B00080B540F21860C2F2000001F0B9F880BDC9
:1005C00080B540F29840C2F2000001F0B1F880BD61
:1005D00080B540F27860C2F2000001F0A9F880BD59
:1005E00080B540F2F840C2F2000001F0A1F880BDF1
:1005F00082B001900198007810384AF6AB21CAF613
:10060000AA21A0FB011000090090009946F6807015
:10061000C0F60000405C0199C8650098042807D323
:10062000FFE701990868042262F30900886506E083
:100630000199086840F2FF3290438865FFE701980E
:10064000806D02B07047000086B0059000208DF8E4
:1006500013000598806A03900598806910BBFFE736
:100660000398029003281BD80299DFE801F0020DDD
:100670000218059890F82F00C00720B1FFE701206D
:100680008DF81300FFE70CE00598C06AB0F1C07F59
:1006900004D1FFE701208DF81300FFE701E000E03F
:1006A000FFE745E005988069B0F5005F25D1FFE7D9
:1006B0000398019003281ED80199DFE801F0020693
:1006C000021101208DF8130016E0059890F82F0014
:1006D000C00720B1FFE701208DF81300FFE70BE012
:1006E0000598C06AB0F1C07F04D1FFE701208DF802
:1006F0001300FFE700E0FFE719E0039800900328EC
:1007000004D3FFE70098032804D00EE001208DF801
:1007100013000BE0059890F82F00C00720B1FFE709
:1007200001208DF81300FFE700E0FFE7FFE7FFE798
:100730009DF8130006B070477047000072B6FFE7DF
:10074000FEE7000084B002900191029890F820002A
:100750008DF803009DF80300012805D0FFE79DF800
:10076000030002280AD1FFE7019A0298016848694C
:100770001043486100208DF80F0008E00299486A94
:1007800040F48020486201208DF80F00FFE79DF8BB
:100790000F0004B07047000088B0069005910492E5
:1007A0000393069890F820008DF8070006980068DB
:1007B000806800900598806808B9FFE700E0FFE7CF
:1007C0009DF80700012806D0FFE79DF807000228E2
:1007D00040F08080FFE79DF80300400700280CD41C
:1007E000FFE79DF803000007002806D4FFE79DF807
:1007F0000300C006002864D5FFE70098C0F301603D
:100800000290029901208840039908600598806849
:1008100068B9FFE705980168C06840EA4150069949
:100820000968029A01EB0211C1F880010EE00599F6
:100830004A688868C96840EAC2000843069909689E
:10084000029A01EB0211C1F88001FFE705980069E7
:1008500006990968029A01EB0211C1F88401059812
:10086000007D01280CD1FFE706980068029900EB93
:100870000111D1F8840140F48070C1F88401FFE7D0
:100880000498406806990968029A01EB0211C1F8C0
:100890008C010498006806990968029A01EB02111C
:1008A000C1F8880106980068029900EB0111D1F89F
:1008B000800140F00100C1F8800100208DF81F0088
:1008C00011E00699486A40F40010486201208DF852
:1008D0001F0008E00699486A40F480204862012021
:1008E0008DF81F00FFE79DF81F0008B0704700005B
:1008F00086B004900391049800680190049890F8E1
:1009000020008DF803009DF80300012806D0FFE7C2
:100910009DF80300022840F0B080FFE746F2004057
:10092000C4F2000001900199D1F8000240F00100EA
:10093000C1F800020199D1F8000220F47C50C1F8FE
:1009400000020398426A0199D1F8000240EA0220AD
:10095000C1F800020398406900F01F01012088409F
:100960000290029A0199D1F81C029043C1F81C022E
:100970000398C069F0B9FFE7029A0199D1F80C0217
:100980009043C1F80C02039A9088D168526940EAFA
:100990000140019901EBC201C1F84002039A10889D
:1009A0009168526940EA0140019901EBC201C1F826
:1009B0004402FFE70398C06901281ED1FFE7029AAD
:1009C0000199D1F80C021043C1F80C02039A9088E7
:1009D0001168526940EA0140019901EBC201C1F876
:1009E0004002039A90899168526940EA0140019956
:1009F00001EBC201C1F84402FFE70398806940B9E6
:100A0000FFE7029A0199D1F804029043C1F8040269
:100A100007E0029A0199D1F804021043C1F80402D8
:100A2000FFE70398006940B9FFE7029A0199D1F8FE
:100A300014029043C1F8140207E0029A0199D1F818
:100A400014021043C1F81402FFE70398006A01285A
:100A500008D1FFE7029A0199D1F81C021043C1F8AE
:100A60001C02FFE70199D1F8000220F00100C1F853
:100A7000000200208DF8170008E00499486A40F44D
:100A80008020486201208DF81700FFE79DF81700CD
:100A900006B0704781B0009001B0704786B00490F6
:100AA000039102920193049890F820008DF80300BE
:100AB0009DF80300012806D0FFE79DF803000228F7
:100AC00040F0E880FFE7039880B9FFE704980068EA
:100AD000C068800748B9FFE70499486A40F40010ED
:100AE000486201208DF81700DDE00FE004980068EF
:100AF0000069800748B9FFE70499486A40F400108C
:100B0000486201208DF81700CDE0FFE704980068E7
:100B1000039900EB0110D0F8B00100F00400029935
:100B200088600298806858B9FFE7049800680399C4
:100B300000EB0110D0F8B001400D029908600AE006
:100B400004980068039900EB0110D0F8B001C008C8
:100B500002994860FFE704980068039900EB0110D0
:100B6000D0F8B00100F002000299C8600498006853
:100B7000039900EB0110D0F8B40100F00F00082831
:100B800004D3FFE70299082008610BE0049800688D
:100B9000039900EB0110D0F8B40100F00F000299A6
:100BA0000861FFE704980068039900EB0110D0F892
:100BB000B40180B2000A0299886104980068039920
:100BC00000EB0110D0F8B401000C029948610498C0
:100BD0000068039900EB0110D0F8B8010199087082
:100BE00004980068039900EB0110D0F8B801000ADE
:100BF0000199487004980068039900EB0110D0F83F
:100C0000B801000C0199887004980068039900EB02
:100C10000110D0F8B801000E0199C870049800685E
:100C2000039900EB0110D0F8BC01019908710498F8
:100C30000068039900EB0110D0F8BC01000A01998B
:100C4000487104980068039900EB0110D0F8BC01CA
:100C5000000C0199887104980068039900EB011059
:100C6000D0F8BC01000E0199C871039838B9FFE7AC
:100C700004980168C86840F02000C86006E0049845
:100C80000168086940F020000861FFE700208DF846
:100C9000170008E00499486A40F480204862012067
:100CA0008DF81700FFE79DF8170006B070470000A9
:100CB00083B0029000200190029890F820008DF8F7
:100CC00003009DF80300012805D0FFE79DF803000D
:100CD000022822D1FFE702980068806840010028BE
:100CE00004D5FFE7019801300190FFE70298006802
:100CF00080680001002804D5FFE7019801300190C9
:100D0000FFE7029800688068C000002804D5FFE76C
:100D1000019801300190FFE7FFE7019803B07047A9
:100D200080B58AB009900020089009980068406951
:100D300007900998006840680690099800688068E4
:100D4000059009980068C0680490099800680069D7
:100D5000039009980068806902909DF81C00C00704
:100D6000002800F09480FFE79DF81400C00758B3F6
:100D7000FFE709980168012088609DF8140080074A
:100D8000002804D5FFE7099800F022FC1BE09DF83D
:100D900014004007002805D5FFE7089840F40060DC
:100DA00008900FE09DF814000007002805D5FFE724
:100DB000089840F48050089003E0099800F004FC83
:100DC000FFE7FFE7FFE7FFE79DF81500C00760B307
:100DD000FFE7099801684FF4807088609DF815005E
:100DE0008007002804D5FFE7099800F0F9FB1BE015
:100DF0009DF815004007002805D5FFE7089840F446
:100E0000005008900FE09DF815000007002805D558
:100E1000FFE7089840F48040089003E0099800F04C
:100E2000DBFBFFE7FFE7FFE7FFE79DF81600C007E2
:100E300060B3FFE7099801684FF4803088609DF83F
:100E400016008007002804D5FFE7099800F0D0FBC2
:100E50001BE09DF816004007002805D5FFE708981D
:100E600040F4004008900FE09DF8160000070028AD
:100E700005D5FFE7089840F48030089003E0099812
:100E800000F0B2FBFFE7FFE7FFE7FFE7FFE79DF8B2
:100E90001C000007002810D5FFE79DF81000C006D1
:100EA000002809D5FFE7089840F4007008900998D9
:100EB00001681020C860FFE7FFE79DF81C004007AD
:100EC00000280FD5FFE79DF810000007002808D57F
:100ED000FFE7099801680820C860099800F0DEFA69
:100EE000FFE7FFE79DF81C00800700280BD5FFE710
:100EF00009980068C068800720B1FFE7099800F0F2
:100F0000D1FAFFE7FFE79DF81C004006002810D546
:100F1000FFE79DF80C00C006002809D5FFE70898F8
:100F200040F4806008900998016810200861FFE78C
:100F3000FFE79DF81C00800600280FD5FFE79DF80D
:100F40000C000007002808D5FFE709980168082071
:100F50000861099800F0E6FAFFE7FFE79DF81C003A
:100F6000C00600280BD5FFE70998006800698007D4
:100F700020B1FFE7099800F0D9FAFFE7FFE79DF8F5
:100F80001E00800700280FD5FFE79DF81800C00657
:100F9000002808D5FFE709980168102048600998E3
:100FA00000F0C8FAFFE7FFE79DF81E00C00778B120
:100FB000FFE79DF818000007002808D5FFE709980B
:100FC000016808204860099800F016FBFFE7FFE77A
:100FD0009DF81D000006002840F18D80FFE79DF878
:100FE00018004007002840F18180FFE79DF81D00B0
:100FF000C00750B1FFE79DF80800C00728B1FFE720
:10100000089840F001000890FFE79DF81D00800758
:1010100000280BD5FFE79DF808008007002805D5BC
:10102000FFE7089840F002000890FFE79DF81D00D8
:10103000400700280BD5FFE79DF80800400700286F
:1010400005D5FFE7089840F004000890FFE79DF8F9
:101050001D000007002848D5FFE79DF8080010F0A4
:10106000700F42D0FFE7029800F070000146019136
:10107000102814D0FFE70198202815D0FFE7019829
:10108000302816D0FFE70198402817D0FFE70198D5
:10109000502818D0FFE70198602819D01DE0089863
:1010A00040F00800089019E0089840F010000890FF
:1010B00014E0089840F0200008900FE0089840F0F5
:1010C000400008900AE0089840F08000089005E091
:1010D000089840F48070089000E0FFE709980168E4
:1010E000886920F070008861FFE7FFE709980168D0
:1010F00004204860FFE7089848B1FFE7089A09997B
:10110000486A104348620998FFF7C4FCFFE70AB039
:1011100080BD000080B584B00290029820B9FFE73E
:1011200001208DF80F00E0E0029890F8200020B92F
:10113000FFE7029800F0DEF8FFE702980168086810
:1011400040F00100086000F039FF0190FFE70298CD
:1011500000684068C007A8B9FFE700F02FFF0199B9
:10116000401A0B280DD3FFE70299486A40F400307B
:1011700048620299052081F8200001208DF80F00B7
:10118000B3E0E4E702980168086820F00200086014
:1011900000F014FF0190FFE70298006840688007A4
:1011A000002815D5FFE700F009FF0199401A0B2828
:1011B0000DD3FFE70299486A40F400304862029973
:1011C000052081F8200001208DF80F008DE0E3E775
:1011D0000298007E012807D1FFE70298016808689D
:1011E00040F08000086006E002980168086820F07E
:1011F00080000860FFE70298407E012807D1FFE7E2
:1012000002980168086840F04000086006E0029813
:101210000168086820F040000860FFE70298807EBF
:10122000012807D1FFE702980168086840F0200014
:10123000086006E002980168086820F02000086055
:10124000FFE70298C07E012807D1FFE702980168F6
:10125000086820F01000086006E00298016808683D
:1012600040F010000860FFE70298007F012807D1D6
:10127000FFE702980168086840F00800086006E08F
:1012800002980168086820F008000860FFE70298EB
:10129000407F012807D1FFE702980168086840F005
:1012A0000400086006E002980168086820F0040065
:1012B0000860FFE7029B19685A689868D3F80CC069
:1012C00040EA0C00D3F810C040EA0C005B691843F8
:1012D000013A1043C861029900204862029A012134
:1012E00082F820108DF80F00FFE79DF80F0004B082
:1012F00080BD000080B592B01190002010900F903A
:101300000E900D900C901198006846F20041C4F2C6
:101310000001884252D1FFE740F27000C2F20000A3
:101320000168013101600068012812D1FFE7FFE781
:1013300000200B9043F64000C4F20200016841F027
:1013400000710160006800F000700B900B98FFE7DF
:10135000FFE7FFE700200A9043F63000C4F20200E6
:10136000016841F008010160006800F008000A907F
:101370000A98FFE703200C9002210D9100210591AE
:101380000E910F900920109040F60040C4F2020028
:101390000CA900F037FC059A14200490114600F0C7
:1013A000A5FE049800F098FE059A152006901146B7
:1013B00000F09CFE069800F08FFE6DE0119800682A
:1013C00046F60001C4F20001884264D1FFE7FFE75E
:1013D0000020099043F64000C4F20200016841F089
:1013E00080610160006800F0806009900998FFE763
:1013F00040F27000C2F20000016801310160006833
:10140000012812D1FFE7FFE70020089043F64000D3
:10141000C4F20200016841F000710160006800F050
:10142000007008900898FFE7FFE7FFE700200790AB
:1014300043F63000C4F20200016841F0020101608D
:10144000006800F0020007900798FFE760200C900A
:1014500002200D90002002900E9003200F90092092
:10146000109040F20040C4F202000CA900F0CAFB48
:10147000029A40200190114600F038FE019800F0D9
:101480002BFE029A41200390114600F02FFE039894
:1014900000F022FEFFE7FFE712B080BD81B00090B0
:1014A00001B0704770B58EB00D900D9840F2740287
:1014B000C2F20002059240F29006C2F2000600213C
:1014C0003346FFF7EBFA0598016842688368D0F865
:1014D0000CC0D0F810E044690B94CDF828E0CDF8AA
:1014E00024C008930792069180690C900699079A88
:1014F000089B0998DDF828E00B9C0C9DEC46CCF885
:101500001060CCF80C50CCF80840CCF804E0CCF8D3
:10151000000040F29800C2F2000003F04FFE0EB04F
:1015200070BD000081B0009001B0704781B00090A4
:1015300001B0704781B0009001B0704780B584B0B1
:101540000290029890F8200001282FD1FFE702991D
:10155000022081F8200002980168086820F001004C
:10156000086000F02BFD0190FFE7029800684068DA
:10157000C007A8B1FFE700F021FD0199401A0B2830
:101580000DD3FFE70299486A40F40030486202999F
:10159000052081F8200001208DF80F000FE0E4E71E
:1015A0000299002048628DF80F0008E00299486A0D
:1015B00040F40020486201208DF80F00FFE79DF8FD
:1015C0000F0004B080BD000081B0009001B07047F2
:1015D00081B0009001B0704781B0009001B07047B9
:1015E00081B0009001B0704781B0009001B07047A9
:1015F00081B0009001B0704781B0009001B0704799
:1016000080B584B002900298806D019000F0D6FC05
:101610000090029890F8350002280DD0FFE702995B
:1016200080204865FFE70299002081F83400FFE739
:1016300001208DF80F0055E002980168086820F03D
:101640001600086002980168486920F0800048612F
:101650000298006C20B9FFE70298806C38B1FFE770
:1016600002980168086820F008000860FFE7029807
:101670000168086820F001000860FFE70298006830
:101680000068C007C8B1FFE700F098FC0099401A55
:10169000062811D3FFE7029920204865029903200C
:1016A00081F83500FFE70299002081F83400FFE758
:1016B00003208DF80F0015E0E0E70298C16D3F2090
:1016C0008840019988600299012081F83500FFE780
:1016D0000299002081F83400FFE7FFE700208DF831
:1016E0000F00FFE79DF80F0004B080BD82B00090AE
:1016F000009890F83500022807D0FFE70099802075
:10170000486501208DF807000EE00099052081F85A
:10171000350000980168086820F001000860FFE7C4
:1017200000208DF80700FFE79DF8070002B0704722
:1017300080B586B005900020039040F20000C2F210
:101740000000006848F2B511C1F64E31A0FB01104F
:10175000800A02900598806D0190019800680490BD
:1017600004980599C96DC840000700281AD5FFE7FD
:101770000598006800684007002812D5FFE7059823
:101780000168086820F0040008600598C16D082011
:101790008840019988600599486D40F001004865CE
:1017A000FFE7FFE704980599C96DC840C007A0B1DD
:1017B000FFE7059800684069000600280CD5FFE7A0
:1017C0000598C16D01208840019988600599486D90
:1017D00040F002004865FFE7FFE704980599C96DEE
:1017E000C8404007002814D5FFE705980068006846
:1017F000800700280CD5FFE70598C16D04208840BC
:10180000019988600599486D40F004004865FFE73C
:10181000FFE704980599C96DC840C006002847D560
:10182000FFE7059800680068000700283FD5FFE73C
:101830000598C16D1020884001998860059800685E
:101840000068400300281AD5FFE705980068006883
:101850000003002809D4FFE70598006C20B1FFE7DA
:101860000598016C8847FFE708E00598806C20B177
:10187000FFE70598816C8847FFE7FFE716E00598CA
:1018800000680068C005002807D4FFE705980168D4
:10189000086820F008000860FFE70598006C20B198
:1018A000FFE70598016C8847FFE7FFE7FFE7FFE7E1
:1018B00004980599C96DC8408006002840F18D80C4
:1018C000FFE7059800680068C006002840F18480A2
:1018D000FFE70598C16D2020884001998860059830
:1018E00090F83500052834D1FFE7059801680868AD
:1018F00020F01600086005980168486920F0800013
:1019000048610598006C20B9FFE70598806C38B1F4
:10191000FFE705980168086820F008000860FFE705
:101920000598C16D3F208840019988600599012084
:1019300081F83500FFE70599002081F83400FFE7C2
:101940000598006D20B1FFE70598016D8847FFE716
:101950007BE0059800680068400300281AD5FFE77F
:101960000598006800680003002809D4FFE705987F
:10197000406C20B1FFE70598416C8847FFE708E01D
:101980000598C06B20B1FFE70598C16B8847FFE75A
:10199000FFE720E0059800680068C005002811D422
:1019A000FFE705980168086820F0100008600599B5
:1019B000012081F83500FFE70599002081F8340007
:1019C000FFE7FFE70598C06B20B1FFE70598C16B03
:1019D0008847FFE7FFE7FFE7FFE70598406DA0B303
:1019E000FFE70598406DC00730B3FFE70599052074
:1019F00081F8350005980168086820F0010008604A
:101A0000FFE70398013003900299884201D9FFE76C
:101A100007E0FFE7059800680068C0070028F0D1DC
:101A2000FFE70599012081F83500FFE705990020BF
:101A300081F83400FFE7FFE70598C06C20B1FFE7AD
:101A40000598C16C8847FFE7FFE706B080BD00003E
:101A500080B586B004900020039000F0AFFA0290A9
:101A6000049820B9FFE701208DF81700A3E004983F
:101A7000406A08B1FFE7FFE70499022081F83500CA
:101A8000FFE70499002081F83400FFE7049801681B
:101A9000086820F001000860FFE70498006800680B
:101AA000C00790B1FFE700F089FA0299401A0628B2
:101AB0000AD3FFE70499202048650499032081F8A0
:101AC00035008DF8170076E0E7E7049800680068B5
:101AD0000390039848F23F01CFF2100108400390B1
:101AE000049900914868D1F808C0CB680A6940EAB7
:101AF0000C00184310434A6910438A691043CA69AD
:101B00001043096A01430398084303900498406A0C
:101B1000042808D1FFE70499C86A096B01430398B8
:101B200008430390FFE70398049909680860049844
:101B3000006840690390039820F007000390049820
:101B4000416A0398084303900498406A04281AD114
:101B5000FFE70498816A0398084303900498C06AD9
:101B600080B1FFE70498FEF76FFD50B1FFE70499DD
:101B7000402048650499012081F835008DF8170050
:101B800019E0FFE7FFE703980499096848610498A2
:101B9000FEF72EFD01900498C16D3F208840019909
:101BA0008860049900204865049A012182F8351064
:101BB0008DF81700FFE79DF8170006B080BD000004
:101BC00080B584B0039000F0F9F902900398019079
:101BD0000198013048B1FFE740F20400C2F2000072
:101BE0000178019808440190FFE7FFE700F0E6F96B
:101BF0000299401A0199884201D2FFE7F6E704B042
:101C000080BD00008EB00D900C9100200A900990CC
:101C100008900B90FFE70B980F2800F2CC81FFE7AC
:101C20000B99012088400A900C9800680A99084096
:101C3000099009980A99884240F0B881FFE70C980A
:101C4000406800F00300012807D0FFE70C984068C7
:101C500000F0030002282FD1FFE70D98806808905C
:101C60000B984100032000FA01F10898884308907E
:101C70000C98C0680B99490000FA01F108980843D4
:101C8000089008980D9988600D98406808900B9905
:101C9000012000FA01F10898884308900C984068E8
:101CA000C0F300100B9900FA01F10898084308905E
:101CB00008980D994860FFE70C98406800F0030011
:101CC000032818D0FFE70D98C06808900B984100D2
:101CD000032000FA01F10898884308900C98806866
:101CE0000B99490000FA01F10898084308900898F8
:101CF0000D99C860FFE70C98406800F003000228C7
:101D000026D1FFE70D980B996FF0030202EA51010B
:101D10000844006A08900B9800F0070081000F202B
:101D200000FA01F10898884308900C9800690B9913
:101D300001F00701890000FA01F1089808430890B2
:101D400008980D990B9B02EA530211440862FFE7C1
:101D50000D98006808900B984100032000FA01F1EB
:101D60000898884308900C98406800F003000B998D
:101D7000490000FA01F108980843089008980D9965
:101D800008600C9880798007002800F00E81FFE73A
:101D9000FFE70020079043F64400C4F20200016808
:101DA00041F480410160006800F48040079007988A
:101DB000FFE70B9820F0030043F60801C4F201018D
:101DC000405808900B9800F0030081000F2000FAA3
:101DD00001F10898884308900D980021C4F202018F
:101DE000884203D1FFE7002006905EE00D9840F2A4
:101DF0000041C4F20201884203D1FFE701200590AF
:101E000050E00D9840F60001C4F20201884203D16F
:101E1000FFE70220049042E00D9840F60041C4F232
:101E20000201884203D1FFE70320039034E00D98BC
:101E300041F20001C4F20201884203D1FFE704200D
:101E4000029026E00D9841F20041C4F2020188425E
:101E500003D1FFE70520019018E00D9841F600013D
:101E6000C4F20201884203D1FFE7062000900AE095
:101E70000D9941F60042C4F202020820914208BFC7
:101E800007200090FFE700980190FFE7019802907B
:101E9000FFE702980390FFE703980490FFE7049898
:101EA0000590FFE705980690FFE70698C0B20B99EA
:101EB00001F00301890000FA01F108980843089035
:101EC00008980B9921F0030143F60802C4F20102BD
:101ED000885043F60840C4F2010000680890099950
:101EE0000898884308900C988079C006002805D58A
:101EF000FFE70999089808430890FFE7089843F618
:101F00000841C4F20101086043F60C40C4F201002C
:101F10000068089009990898884308900C9880797F
:101F20008006002805D5FFE709990898084308901E
:101F3000FFE7089843F60C41C4F20101086043F63C
:101F40000440C4F201000068089009990898884389
:101F500008900C9880798007002805D5FFE709993B
:101F6000089808430890FFE7089843F60441C4F234
:101F70000101086043F60040C4F2010000680890C7
:101F800009990898884308900C988079C00728B16F
:101F9000FFE70999089808430890FFE7089843F677
:101FA0000041C4F201010860FFE7FFE7FFE70B987B
:101FB00001300B902FE60EB07047000040F6940001
:101FC000C2F200000068704740F20400C2F2000054
:101FD000027840F69401C2F20001086810440860DB
:101FE0007047000080B543F60041C4F20201086862
:101FF00040F400700860086840F480600860086879
:1020000040F480700860032000F08AF80F2000F090
:1020100005F800F03BF8002080BD000080B582B0DC
:10202000009040F20000C2F20000006840F204019B
:10203000C2F200010A784FF47A71B1FBF2F1B0FB01
:10204000F1F000F0A5FD20B1FFE701208DF80700B9
:1020500018E000980F280DD8FFE700994FF0FF30E7
:10206000002200F043F8009840F20801C2F200019B
:10207000086003E001208DF8070003E000208DF8E0
:102080000700FFE79DF8070002B080BD82B0FFE7C0
:102090000020019043F64400C4F20200016841F4BC
:1020A00080410160006800F4804001900198FFE7E2
:1020B000FFE70020009043F64000C4F202000168F0
:1020C00041F080510160006800F08050009000985D
:1020D000FFE702B07047000080B582B08DF80700BE
:1020E0009DF9070004F06CF802B080BD80B586B0A1
:1020F0008DF81700049103920020029004F078F804
:1021000002909DF91700019002980499039A02F039
:10211000DDF80146019804F073F806B080BD0000B8
:1021200080B582B00190019804F08CF802B080BDB7
:1021300080B584B002900191029820B9FFE7012098
:102140008DF80F0021E1019843F60041C4F202012D
:10215000096801F00701884212D9FFE7019943F6A7
:102160000040C4F202000170006800F0070001990D
:10217000884204D0FFE701208DF80F0005E1FFE75A
:1021800002980078800700282AD5FFE70298007897
:102190004007002809D5FFE743F60801C4F2020111
:1021A000086840F4E0500860FFE7029800780007F4
:1021B000002809D5FFE743F60801C4F202010868C8
:1021C00040F460400860FFE743F60801C4F20201F2
:1021D000086820F0F000029A926810430860FFE758
:1021E00002980078C00700286ED0FFE70298406888
:1021F000012811D1FFE743F60000C4F20200006895
:1022000000F400310020B0EB514F04D1FFE7012072
:102210008DF80F00B9E02CE002984068022805D044
:10222000FFE702984068032811D1FFE743F600005A
:10223000C4F20200006800F000710020B0EB516FA2
:1022400004D1FFE701208DF80F009EE010E043F677
:102250000000C4F20200006800F002010020B0EBB0
:10226000510F04D1FFE701208DF80F008DE0FFE74B
:10227000FFE743F60801C4F20201086820F00300FA
:10228000029A526810430860FFF798FE0090FFE73B
:1022900043F60800C4F20200006800F00C00029946
:1022A0004968B0EB810F0ED0FFE7FFF787FE00997A
:1022B000401A41F28931884204D3FFE703208DF8A8
:1022C0000F0062E0E4E7FFE7019843F60041C4F243
:1022D0000201096801F00701884212D2FFE7019963
:1022E00043F60040C4F202000170006800F00700ED
:1022F0000199884204D0FFE701208DF80F0044E0E7
:10230000FFE702980078400700280CD5FFE743F666
:102310000801C4F20201086820F4E050029AD26871
:1023200010430860FFE702980078000700280DD5E9
:10233000FFE743F60801C4F20201086820F4604098
:10234000029A126940EAC2000860FFE700F04CF808
:1023500043F60801C4F202010968C9B20A0946F647
:102360006871C0F60001895CC84040F20001C2F209
:102370000001086040F20800C2F200000068FFF7A8
:102380004DFE00208DF80F00FFE79DF80F0004B010
:1023900080BD000040F20000C2F2000000687047FB
:1023A00080B5FFF7F7FF43F60801C4F202010968A0
:1023B000C1F3822246F67871C0F60001895CC840FC
:1023C00080BD000080B5FFF7E5FF43F60801C4F2C9
:1023D0000201096889B24A0B46F67871C0F600011D
:1023E000895CC84080BD000080B586B000200590A3
:1023F00004900390029043F60800C4F202000068C3
:1024000000F00C000146019140B1FFE7019804285B
:102410000AD0FFE7019808280CD04FE042F20040B4
:10242000C0F2F40002904FE041F60030C0F2B70075
:10243000029049E043F60400C4F20200016801F092
:102440003F01059100684002002813D5FFE743F6DD
:102450000400C4F202000068C0F3881041F60031A5
:10246000C0F2B701A0FB0101059A0023FDF7FEFEB3
:10247000049012E043F60400C4F202000068C0F3C6
:10248000881042F20041C0F2F401A0FB0101059A5C
:102490000023FDF7EBFE0490FFE743F60400C4F2CF
:1024A0000200006800F44031022000EBD1300390BC
:1024B00004980399B0FBF1F0029005E042F200406D
:1024C000C0F2F4000290FFE7029806B080BD000061
:1024D00080B586B00490049820B9FFE701208DF8FC
:1024E000170050E304980078C007002800F0A5808A
:1024F000FFE743F60800C4F20200006800F00C0099
:10250000042813D0FFE743F60800C4F20200006875
:1025100000F00C0008281ED1FFE743F60400C4F2C7
:10252000020000684002002815D5FFE743F60000CE
:10253000C4F20200006800F400310020B0EB514FFB
:1025400008D0FFE70498406820B9FFE701208DF824
:10255000170018E370E0FFE704984068B0F5803F8B
:1025600009D1FFE743F60001C4F20201086840F414
:102570008030086020E004984068B0F5A02F0DD1AD
:10258000FFE743F60001C4F20201086840F480202E
:102590000860086840F4803008600CE043F60001F1
:1025A000C4F20201086820F480300860086820F452
:1025B00080200860FFE7FFE7FFE704984068E8B184
:1025C000FFE7FFF7FBFC0390FFE743F60000C4F2D0
:1025D0000200006800F400310020B0EB514F0CD134
:1025E000FFE7FFF7EBFC0399401A652804D3FFE7E8
:1025F00003208DF81700C6E2E7E71CE0FFF7DEFCDA
:102600000390FFE743F60000C4F20200006800F404
:1026100000310020B0EB514F0CD0FFE7FFF7CEFCAC
:102620000399401A652804D3FFE703208DF81700AB
:10263000A9E2E7E7FFE7FFE7FFE7049800788007F4
:10264000002840F19680FFE743F60800C4F202003C
:10265000006810F00C0F13D0FFE743F60800C4F237
:102660000200006800F00C0008282CD1FFE743F6B8
:102670000400C4F2020000684002002823D4FFE7EF
:1026800043F60000C4F20200006800F002010020DE
:10269000B0EB510F09D0FFE70498C068012804D0BF
:1026A000FFE701208DF817006DE243F60001C4F248
:1026B0000201086820F0F800049A126940EAC2009A
:1026C0000860FFE754E00498C06870B3FFE700219A
:1026D000C4F2472101200860FFF770FC0390FFE778
:1026E00043F60000C4F20200006800F0020100207E
:1026F000B0EB510F0CD1FFE7FFF760FC0399401AD4
:10270000032804D3FFE703208DF817003BE2E7E737
:1027100043F60001C4F20201086820F0F800049AB0
:10272000126940EAC200086021E00021C4F247219A
:1027300000200860FFF742FC0390FFE743F600002B
:10274000C4F20200006800F002010020B0EB510F5B
:102750000CD0FFE7FFF732FC0399401A032804D39B
:10276000FFE703208DF817000DE2E7E7FFE7FFE73B
:10277000FFE704980078000700284BD5FFE704988E
:10278000406918B3FFE740F68061C4F24721012099
:102790000860FFF713FC0390FFE743F67400C4F2F0
:1027A0000200006800F002010020B0EB510F0CD1D4
:1027B000FFE7FFF703FC0399401A032804D3FFE760
:1027C00003208DF81700DEE1E7E722E040F68061A4
:1027D000C4F2472100200860FFF7F0FB0390FFE7F9
:1027E00043F67400C4F20200006800F00201002009
:1027F000B0EB510F0CD0FFE7FFF7E0FB0399401A55
:10280000032804D3FFE703208DF81700BBE1E7E7B7
:10281000FFE7FFE7049800784007002840F1CE80EA
:10282000FFE700208DF8070043F64000C4F20200E5
:102830000068C000002815D4FFE7FFE700200090E3
:1028400043F64000C4F20200016841F0805101608B
:10285000006800F0805000900098FFE701208DF89C
:102860000700FFE747F20000C4F200000068C0055F
:10287000002822D4FFE747F20001C4F200010868F3
:1028800040F480700860FFF799FB0390FFE747F280
:102890000000C4F200000068C00500280CD4FFE767
:1028A000FFF78CFB0399401A032804D3FFE70320AA
:1028B0008DF8170067E1EAE7FFE7FFE70498806813
:1028C000012809D1FFE743F67001C4F2020108684C
:1028D00040F0010008601FE00498806805280DD1D1
:1028E000FFE743F67001C4F20201086840F00400FB
:1028F0000860086840F0010008600CE043F67001D1
:10290000C4F20201086820F001000860086820F0A5
:1029100004000860FFE7FFE7FFE704988068F8B16C
:10292000FFE7FFF74BFB0390FFE743F67000C4F2AD
:102930000200006800F002010020B0EB510F0ED140
:10294000FFE7FFF73BFB0399401A41F289318842C8
:1029500004D3FFE703208DF8170014E1E5E71EE03C
:10296000FFF72CFB0390FFE743F67000C4F2020070
:10297000006800F002010020B0EB510F0ED0FFE71D
:10298000FFF71CFB0399401A41F28931884204D3B6
:10299000FFE703208DF81700F5E0E5E7FFE79DF876
:1029A0000700012809D1FFE743F64001C4F2020104
:1029B000086820F080500860FFE7FFE7049880690E
:1029C000002800F0DC80FFE743F60800C4F20200B4
:1029D000006800F00C00082800F08580FFE70498EC
:1029E000806902285CD1FFE76021C4F24721002002
:1029F0000860FFF7E3FA0390FFE743F60000C4F234
:102A00000200006800F000710020B0EB516F0CD0A4
:102A1000FFE7FFF7D3FA0399401A032804D3FFE72F
:102A200003208DF81700AEE0E7E70499C869D1F8F4
:102A300020C04B6A8A6A40EA0C0040EA8310D20345
:102A40004FF6FF739A43A2F580321043C96A40EAF9
:102A5000016043F60401C4F2020108606021C4F27F
:102A6000472101200860FFF7A9FA0390FFE743F62A
:102A70000000C4F20200006800F000710020B0EB1A
:102A8000516F0CD1FFE7FFF799FA0399401A032819
:102A900004D3FFE703208DF8170074E0E7E721E097
:102AA0006021C4F2472100200860FFF787FA0390F5
:102AB000FFE743F60000C4F20200006800F0007176
:102AC0000020B0EB516F0CD0FFE7FFF777FA0399C6
:102AD000401A032804D3FFE703208DF8170052E0C3
:102AE000E7E7FFE74AE004988069012804D1FFE79F
:102AF00001208DF8170046E043F60400C4F20200FE
:102B00000068029004988069012831D0FFE702989C
:102B100000F480000499C969884229D1FFE702982E
:102B200000F03F000499096A884221D1FFE702982A
:102B300047F6C07108400499496AB0EB811F17D16C
:102B4000FFE7029800F440300499896AC9034FF600
:102B5000FF729143A1F58031884209D1FFE70298C5
:102B600000F070600499C96AB0EB016F04D0FFE710
:102B700001208DF8170006E0FFE7FFE7FFE70020E0
:102B80008DF81700FFE79DF8170006B080BD000024
:102B900080B582B00190019801F0D2FB02B080BDF7
:102BA00081B0009001B0704781B0009001B07047D3
:102BB00085B003900291FFE7039890F83C0001284C
:102BC00004D1FFE702208DF813007EE00399012075
:102BD00081F83C00FFE7FFE70399022081F83D0000
:102BE000039800684068019003980068806800902E
:102BF000019820F070000190029801680198084344
:102C000001900198039909684860039800680021C1
:102C1000C4F2010188423CD0FFE703980068B0F19C
:102C2000804F36D0FFE70398006840F20041C4F2BD
:102C3000000188422DD0FFE70398006840F60001AC
:102C4000C4F20001884224D0FFE70398006840F6F0
:102C50000041C4F2000188421BD0FFE703980068DE
:102C600040F20041C4F20101884212D0FFE703980C
:102C7000006844F20001C4F20101884209D0FFE774
:102C80000398006841F60001C4F2000188420ED1A9
:102C9000FFE7009820F080000090029841680098BB
:102CA000084300900098039909688860FFE703993A
:102CB000012081F83D00FFE70399002081F83C00E6
:102CC000FFE700208DF81300FFE79DF8130005B023
:102CD0007047000080B582B00090009820B9FFE7EF
:102CE00001208DF807003FE0009890F83D0040B9C2
:102CF000FFE70099002081F83C00009800F038F8C8
:102D0000FFE70099022081F83D00009951F8040B7B
:102D100001F0B4FB0099012081F84600FFE700991B
:102D2000012081F83E00009981F83F00009981F868
:102D30004000009981F84100FFE7FFE7009901207A
:102D400081F84200009981F84300009981F844001D
:102D5000009981F84500FFE70099012081F83D00C6
:102D600000208DF80700FFE79DF8070002B080BD46
:102D700080B584B003900398006840F60041C4F227
:102D80000001884212D1FFE7FFE70020029043F6DE
:102D90004000C4F20200016841F0080101600068CF
:102DA00000F0080002900298FFE724E00398006812
:102DB00041F20041C4F2000188421BD1FFE7FFE766
:102DC0000020019043F64000C4F20200016841F087
:102DD00020010160006800F0200001900198FFE7E9
:102DE0003720009001210022FFF780F90098FFF7BB
:102DF00073F9FFE7FFE704B080BD000080B586B03F
:102E00000490039100208DF80B00FFE7049890F8E0
:102E10003C00012804D1FFE702208DF81700ABE049
:102E20000499012081F83C00FFE7FFE704990220A4
:102E300081F83D000498006880680190019820F0B6
:102E400077000190019820F47F4001900198049947
:102E500009688860039800680090002872D0FFE736
:102E6000009810286ED0FFE7009820286AD0FFE76E
:102E70000098302866D0FFE70098402855D0FFE73B
:102E80000098502837D0FFE70098602840D0FFE72F
:102E9000009870280BD0FFE70098B0F5805F05D050
:102EA000FFE70098B0F5005F16D052E055E00498B7
:102EB0000068039B5A689968DB6801F0B7FB0498C7
:102EC000006880680190019840F0770001900198B7
:102ED00004990968886040E004980068039B5A6878
:102EE0009968DB6801F0A2FB04980168886840F4E7
:102EF0008040886031E004980068039A5168D26885
:102F000001F080FD04980068502101F0A9FB24E045
:102F100004980068039A5168D26801F09BFD0498F8
:102F20000068602101F09CFB17E004980068039A98
:102F30005168D26801F066FD04980068402101F0F4
:102F40008FFB0AE0049800680399096801F088FB88
:102F500003E001208DF80B00FFE70499012081F8C0
:102F60003D00FFE70499002081F83C00FFE79DF851
:102F70000B008DF81700FFE79DF8170006B080BD25
:102F800081B0009001B0704780B584B00390039881
:102F90000068C068029003980068006901909DF87D
:102FA00004008007002824D5FFE79DF8080080076B
:102FB00000281DD5FFE7039801686FF00200086143
:102FC000039901200877039800688069800720B181
:102FD000FFE70398FFF7D4FF06E0039800F046F9F7
:102FE000039800F057FAFFE7039900200877FFE7FE
:102FF000FFE79DF804004007002825D5FFE79DF86E
:103000000800400700281ED5FFE7039801686FF00D
:10301000040008610399022008770398006880691A
:1030200010F4407F04D0FFE70398FFF7A9FF06E004
:10303000039800F01BF9039800F02CFAFFE70399BE
:1030400000200877FFE7FFE79DF80400000700284D
:1030500024D5FFE79DF80800000700281DD5FFE7ED
:10306000039801686FF0080008610399042008774D
:1030700003980068C069800720B1FFE70398FFF755
:103080007FFF06E0039800F0F1F8039800F002FAE1
:10309000FFE7039900200877FFE7FFE79DF80400AA
:1030A000C006002825D5FFE79DF80800C0060028C7
:1030B0001ED5FFE7039801686FF0100008610399BF
:1030C0000820087703980068C06910F4407F04D096
:1030D000FFE70398FFF754FF06E0039800F0C6F8F7
:1030E000039800F0D7F9FFE7039900200877FFE77E
:1030F000FFE79DF80400C00778B1FFE79DF80800DE
:10310000C00748B1FFE7039801686FF0010008614C
:10311000039800F0C3F9FFE7FFE79DF804000006FD
:10312000002810D5FFE79DF808000006002809D503
:10313000FFE7039801686FF0800008610398FFF7CC
:103140002FFDFFE7FFE79DF804004006002810D59B
:10315000FFE79DF808004006002809D5FFE703981F
:1031600001686FF040000861039800F09BF9FFE7E9
:10317000FFE79DF804008006002810D5FFE79DF8C2
:1031800008008006002809D5FFE7039801686FF062
:10319000200008610398FFF707FDFFE7FFE704B091
:1031A00080BD000080B588B0079000200690059093
:1031B0000490039002900798006840F60001C4F262
:1031C0000001884223D1FFE7FFE70020019043F68A
:1031D0003000C4F20200016841F00801016000689B
:1031E00000F0080001900198FFE74FF48040029042
:1031F000022003900121049103210591069040F6DD
:103200000040C4F2020002A9FEF7FCFC2BE0079884
:10321000006840F60041C4F20001884222D1FFE775
:10322000FFE70020009043F63000C4F2020001687E
:1032300041F080010160006800F08000009000987B
:10324000FFE74FF4E0500290022003900021049128
:103250000591069041F60040C4F2020002A9FEF773
:10326000D1FCFFE7FFE708B080BD000081B000900F
:1032700001B0704780B586B004900391029200209F
:103280008DF80700FFE7049890F83C00012804D16E
:10329000FFE702208DF8170089E00499012081F8EA
:1032A0003C00FFE7FFE7029800900C2800F27080D6
:1032B0000099DFE801F0076D6D6D206D6D6D3A6D61
:1032C0006D6D530004980068039901F0DFF90498CC
:1032D0000168886940F0080088610498016888697D
:1032E00020F00400886103980269049801688869E5
:1032F0001043886150E004980068039901F03CFA9B
:1033000004980168886940F4006088610498016845
:10331000886920F4806088610398026904980168D4
:10332000886940EA0220886136E0049800680399C1
:1033300001F09CFA04980168C86940F00800C8616F
:1033400004980168C86920F00400C8610398026904
:1033500004980168C8691043C8611DE004980068BA
:10336000039901F0FDFA04980168C86940F400600F
:10337000C86104980168C86920F48060C861039836
:10338000026904980168C86940EA0220C86103E044
:1033900001208DF80700FFE7FFE70499002081F87E
:1033A0003C00FFE79DF807008DF81700FFE79DF848
:1033B000170006B080BD000080B582B00090009874
:1033C00020B9FFE701208DF807003FE0009890F852
:1033D0003D0040B9FFE70099002081F83C000098CB
:1033E00000F038F8FFE70099022081F83D000099CD
:1033F00051F8040B01F042F80099012081F84600D1
:10340000FFE70099012081F83E00009981F83F0014
:10341000009981F84000009981F84100FFE7FFE73B
:103420000099012081F84200009981F84300009939
:1034300081F84400009981F84500FFE700990120D8
:1034400081F83D0000208DF80700FFE79DF8070098
:1034500002B080BD82B001900198006840F6000182
:10346000C4F20001884212D1FFE7FFE7002000907C
:1034700043F64000C4F20200016841F0040101601B
:10348000006800F0040000900098FFE7FFE702B03A
:103490007047000081B0009001B0704781B000908B
:1034A00001B0704781B0009001B0704782B00190C8
:1034B000ADF8021002B0704781B0009001B07047C3
:1034C00080B592B011901198006800681090119822
:1034D0000068C0680F901198006840690E90002045
:1034E0000D900C90109800F00F000D900D9888B979
:1034F000FFE79DF84000800600280AD5FFE79DF809
:103500003C008006002804D5FFE7119801F03AFB43
:10351000EAE1FFE70D98002800F0C280FFE79DF880
:103520003800C00738B9FFE7BDF83C0010F4907FC1
:1035300000F0B680FFE79DF84000C00758B1FFE7F4
:103540009DF83D00C00730B1FFE71199486C40F08D
:1035500001004864FFE79DF84000400700280BD5B4
:10356000FFE79DF83800C00730B1FFE71199486CBC
:1035700040F002004864FFE79DF840008007002803
:103580000BD5FFE79DF83800C00730B1FFE7119970
:10359000486C40F004004864FFE79DF840000007D5
:1035A000002811D5FFE79DF83C008006002805D4CF
:1035B000FFE79DF83800C00730B1FFE71199486C6C
:1035C00040F008004864FFE71198406C002866D07E
:1035D000FFE79DF84000800600280AD5FFE79DF828
:1035E0003C008006002804D5FFE7119801F0CAFAD4
:1035F000FFE7119800684069C0F380100C901198A3
:10360000406C0007002804D4FFE70C9800283ED047
:10361000FFE7119801F058FA1198006840694006D8
:1036200000282FD5FFE7FFE7FFE71198006850E873
:10363000050F20F040000B90FFE70B9911980268EE
:1036400042E805100028F0D1FFE7FFE71198C06BB2
:1036500098B1FFE71198C16B44F6A920C0F60000AD
:1036600008651198C06BFEF741F828B1FFE7119883
:10367000C06B016D8847FFE703E01198FFF71CFF5F
:10368000FFE703E01198FFF717FFFFE706E0119847
:10369000FFF712FF119900204864FFE7FFE723E1DD
:1036A0001198006B012840F0FF80FFE79DF8400073
:1036B000C006002840F1F880FFE79DF83C00C006F6
:1036C000002840F1F180FFE7FFE700200A90119801
:1036D000006800680A901198006840680A900A988B
:1036E000FFE71198006840694006002840F1828099
:1036F000FFE71198C06B00684068ADF82600BDF880
:103700002600002875D0FFE7BDF826001199898DA5
:1037100088426EDAFFE7BDF826001199C885119836
:10372000C06BC069B0F5807F58D0FFE7FFE7FFE7C7
:103730001198006850E8030F20F480700890FFE7AC
:1037400008991198026842E803100028F0D1FFE7B9
:10375000FFE7FFE7FFE71198006850E8050F20F04A
:1037600001000790FFE707991198026842E80510E9
:103770000028F0D1FFE7FFE7FFE7FFE711980068B7
:1037800050E8050F20F040000690FFE706991198D9
:10379000026842E805100028F0D1FFE7FFE7119921
:1037A000202081F84200119900200863FFE7FFE71D
:1037B0001198006850E8030F20F010000590FFE713
:1037C00005991198026842E803100028F0D1FFE73C
:1037D000FFE71198C06BFDF713FFFFE71199022077
:1037E00048631198818DC28D891A89B2FFF75EFEF8
:1037F000FFE779E01199888DC98D401AADF8120064
:103800001198C08D00284ED0FFE7BDF812000028A7
:1038100049D0FFE7FFE7FFE71198006850E8030F82
:1038200020F490700390FFE703991198026842E832
:1038300003100028F0D1FFE7FFE7FFE7FFE711984B
:10384000006850E8050F20F001000290FFE70299A0
:103850001198026842E805100028F0D1FFE7FFE761
:103860001199202081F84200119900200863FFE798
:10387000FFE71198006850E8030F20F01000019056
:10388000FFE701991198026842E803100028F0D17F
:10389000FFE7FFE71199022048631198BDF8121065
:1038A000FFF704FEFFE71FE09DF840000006002838
:1038B0000AD5FFE79DF83C000006002804D5FFE785
:1038C000119801F0B3FA0FE09DF84000400600287F
:1038D0000AD5FFE79DF83C004006002804D5FFE725
:1038E000119801F03BF9FFE712B080BD80B582B0BE
:1038F0000090009820B9FFE701208DF8070040E014
:103900000098806908B1FFE700E0FFE7009890F8B1
:10391000410040B9FFE70099002081F8400000987D
:1039200000F034F8FFE70099242081F84100009866
:103930000168C86820F40050C860009801F0D8F908
:1039400000980168086920F49040086100980168B7
:10395000486920F02A00486100980168C86840F46E
:103960000050C860009900204864009A202182F825
:103970004110009A82F84210009948638DF80700C0
:10398000FFE79DF8070002B080BD000080B59EB043
:103990001D9000201C901B901A90199018901D9853
:1039A000006841F20001C4F20101884240F0BB808E
:1039B000FFE7FFE70020179043F64400C4F202003F
:1039C000016841F010010160006800F010001790DC
:1039D0001798FFE7FFE70020169043F63000C4F287
:1039E0000200016841F002010160006800F002007D
:1039F00016901698FFE7FFE70020159043F6300079
:103A0000C4F20200016841F001010160006800F0A9
:103A1000010015901598FFE78020189002200B9068
:103A2000199000200F901A9003200C901B900720F3
:103A30000D901C9040F20040C4F2020018A90E91B3
:103A4000FEF7E0F8DDF82CC00C9A0D980E990F9B4C
:103A50004FF4007ECDF860E0CDF864C01A931B925D
:103A60001C900020C4F20200FEF7CCF80F9940F23F
:103A7000F840C2F20000109046F2B842C4F20202CE
:103A800002604FF00062426040228260C1604FF4E9
:103A90008062026141618161C16101624162FDF741
:103AA000D7FF18B1FFE7FCF749FEFFE7FFE71D98D6
:103AB00040F2F841C2F2000181631D988863FFE77C
:103AC00040F29840C2F200000A9046F24041C4F22F
:103AD000020101604FF00061416000218160C1601E
:103AE0004FF48062026141618161C16101624162A2
:103AF000FDF7AEFF18B1FFE7FCF720FEFFE7FFE799
:103B00001D9840F29841C2F20001C1631D9888637C
:103B1000FFE72520099000221146FEF7E7FA0998F1
:103B2000FEF7DAFA39E11D98006844F60001C4F2A4
:103B30000001884240F09380FFE7FFE700201490E7
:103B400043F64000C4F20200016841F480210160A4
:103B5000006800F4802014901498FFE7FFE700202D
:103B6000139043F63000C4F20200016841F00401F2
:103B70000160006800F0040013901398FFE74FF411
:103B80004060189002201990002007901A9003209E
:103B90001B9007201C9040F60000C4F2020018A9F8
:103BA000FEF730F8079940F25850C2F20000089032
:103BB00046F22802C4F2020202604FF00062426044
:103BC0008160C1604FF48062026141618161C161C5
:103BD00001624162FDF73CFF18B1FFE7FCF7AEFD63
:103BE000FFE7FFE71D9840F25851C2F20001C163A0
:103BF0001D988863FFE740F2B850C2F200000690BB
:103C000046F25801C4F2020101604FF000614160C8
:103C1000402181600021C1604FF4806202614161F6
:103C20008161C16101624162FDF712FF18B1FFE7D6
:103C3000FCF784FDFFE7FFE71D9840F2B851C2F2A0
:103C4000000181631D988863FFE727200590042108
:103C50000022FEF74BFA0598FEF73EFA9CE01D980D
:103C6000006841F20041C4F20101884240F09380B3
:103C7000FFE7FFE70020129043F64400C4F2020081
:103C8000016841F020010160006800F020001290FE
:103C90001298FFE7FFE70020119043F63000C4F2CE
:103CA0000200016841F040010160006800F040003E
:103CB00011901198FFE74FF484401890022019905A
:103CC000002003901A9003201B9008201C9041F6BE
:103CD0000000C4F2020018A9FDF794FF039940F216
:103CE0007860C2F20000049046F2A042C4F20202E0
:103CF00002604FF02062426040228260C1604FF457
:103D00008062026141618161C16101624162FDF7CE
:103D10009FFE18B1FFE7FCF711FDFFE7FFE71D98D5
:103D200040F27861C2F2000181631D988863FFE769
:103D300040F21860C2F20000029046F22841C4F23C
:103D4000020101604FF02061416000218160C1608B
:103D50004FF48062026141618161C161016241622F
:103D6000FDF776FE18B1FFE7FCF7E8FCFFE7FFE799
:103D70001D9840F21861C2F20001C1631D9888636A
:103D8000FFE74720019004210022FEF7AFF90198D8
:103D9000FEF7A2F9FFE7FFE7FFE71EB080BD0000D6
:103DA00081B0009001B0704781B0009001B07047C1
:103DB000FFE7FEE780B502F07BF980BD80B582B0F9
:103DC00040F24840C2F20000009046F20041C4F2C6
:103DD0000001016006214160002101918160C16004
:103DE0004FF4403202614FF4801242610176417615
:103DF0008176C17601774177FDF78CF918B1FFE73D
:103E0000FCF79CFCFFE702B080BD000080B582B0EB
:103E100040F27040C2F20000009046F60001C4F289
:103E20000001016006214160002101918160C160B3
:103E30004FF4403202614FF48012426101764176C4
:103E40008176C17601774177FDF764F918B1FFE714
:103E5000FCF774FCFFE702B080BD000080B58AB0BB
:103E6000FFE70020099043F63000C4F20200016829
:103E700041F480010160006800F480000990099815
:103E8000FFE7FFE70020089043F63000C4F202008D
:103E9000016841F400110160006800F4001008900E
:103EA0000898FFE70C200190002206921146FEF7C9
:103EB0001DF90198FEF710F9069A0E20029011469E
:103EC000FEF714F90298FEF707F9069A39200390D5
:103ED0001146FEF70BF90398FEF7FEF8069A3A2012
:103EE00004901146FEF702F90498FEF7F5F8069AD9
:103EF000452005901146FEF7F9F80598FEF7ECF815
:103F0000069A462007901146FEF7F0F80798FEF74C
:103F1000E3F80AB080BD000086B0FFE700200590FE
:103F200043F63000C4F20200016841F00201016072
:103F3000006800F0020005900598FFE7FFE7002009
:103F4000049043F63000C4F20200016841F04001E1
:103F50000160006800F0400004900498FFE7FFE76C
:103F60000020039043F63000C4F20200016841F0E3
:103F700001010160006800F0010003900398FFE771
:103F8000FFE70020029043F63000C4F2020001680F
:103F900041F008010160006800F0080002900298FA
:103FA000FFE7FFE70020019043F63000C4F2020073
:103FB000016841F004010160006800F00400019014
:103FC0000198FFE7FFE70020009043F63000C4F2BD
:103FD0000200016841F080010160006800F080008B
:103FE00000900098FFE706B07047000080B58AB0E7
:103FF0000021009109910891079106910591049182
:1040000003910291019140F2D860C2F2000040F6A3
:104010000002C4F200020260A722426081604FF6F3
:10402000FF72C26001618161FFF7C6F918B1FFE755
:10403000FCF784FBFFE700200890099040F2D8606D
:10404000C2F2000008A9FEF7B3FD18B1FFE7FCF7C4
:1040500075FBFFE76020019000200290039005901F
:1040600040F2D860C2F2000001A90822FFF702F96D
:1040700018B1FFE7FCF762FBFFE740F2D860C2F23D
:104080000000FFF78FF80AB080BD000080B58EB049
:10409000002100910D910C910B910A9109910891C9
:1040A000079106910591049103910291019140F2CB
:1040B0002070C2F2000040F60042C4F2000202602A
:1040C000416081604FF6FF72C26001618161FEF75D
:1040D00001FE18B1FFE7FCF731FBFFE74FF480501A
:1040E0000A9040F22070C2F200000AA9FEF786FE94
:1040F00018B1FFE7FCF722FBFFE740F22070C2F2A5
:104100000000FFF759F918B1FFE7FCF717FBFFE7CD
:1041100000200890099040F22070C2F2000008A927
:10412000FEF746FD18B1FFE7FCF708FBFFE760204C
:10413000019042F21070029000220392059240F228
:104140002070C2F2000001A9FFF794F818B1FFE750
:10415000FCF7F4FAFFE740F22070C2F2000001A978
:104160000422FFF787F818B1FFE7FCF7E7FAFFE74B
:1041700040F22070C2F2000001A90822FFF77AF88D
:1041800018B1FFE7FCF7DAFAFFE740F22070C2F25D
:104190000000FFF707F80EB080BD000080B582B0C8
:1041A00000210191009140F26870C2F2000041F2DA
:1041B0000042C4F20002026053224260816040F279
:1041C000E731C16080218161FEF784FD18B1FFE70E
:1041D000FCF7B4FAFFE700200090019040F268700D
:1041E000C2F200006946FEF7E3FC18B1FFE7FCF7F6
:1041F000A5FAFFE702B080BD80B582B040F2B07092
:10420000C2F20000019041F20001C4F2010101601C
:104210004FF4E131416000218160C16001610C22F5
:1042200042618161C161FFF761FB18B1FFE7FCF7F3
:1042300085FAFFE702B080BD80B582B040F2F87029
:10424000C2F20000019044F60001C4F200010160D6
:1042500048F2A061C0F2010141604FF480518160D9
:104260000021C1604FF4806202610C2242618161D1
:10427000C161FFF73BFB18B1FFE7FCF75FFAFFE70F
:1042800002B080BD80B582B040F64000C2F20000AE
:10429000019041F20041C4F2010101604FF4E131AB
:1042A000416000218160C16001610C224261816135
:1042B000C161FFF71BFB18B1FFE7FCF73FFAFFE70F
:1042C00002B080BDFFE7FEE7FFE7FEE788B007909A
:1042D00006910592079800F0070004900498C0F139
:1042E0000700052803D3FFE70420019004E00498A9
:1042F000C0F107000190FFE7019803900498043093
:10430000062803D8FFE70020009003E00498033854
:104310000090FFE70098029006980399012202FAA4
:1043200001F101390840029B984005999A40013AF1
:104330001140084308B07047704700007047000004
:1043400080B582B0009000980138B0F1807F03D32F
:10435000FFE70120019019E0009801384EF21401A6
:10436000CEF2000108604FF0FF300F2101F048FF4E
:104370004EF21801CEF20001002008604EF2100249
:10438000CEF20002072111600190FFE7019802B010
:1043900080BD000080B5FDF717FE80BD80B594B0EC
:1043A00008A83021FCF70CF8002007900690059033
:1043B00004900390FFE70020029043F64000C4F20F
:1043C0000200016841F080510160006800F08050F7
:1043D00002900298FFE7FFE70020019047F20000FB
:1043E000C4F20000016841F480410160006800F4FB
:1043F000804001900198FFE7012008904FF4803041
:10440000099002200E904FF480010F910621109127
:10441000A821119112900420139008A8FEF758F8D3
:1044200018B1FFE7FCF78AF9FFE70F20039002209D
:104430000490002005904FF4A05006904FF4805057
:10444000079003A80521FDF773FE18B1FFE7FCF7FD
:1044500075F9FFE714B080BD4EF68851CEF2000129
:10446000086840F4700008607047000080B540F2B2
:104470006870C2F20000FEF787FD80BD83B0029035
:10448000019102980068009002980021C4F2010195
:10449000884225D0FFE70298B0F1804F20D0FFE797
:1044A000029840F20041C4F20001884218D0FFE7B0
:1044B000029840F60001C4F20001884210D0FFE7E4
:1044C000029840F60041C4F20001884208D0FFE79C
:1044D000029840F20041C4F2010188420AD1FFE78C
:1044E000009820F0700000900198416800980843FF
:1044F0000090FFE702980021C4F20101884255D0E4
:10450000FFE70298B0F1804F50D0FFE7029840F2E9
:104510000041C4F20001884248D0FFE7029840F60B
:104520000001C4F20001884240D0FFE7029840F643
:104530000041C4F20001884238D0FFE7029840F2FF
:104540000041C4F20101884230D0FFE7029844F2F2
:104550000001C4F20101884228D0FFE7029844F22A
:104560000041C4F20101884220D0FFE7029844F6DE
:104570000001C4F20101884218D0FFE7029841F619
:104580000001C4F20001884210D0FFE7029841F612
:104590000041C4F20001884208D0FFE7029842F2CD
:1045A0000001C4F2000188420AD1FFE7009820F41C
:1045B000407000900198C168009808430090FFE7A0
:1045C000009820F080000199496908430090009804
:1045D00002990860019880680299C8620198006891
:1045E0000299886202980021C4F20101884208D031
:1045F000FFE7029840F20041C4F20101884205D170
:10460000FFE70198006902990863FFE7029901201A
:10461000486102980069C00730B1FFE70299086954
:1046200020F001000861FFE703B0704785B00490F7
:10463000039102920193049880680090009820F4FE
:104640007F40009003980299019A41EA02210143B8
:1046500000980843009000980499886005B070475E
:1046600083B002900191029880680090009820F039
:104670007000009001980099084340F007000090F6
:1046800000980299886003B07047000085B00490DC
:1046900003910498006A01900499086A20F00100CF
:1046A000086204984068009004988069029002981B
:1046B00020F070000290029820F00300029003980E
:1046C0000168029808430290019820F002000190CE
:1046D0000398816801980843019004980021C4F26E
:1046E0000101884208D0FFE7049840F20041C4F27B
:1046F000010188420ED1FFE7019820F008000190E7
:104700000398C168019808430190019820F00400C3
:104710000190FFE704980021C4F20101884208D00B
:10472000FFE7049840F20041C4F20101884213D12E
:10473000FFE7009820F480700090009820F400704B
:10474000009003984169009808430090039881699C
:10475000009808430090FFE7009804994860029889
:104760000499886103984068049948630198049902
:10477000086205B07047000085B00490039104986A
:10478000006A01900499086A20F0100008620498F9
:1047900040680090049880690290029820F4E040FC
:1047A0000290029820F440700290039801680298E9
:1047B00040EA01200290019820F020000190039827
:1047C0008168019840EA0110019004980021C4F228
:1047D0000101884208D0FFE7049840F20041C4F28A
:1047E000010188420FD1FFE7019820F0800001907D
:1047F0000398C168019840EA01100190019820F0E7
:1048000040000190FFE704980021C4F201018842B2
:1048100008D0FFE7049840F20041C4F20101884249
:1048200015D1FFE7009820F480600090009820F4F4
:104830000060009003984169009840EA8100009070
:1048400003988169009840EA81000090FFE7009892
:104850000499486002980499886103984068049913
:10486000886301980499086205B0704785B0049088
:1048700003910498006A01900499086A20F48070FA
:1048800008620498406800900498C06902900298F9
:1048900020F070000290029820F00300029003982C
:1048A0000168029808430290019820F4007001907A
:1048B00003988168019840EA012001900498002142
:1048C000C4F20101884208D0FFE7049840F2004199
:1048D000C4F2010188420FD1FFE7019820F4006083
:1048E00001900398C168019840EA01200190019865
:1048F00020F480600190FFE704980021C4F20101D8
:10490000884208D0FFE7049840F20041C4F2010158
:10491000884215D1FFE7009820F48050009000985D
:1049200020F40050009003984169009840EA01107B
:10493000009003988169009840EA01100090FFE719
:1049400000980499486002980499C86103984068E7
:104950000499C86301980499086205B07047000083
:1049600085B0049003910498006A01900499086A44
:1049700020F4805008620498406800900498C06950
:104980000290029820F4E0400290029820F44070D7
:10499000029003980168029840EA01200290019871
:1049A00020F40050019003988168019840EA01309A
:1049B000019004980021C4F20101884208D0FFE769
:1049C000049840F20041C4F2010188420BD1FFE794
:1049D000009820F48040009003984169009840EAD4
:1049E00081100090FFE700980499486002980499AC
:1049F000C8610398406804990864019804990862A2
:104A000005B0704785B00490039102920498006A43
:104A100000900499086A20F00100086204988069F7
:104A20000190019820F0F00001900299019840EA6D
:104A300001100190009820F00A000090039900985E
:104A400008430090019804998861009804990862CD
:104A500005B0704785B00490039102920498006AF3
:104A600000900499086A20F0100008620498806998
:104A70000190019820F4704001900299019840EA59
:104A800001300190009820F0A00000900399009858
:104A900040EA0110009001980499886100980499F7
:104AA000086205B07047000080B582B0019001989F
:104AB000806B009000990020C8850099C8840098F8
:104AC000FEF7FAFC02B080BD84B00390FFE7FFE779
:104AD0000398006850E8030F20F490700290FFE7FD
:104AE00002990398026842E803100028F0D1FFE71A
:104AF000FFE7FFE7FFE70398006850E8050F20F0A5
:104B000001000190FFE701990398026842E805104F
:104B10000028F0D1FFE7FFE70398006B012814D1CC
:104B2000FFE7FFE7FFE70398006850E8030F20F076
:104B300010000090FFE700990398026842E8031014
:104B40000028F0D1FFE7FFE7FFE70399202081F875
:104B5000420003990020086304B0704780B582B01A
:104B6000019001980168C86820F04000C860019970
:104B7000202081F841000198FFF716F9002002B0CB
:104B800080BD000080B586B00490049890F8420083
:104B9000222840F0A480FFE704988068B0F5805F89
:104BA00015D1FFE70498006988B9FFE7002003905A
:104BB0000498806A02900498006840686FF35F2050
:104BC000029908800499886A0230886225E0049876
:104BD000806A03900020029004988068B0F5805F9E
:104BE00008D0FFE70498806850B9FFE7049800698F
:104BF00030B9FFE70498006840680399087007E03F
:104C000004980068406800F07F0003990870FFE78F
:104C10000499886A01308862FFE70499C88D0138D9
:104C2000C8850004002856D1FFE704980168C868C9
:104C300020F02000C86004980168C86820F48070E3
:104C4000C86004980168486920F00100486104992F
:104C5000202081F842000499002048630498006BEA
:104C6000012830D1FFE7049900200863FFE7FFE740
:104C70000498006850E8030F20F010000190FFE74F
:104C800001990498026842E803100028F0D1FFE778
:104C9000FFE7049800680068C00600280ED5FFE70B
:104CA000FFE70020009004980068006800900498D6
:104CB0000068406800900098FFE7FFE70498818D46
:104CC000FEF7F4FB03E00498FFF76AF8FFE7002023
:104CD0008DF8170007E000208DF8170003E0022090
:104CE0008DF81700FFE79DF8170006B080BD0000A3
:104CF00080B586B0059005980068006920F44050A2
:104D0000059A1168D26810430861059988680B6993
:104D10004A69C9691843104308430490059800681C
:104D2000C06849F20C6188430499084305990968F1
:104D3000C86005980068406920F44070059A1168C1
:104D40009269104348610598006841F20001C4F27D
:104D50000101884209D0FFE70598006841F200414F
:104D6000C4F20101884204D1FFE7FDF72BFB039059
:104D700003E0FDF715FB0390FFE70598C069B0F568
:104D8000004F29D1FFE703981921A0FB0101059AE3
:104D90001368029353685A00DB0FFBF767FA029916
:104DA000864648F21F53C5F2EB13AEFB03204209BF
:104DB00010014FF0640C02FB1CEC322202EBCC021F
:104DC000A2FB0332F82303EA521300EB4300C2F3C1
:104DD00042121044886026E003981921A0FB0101CB
:104DE000059A1368019353689A009B0FFBF73EFAEC
:104DF0000199844648F21F52C5F2EB12ACFB023017
:104E00004309642003FB10CC322000EB0C10A0FB04
:104E10000202F02000EA521000EB0310C2F343122A
:104E200010448860FFE706B080BD000083B00190A9
:104E3000019890F8410021283AD1FFE70198806855
:104E4000B0F5805F13D1FFE70198006978B9FFE7FB
:104E50000198006A0090009800886FF35F20019924
:104E6000096848600199086A0230086208E0019AFE
:104E7000106A411C11620078019909684860FFE7D7
:104E80000199C88C0138C884000468B9FFE701980B
:104E90000168C86820F08000C86001980168C8688F
:104EA00040F04000C860FFE700208DF80B0003E0F1
:104EB00002208DF80B00FFE79DF80B0003B0704750
:104EC00080B540F2B070C2F20000FEF7F9FA80BD82
:104ED00080B540F2F870C2F20000FEF7F1FA80BD32
:104EE00080B540F64000C2F20000FEF7E9FA80BD4E
:104EF000FFE7FEE780B501F0D7F901F0EBF901F02B
:104F0000FFF901F013FA80BD8BB00A908DED090A0C
:104F1000CDED080A8DED071ACDED061A8DED052AA7
:104F2000CDED042A8DED033ACDED023A8DED014A27
:104F3000CDED004A0A9809990160089941600799E6
:104F400081600699C16005990161049941610399E5
:104F500081610299C16101990162009941620BB0BE
:104F60007047000080B590B008AB02930B460299E1
:104F70000193034601980F930E908DF8372081ED31
:104F8000040AC1ED030A81ED021AC1ED011A81ED97
:104F9000002A0F98049091ED040AD0ED1A0A90EDC2
:104FA0001B1A102100F076F8029902460498ADF819
:104FB0001E2091ED030AD0ED1C0A90ED1D1A0C2164
:104FC000039100F067F8029A039903460498ADF83C
:104FD0001C3092ED020AD0ED200A90ED211A00F06B
:104FE00059F8029A039903460498ADF81A3092EDE5
:104FF000010AD0ED220A90ED231A00F04BF8029A34
:10500000039903460498ADF8183092ED000AD0EDEC
:105010001E0A90ED1F1A00F03DF8049BADF8160033
:105020009DF81F001A4602F8900F9DF81E0083F8A5
:105030009100BDF81C00000983F89200BDF81C1017
:105040009DF81B0040EA011083F893009DF81A00B8
:1050500083F89400BDF81800000983F89500BDF8A6
:1050600018109DF8170040EA011083F896009DF88B
:10507000160083F897000E98B3F950109DF837C0CA
:1050800003EB8C031B6D1944042301F02FF810B0BF
:1050900080BD000087B006908DED050ACDED040AB5
:1050A0008DED031A02919DED030A9DED041A30EE79
:1050B000410A8DED010A049800909DED050A9DEDD1
:1050C000001A30EE410A029901208840013801EEB1
:1050D000100AB8EEC11A20EE010A9DED011A80EE09
:1050E000010ABDEEC00A10EE100A07B070470000BA
:1050F00087B0069005918DED040ACDED030A02926A
:105100009DED030A9DED041A30EE410A8DED010A72
:10511000049800909DED050AB8EEC00A9DED011AB5
:1051200020EE010A029901208840013801EE100AA0
:10513000B8EEC11A80EE010A9DED001A30EE010AA8
:1051400007B0704780B584B0039002918DF80720B6
:10515000039B6FF04070C3F894004FF0FF301A4685
:1051600042F8900F0298B3F950109DF807C003EB76
:105170008C031B6D1944042300F0B8FF04B080BDFC
:1051800080B584B0039002918DF80720039B6FF0E7
:105190000070C3F894004FF0FF301A4642F8900FA9
:1051A0000298B3F950109DF807C003EB8C031B6DF8
:1051B0001944042300F09AFF04B080BD70B58AB092
:1051C000119D109CDDF83CE0DDF838C0129E099579
:1051D0000894CDF81CE0CDF818C005930492039113
:1051E00002900298009003A800F05CFFADF8060062
:1051F00000208DF80500FFE79DF8050000286CDC15
:10520000FFE7009ABDF80600B2F950109DF805308E
:105210001A4492F852201144884257D1FFE700986F
:1052200000F158049DF8051004EB01120D01DDF8A2
:1052300048C0DCF800E0DCF80410DCF80830DCF8EA
:105240000CC044F805E0C2F80CC09360516090F8BF
:10525000581001F0F00180F8581012990A7890F86F
:10526000581001F00F0141EA021180F8581012990C
:105270004A78897841EA0221A0F85A10129AD17826
:105280001279090141EA1212B0F85C1001F4704180
:105290001144A0F85C1012990A79497902F00F02C2
:1052A00041EA0222B0F85E1001F470411144A0F806
:1052B0005E101299897980F860101299C97980F886
:1052C00061109DF8051000F00BF806E0FFE79DF86F
:1052D000050001308DF805008EE70AB070BD0000B2
:1052E00080B5A2B02190209121990C910A4652F8E4
:1052F000580B0D92426815A80990904709990C988F
:105300001F9108300E90209901EBC10100EBC10004
:105310000A9090ED020B51EC100B9FEDA90B53EC92
:10532000102B01F08DFB0A9A03460C988C460D99C0
:105330004CEC103B82ED000B209A01EB02114988E6
:105340001F9A92ED000AD2ED010A1022FFF7D0FE5B
:1053500010EE100A01F060FD0E9A03460C988C4680
:105360000D994CEC103B209B03EBC30302EBC302F3
:1053700082ED020B209A01EB021189886FF31F3135
:105380001F9A92ED020AD2ED030A0C220B92FFF74C
:10539000AFFE10EE100A01F03FFD0B9A0E9B844603
:1053A0000C988E460D994EEC10CBDDF880C00CEBBE
:1053B000CC0C03EBCC0383ED040B209B01EB03111E
:1053C000C9886FF31F311F9B93ED040AD3ED050AC3
:1053D000FFF78EFE10EE100A01F01EFD02460D983A
:1053E0000B460E9943EC102B209A02EBC20201EB04
:1053F000C20181ED0A0B20990F9100EB0110007A98
:1054000001F093FA02460E980B460F9943EC102BCD
:1054100001EBC10100EBC10181ED0C0B209901EB07
:10542000C10100EBC10191ED0E0B8DED120B209926
:1054300001EBC10100EBC10090ED000B8DED100BF5
:1054400010981199129A139B01F0F8FB41EC100B84
:1054500051EC100B9FED5C0B53EC102B01F01CFD7D
:1054600098BBFFE79DED120B9FED5D1B51EC110BFF
:1054700053EC102B01F0E2FB41EC110B9DED100BF6
:1054800051EC110B53EC102B00F0EEFF02460C9880
:1054900006920A46069942EC101B209901EBC101C5
:1054A00000EBC100079090ED121B51EC110B53EC77
:1054B000102B00F0D9FF0246079808920A46089977
:1054C00042EC101B80ED120B6EE010981199129AAD
:1054D000139B01F0B3FB41EC100B51EC100B9FED53
:1054E0003C0B53EC102B01F0DEFC98BBFFE79DED6D
:1054F000100B51EC100B9FED380B53EC102B00F000
:10550000B3FF41EC110B9DED120B51EC110B53EC61
:10551000102B01F093FB02460C9803920A46039964
:1055200042EC101B209901EBC10100EBC10004907B
:1055300090ED121B51EC110B53EC102B00F094FF6B
:105540000246049805920A46059942EC101B80ED2C
:10555000120B28E09DED101B9DED120B51EC110B71
:1055600053EC102B01F06AFB02460C9800920A469D
:10557000009942EC101B209901EBC10100EBC10026
:10558000019090ED121B51EC110B53EC102B00F01D
:105590006BFF0246019802920A46029942EC101BE8
:1055A00080ED120BFFE7FFE70C989DED100B2099A3
:1055B00001EBC10100EBC10080ED100B22B080BDFA
:1055C000AE19661ADCA54C4000000000008066C0E1
:1055D000000000000080664000000000008076C0EF
:1055E00000000000008076402DE9F04F93B001915B
:1055F000DDF894B0DDF890A0DDF88C90DDF88880BF
:10560000219F209E1F9D1E9CDDF874E0DDF870C078
:105610000199CDF844B0CDF840A0CDF83C90CDF83C
:1056200038800D970C960B950A94CDF824E0CDF8B0
:1056300020C00790ADF81A100592049307980290C5
:10564000129000F0F1FC029946F68870C0F6000056
:1056500008300860BDF81A00A1F850000898099AAF
:105660000A9BDDF82CC0DDF830E00D9CCC67C1F85A
:1056700078E0C1F874C00B67CA6688660E980F9A06
:10568000109BDDF844C0C1F88CC0C1F88830C1F867
:105690008420C1F8800000208DF80F00FFE79DF8FE
:1056A0000F00002817DCFFE7029905989DF80F20EE
:1056B000805C0A4482F8520004989DF80F2050F84C
:1056C000220001EB82014865FFE79DF80F000130E1
:1056D0008DF80F00E3E7129813B0BDE8F08F0000DB
:1056E00080B582B0019101999FED0B0ADFED0B0AA5
:1056F000BBEE0E1AF3EE0E1ABAEE042AF2EE042AEC
:10570000DFED073A9FED074AF1EE044AB0EE443A66
:1057100000F00AFD02B080BDC3F548C1C3F54841A1
:105720000000FA43000000002DE9F04F9DB01C90EE
:10573000ADF86E101A9219931C990D9146F6987057
:10574000C0F6000008300E900860BDF86E000A90A8
:105750001A980B9019980C90086842680FA8904707
:105760000A990B9A0C9BDDF83CC0109C119D129E6F
:10577000139FDDF85080DDF85490DDF858A0DDF877
:105780005CB01898EE46CEF824000D98CEF820B004
:10579000CEF81CA0CEF81890CEF81480CEF8107079
:1057A000CEF80C60CEF80850CEF80440CEF800C019
:1057B000FFF71AFF0D980E9901601DB0BDE8F08F3C
:1057C00080B598B017908DED140B8DED121B8DEDFB
:1057D000102B8DED0E3B8DED0C4B179808909DED29
:1057E000140B80ED000B9DED120B80ED020B9DED77
:1057F000100B80ED040B9DED0E0B80ED060B9DED67
:105800000C0B80ED080B42F2FB11C4F209010B9165
:1058100042F61851C5F244410A9190ED080B9FEDF4
:10582000421B51EC110B53EC102B00F0D1FE024641
:10583000089800920A46009942EC101B80ED0A0B72
:1058400090ED000B9FED3A1B51EC110B53EC102B1C
:1058500000F0BEFE41EC100B51EC100B9FED360B2F
:1058600053EC102B00F0B4FE41EC100B53EC102B5A
:105870001046194600F0F8FD41EC100B51EC100BEE
:105880009FED2F0B53EC102B01F0DAF8024608982D
:1058900001920A46019942EC101B80ED0C0B90ED31
:1058A000001B90ED020B90ED042B8DED022B90ED83
:1058B000062B8DED042B51EC110B53EC102B01F04A
:1058C000BFF89DED020B41EC110B51EC110B53ECA9
:1058D000102B00F07DFE9DED040B41EC110B51EC03
:1058E000110B53EC102B01F0ABF80246089807920D
:1058F0000A46079942EC101B80ED0E0B90ED040B4D
:1059000090ED061B51EC110B53EC102B00F060FED8
:105910000246089809920A46099942EC101B80ED4C
:10592000100B18B080BD00BF000000000080764062
:10593000000000000000F03F0000000000004E40AA
:10594000182D4454FB21094070B58AB0119D109C5C
:10595000DDF83CE0DDF838C0129E09950894CDF8DA
:105960001CE0CDF818C005930492039102900298B0
:10597000009003A800F096FBADF8060000208DF81B
:105980000500FFE79DF80500012840DCFFE7009ACD
:10599000BDF80600B2F998109DF805301A4492F847
:1059A000B020114488422BD1FFE7009800F1A001FC
:1059B0009DF805E001EBCE03129AD2F800C05268C0
:1059C00041F83EC05A609DF8053031F8332012BAD4
:1059D000120C21F833209DF8052001EBC2035A88F0
:1059E00012BA120C5A809DF8052001EBC202918870
:1059F00009BA090C91809DF8051000F00DF806E039
:105A0000FFE79DF8050001308DF80500BAE70AB000
:105A100070BD00000000000080B5AEB02D902C914C
:105A20002D990B910A4652F8080B1292426818A859
:105A30000A9090470A990B982B91A03010902C99BE
:105A40000C9130F9310000F059FF41EC110B2B980B
:105A500090ED0A0B51EC110B53EC102B00F0F0FF02
:105A6000024612980B460C9943EC102B01EBC10136
:105A700000EBC10181ED000B2C9901EBC10100EBA2
:105A8000C1000D9090ED000B51EC100B9FEDA60B9B
:105A900053EC102B00F0D4FF024610980B460D99E2
:105AA00043EC102B81ED020B2C990E9100EBC10001
:105AB000B0F9020000F022FF41EC110B2B9890EDA1
:105AC0000C0B51EC110B53EC102B00F0B9FF0E9A9C
:105AD000034610988C4612994CEC103B02EBC20224
