:020000040800F2
:10000000C00C002049020008C5330008092E000872
:10001000C133000811040008313A00080000000054
:10002000000000000000000000000000CD330008C8
:100030008D04000800000000C9330008D133000817
:1000400063020008630200086302000863020008FC
:1000500063020008630200086302000863020008EC
:1000600063020008630200086302000863020008DC
:1000700045040008630200085104000863020008F8
:1000800063020008630200086302000863020008BC
:100090001504000821040008630200086302000838
:1000A000630200086302000863020008630200089C
:1000B000630200086302000863020008630200088C
:1000C000630200086302000863020008630200087C
:1000D000630200080D3A000863020008193A00089C
:1000E000630200086302000863020008630200085C
:1000F000630200086302000863020008630200084C
:10010000630200086302000863020008630200083B
:1001100063020008630200086302000891340008CB
:10012000630200085D040008690400086302000817
:10013000630200086302000863020008630200080B
:100140002D04000839040008630200086302000857
:10015000630200087504000881040008253A0008BD
:1001600063020008630200086302000863020008DB
:100170006302000863020008630200080000000038
:10018000630200086302000800F002F800F04CF877
:100190000AA090E8000C82448344AAF10107DA45E2
:1001A00001D100F041F8AFF2090EBAE80F0013F0E8
:1001B000010F18BFFB1A43F001031847604E0000FF
:1001C000804E00000A4410F8014B14F00F0508BFE0
:1001D00010F8015B240908BF10F8014B6D1E05D013
:1001E00010F8013B6D1E01F8013BF9D1641E03D0EC
:1001F000641E01F8015BFBD19142E4D3704700001B
:100200000023002400250026103A28BF78C1FBD81F
:10021000520728BF30C148BF0B6070471FB504F0BC
:10022000C2FE1FBD10B510BD00F0BCF81146FFF7AF
:10023000F5FF03F087FE00F0DAF803B4FFF7F2FFF2
:1002400003BC00F0DDF8000009488047094800477A
:10025000FEE7FEE7FEE7FEE7FEE7FEE7FEE7FEE776
:10026000FEE7FEE704480549054A064B70470000D3
:100270007D34000889010008C0060020C00C002061
:10028000C0080020C008002053EA020C00F069807A
:100290002DE9F04B4FF00006002B1FBFB3FA83F59A
:1002A00003FA05F424FA05F65E4012BF1643B2FACB
:1002B00082F502FA05F4C5F120051EBF22FA05FCFD
:1002C00044EA0C04203556EA044C4FEA144418BFA3
:1002D000641C4FF000084FF00009904271EB030CD2
:1002E00039D3002919BFB1FA81F701FA07F6B0FA3C
:1002F00080F700FA07F6C7F120071EBF20FA07FCB7
:1003000046EA0C062037B6FBF4FCA7EB0507103FC6
:1003100007F01F0BCBF120062CFA06F60CFA0BFBAC
:1003200044BFB3460026202FA4BF5E464FF0000B0B
:100330005BEA060C08BF4FF0010B19EB0B0948EB09
:100340000608ABFB027C06FB02CC0BFB03CCC01BFC
:1003500071EB0C01C1E70B46024641464846BDE839
:10036000F08B13B5084318BF4FF0FF300146AFF3D1
:100370000080BDE81C40704770477047704710B55B
:1003800000F008F8006810BD10B5044600F002F84F
:10039000046010BD004870475801002000487047B5
:1003A000580100207546FFF7F9FFAE460500694683
:1003B000534620F00700854618B020B5FFF752FFDE
:1003C000BDE820404FF000064FF000074FF0000856
:1003D0004FF0000BAC46ACE8C009ACE8C009ACE893
:1003E000C009ACE8C00921F007018D46704710B57F
:1003F0000446AFF300802046BDE81040FFF71DBF64
:1004000001491820ABBEFEE726000200704700003D
:10041000FEE7000040F27C20C2F2000000F0C6B906
:1004200040F27C20C2F2000000F0C0B940F2A420EB
:10043000C2F2000000F0BAB940F2A420C2F20000FB
:1004400000F0B4B940F28C30C2F2000000F008BEF7
:1004500040F2EC30C2F2000000F002BE40F24C402C
:10046000C2F2000000F0FCBD40F2CC20C2F200005D
:1004700000F0F6BD40F2AC40C2F2000000F0F0BD6A
:1004800040F22C30C2F2000000F0EABD70470000DC
:1004900072B600BFFEE7000090F82020013A012A62
:1004A00008D8006800F11402002013681943116095
:1004B000704700BF00F1240201204FF4802113682F
:1004C000194311607047000010B590F820E0D0F893
:1004D00000C0AEF1010EBEF1010FDCF808E00FD84C
:1004E0001EF0E05F16D0CEF3016E012000FA0EF090
:1004F00018608B68C3B1486843EAC00316E000BFC8
:1005000000F1240101204FF480220B681A430A6095
:1005100010BD00BF00F1240101204FF400120B6850
:100520001A430A6010BD00BF08684305D1E90304FF
:1005300003430CEB0E10C0F88031C0F88441097DF4
:10054000012905D100F5C2710B6843F480730B607B
:100550005168C0F88C11126800F5C071C0F888218C
:10056000002001220B681A430A6010BDB0B590F854
:100570002020013A012A2FD846F20060C4F2000080
:10058000026842F001020260026822F47C520260BA
:10059000D1F814E0CC694A6A0368012C43EA0222CC
:1005A00002600EF01F024FF0010303FA02F2C3696A
:1005B0006FEA020C23EA0203C36113D02CBBC368A9
:1005C00003EA0C03C360CB688C8844EA034300EB66
:1005D000CE0423640B4611E0416A41F4802141625C
:1005E0000120B0BDC3681343C3600B688C8844EA24
:1005F000034300EBCE04236401F10C038C681B88D9
:1006000043EA044300EBCE04636443688D6943EA24
:100610000204D1F810E0096A002D08BF03EA0C04B7
:1006200044604369BEF1000F43EA020408BF03EAD5
:100630000C040129446102D1C1691143C1610168FF
:1006400021F0010101600020B0BD000070470000F2
:1006500010B590F82040013C012C7BD8D0F800C0A8
:10066000002900F08180DCF81040A40700F08180B0
:100670000CEB011CDCF8B0410CF5D87E14F004043E
:100680009460DCF8B04119BFE4085460640D146054
:10069000DEF800400CF5DA7E04F00204D460DCF8E9
:1006A000B44124075ABFDEF8004004F00F040824C8
:1006B0001461DEF800400029C4F307249461DEF8D9
:1006C00000404FEA14445461DCF8B8211A70026803
:1006D00002EB0112D2F8B8214FEA12225A700268D6
:1006E00002EB0112D2F8B8214FEA12429A70026866
:1006F00002EB0112D2F8B8214FEA1262DA700268F6
:1007000002EB0112D2F8BC211A71026802EB01124D
:10071000D2F8BC214FEA12225A71026802EB011290
:10072000D2F8BC214FEA12429A71026802EB011220
:10073000D2F8BC214FEA1262DA71006814BF00F1EE
:10074000100100F10C01002020220B681A430A60FE
:1007500010BD00BF00F1240101204FF480220B687E
:100760001A430A6010BD00BFDCF80C40A4077FF4F8
:100770007FAF00F1240101204FF400120B681A43EF
:100780000A6010BD90F820100139012984BF0020B3
:1007900070470068816882688068C1F38061C2F335
:1007A000C0621144C0F30070084470472DE9F04F57
:1007B00081B0044600684669D0F804908768D0F894
:1007C0000CB0D0F810A0D0F81880F10704D10025A3
:1007D00030071DD424E000BFF90710D00121BA076B
:1007E000816009D4780700F1AF80380700F1B68046
:1007F000204600F0CBFB02E0204600F0C9FB0025BC
:10080000F80500F18780F80300F1B180300707D5C3
:100810001BF0100004D0206845F400751021C16061
:10082000700708D51BF0080005D020680821C160BA
:10083000204600F0FFF9B00706D52068C0688007A1
:1008400002D0204600F0F8F9700607D51AF0100023
:1008500004D0206845F4806510210161B00608D5F8
:100860001AF0080005D0206808210161204600F038
:1008700059FBF00606D520680069800702D02046A3
:1008800000F052FBB00308D519F0100005D0206825
:1008900010214160204600F049FBF00308D519F013
:1008A000080005D0206808214160204600F07AFB4E
:1008B000300440F19B805FEA497040F1948006F477
:1008C000807008EA102028435FEA8871014648BF1B
:1008D00041F00201B20558BF01465FEA48700D467B
:1008E00048BF45F00405700558BF0D46300540F17E
:1008F0007A8018F0700000F0768010380009052822
:100900006CD8DFE800F003595D61656945F00805C2
:1009100064E000BF20684FF48071BA0581600BD499
:10092000780515D438051DD4204600F033FBF803B4
:100930007FF56CAF1BE000BF204600F02DFBF803F5
:100940007FF564AF13E000BF4FF4006558E700BFC8
:1009500005F50055F8037FF559AF08E04FF48055D1
:100960004EE700BF05F58045F8037FF54FAF2068DF
:100970004FF48031BA0381600AD4780310D438036D
:1009800014D4204600F00AFB30073FF541AF47E79B
:10099000204600F005FB30073FF53AAF40E700BFC7
:1009A00005F5004530073FF533AF39E705F58035EC
:1009B00030073FF52DAF33E745F010050EE000BFDF
:1009C00045F020050AE000BF45F0400506E000BF05
:1009D00045F0800502E000BF45F48075206881691C
:1009E00021F07001816120680421416055B1606A85
:1009F00040EA05012046616201B0BDE8F04FFFF713
:100A000025BE00BF01B0BDE8F08F0000B0B5C8B191
:100A1000044690F8200010B9204600F071F82068D4
:100A2000016841F00101016000F0DAFD054600BFF8
:100A300020684168C90707D100F0D2FD401B0B2890
:100A4000F6D312E00120B0BD016821F0020101607F
:100A500000F0C6FD054600BF2068416889070DD536
:100A600000F0BEFD401B0B28F6D3606A052140F460
:100A700000306062012084F82010B0BD217E026841
:100A8000012922F0800208BF80320260617E026884
:100A9000012922F0400208BF40320260A17E0268B4
:100AA000012922F0200208BF20320260E17E0268A4
:100AB000012922F0100218BF10320260217F026863
:100AC000012922F0080208BF08320260617F026833
:100AD000012922F0040208BF04320260D4E901C2F5
:100AE000D4E9033561691A432A431143ACF1010289
:100AF0001143C16100200121606284F82010B0BD63
:100B0000B0B586B0006846F60002C4F200020021CB
:100B10009042CDE90411CDE90211019136D046F29F
:100B20000041C4F20001884240F0828040F204217A
:100B3000C2F200010A6843F64000C4F20200531CEE
:100B40000B6052B900210091016841F00071016011
:100B5000016801F00071009100990021009150F8A6
:100B6000101C152441F0080140F8101C50F8100C1E
:100B7000142500F00800009000980320019040F236
:100B80000040C4F2020000F5006036E043F6400089
:100B9000C4F202000091016841F0806101600168C7
:100BA00001F080610091009940F20421C2F200013D
:100BB0000A68531C0B6052B900210091016841F092
:100BC00000710160016801F000710091009900213D
:100BD000009150F8101C412441F0020140F8101C13
:100BE00050F8100C402500F00200009000986020A2
:100BF000019040F20040C4F2020002210291002163
:100C00000391032104910921059101A900F00AFC37
:100C100028460021002200F063FD284600F050FD28
:100C200020460021002200F05BFD204600F048FD38
:100C300006B0B0BD704700002DE9F04F81B02DED3A
:100C4000088B88B040F2B81BC2F2000B0BF13002E7
:100C50000BF1100300214FF0000AFFF7F9FC40F2FE
:100C60001008C2F20008B8F9500098F86010BBF8FC
:100C700030200844824213D1DBE90401C8E916019F
:100C800002BA000C40BAA8F85A0008BA000C120CBC
:100C9000A8F85C0040460021A8F8582002F0E8FEC1
:100CA000DBE9010504F0E4F89FED930B53EC102B06
:100CB00003F0D6FB03F0A2FB0746CBF8040028465E
:100CC00004F0D6F89FED8E0B59EC106B32464B4674
:100CD00003F0E2FE044638460D4604F0C9F8024629
:100CE0000B462046294603F0D7FE03F087FB00EEB3
:100CF000100A03F0FDF9DBF80400B0EE408A04F0BE
:100D0000B7F832464B4603F0C7FE9FED7F0B53EC1E
:100D1000102B03F0C1FE03F071FB00EE100A03F08C
:100D2000E7F998ED081B38EE000A51EC110B8BED3A
:100D3000030A03F063FB40F24825C2F20005814636
:100D400009EE100AD5E90A0404F092F89FED700B41
:100D500053EC102B03F0A0FE064620460F4604F08D
:100D600087F802460B463046394603F02DFC03F067
:100D700045FB08EE100AB0EE480A03F0B9F995ED0C
:100D80000C1A31EE011A80EE01AAB0EE480A03F007
:100D900007F9B7EE001A3AEE012A81EE023AB8EEF0
:100DA000004A20EE040A85ED002A95ED062A95ED0D
:100DB000074A31EE4A1A95ED085A95ED096A0BF18A
:100DC0001800C5F8189085ED072A85ED095A20EE20
:100DD000030A20EE027A63EE090A21EE031A85ED7A
:100DE000033A85ED053A30EE877A23EE043A85ED35
:100DF000010A85ED040A33EE073A20EE050A85ED77
:100E0000021A33EE400A21EE061A90EC068BDBF84C
:100E1000000030EE410A85ED080A04F029F898ED4B
:100E2000080B41EC1B0B51EC100B03F0E7FA04F03C
:100E30001FF840F2C80441EC140BC2F200049FED0D
:100E4000365BB0EE480AB0EE491AB0EE4A2AB0EE70
:100E50004B3A2046F0EE680AF0EE691AF0EE6A2A84
:100E6000F0EE6B3A02F024FF98ED080B51EC100BFA
:100E700003F0C4FA9FED2A2A95ED081ADBED000A6B
:100E8000DBED031A00EE100A40F20820C2F2000067
:100E9000F0EE422A03F038F894ED020B51EC100BFF
:100EA00003F028FD00BA000CA8F8B6000820CDE930
:100EB00004A04FF40070019040F27C20C2F20000C8
:100EC000CDF81CA0CDE902AA8DF818A0FFF75AFCB6
:100ED00048B140F27C2008F1B002C2F2000001A942
:100EE00007ABFFF7F1FA08B0BDEC088B01B0BDE825
:100EF000F08F00BF00BF00BFFCA9F1D24D62503F90
:100F0000D1B3F6CAFE2119407B14AE47E17A843F83
:100F10004AD8124DFB211940000000000000D040CB
:100F2000000000007047000070470000704700009C
:100F3000B0B5044690F8200001281DD1022084F8A5
:100F400020002068016821F00101016000F048FBE9
:100F5000054600BF20684068C00713D000F040FB82
:100F6000401B0B28F6D3606A40F400306062052015
:100F700084F820000120B0BD606A40F40020606267
:100F80000120B0BD00206062B0BD000070470000CD
:100F90007047000070470000704700007047000075
:100FA000704700007047000070B5866D044600F081
:100FB00017FB94F8351002292ED105462068216CC4
:100FC000026822F016020260426922F08002426149
:100FD00009B9A16C19B1016821F00801016001682B
:100FE00021F0010101600068C00708D000F0F8FAA4
:100FF000401B052818D820680068C007F6D1E06DAE
:101000003F2101FA00F0B060012084F83500002093
:10101000002184F8341070BD80206065012000211B
:1010200084F8341070BD00BF20206065032084F870
:101030003500002184F8341070BD000090F83510A0
:10104000022909D1052180F835100068016821F0D6
:101050000101016000207047802141650120704737
:10106000F0B581B004460020009040F20800C2F2C2
:1010700000000268D4E9166048F2B5133768082109
:10108000C1F64E3381403942A2FB03250CD02268C1
:1010900013685B0708D5136823F004031360B1607D
:1010A000616D41F00101616501218140394208D043
:1010B00022685269120604D5B160616D41F00201E7
:1010C000616504218140394208D022681268920784
:1010D00004D5B160616D41F004016165102181406A
:1010E000394217D020680268120713D5B160026830
:1010F0000168520308D4C90508D4016821F0080129
:101100000160216C21B905E008033FD4216C09B1CD
:1011100020468847E16D202000FA01F23A4241D092
:1011200020680368DB063DD5B26094F8353002686C
:10113000052B1BD122F016020260426922F08002C8
:101140004261226C0AB9A26C1AB1026822F008024C
:1011500002603F208840B060012084F83500216D96
:101160000020002984F8340052D157E0016852036E
:1011700010D4C90512D4016821F0100101600120CA
:1011800084F83500002084F8340007E0A16C0029C1
:10119000BED1BFE7080301D4616C00E0E16B09B187
:1011A00020468847606DC8B3606DC0072ED005200B
:1011B00084F835002068A90A026822F00102026062
:1011C000009A01328A4200921AD80268D20717D0D8
:1011D000009A01328A42009212D80268D2070FD0D8
:1011E000009A01328A4200920AD80268D20707D0D8
:1011F000009A01328A42009202D80268D207DFD1F7
:10120000012084F83500002084F83400E16C29B115
:10121000204601B0BDE8F040084700BF01B0F0BD76
:101220002DE9F041044600F0DBF9002C4ED00546D4
:10123000022084F835000020216884F83400086812
:1012400020F0010008600868C00708D000F0C8F965
:10125000401B05286CD821680868C007F6D10868CB
:1012600048F23F02CFF21002D4E90135024004F106
:101270000C0E9EE8C1511A432A43104330433843B1
:1012800040EA0800626A40EA0C00042A40EA0E03C1
:1012900020D1D4E90A5E206B4EEA030210430860B5
:1012A0004869BEF1000F20F0030040EA050040F05D
:1012B000040C15D0B8F5005F42D0B8F1000F51D141
:1012C000022D52D0012D47D055B94EE00120BDE886
:1012D000F08100BF0B60486920F0070040EA020C73
:1012E0006FF00F004AF6AB2250FA81F0CAF6AA223C
:1012F000A0FB02231A0945F21403C0F600039A5C0E
:1013000040F2FF335F284FF03F00C1F814C021EADC
:10131000030100FA02F088BF0431C4E916128860A4
:10132000002301220020636584F83520BDE8F081A8
:10133000032220230320636584F83520BDE8F08173
:10134000032DCDD8012240230120DFE805F0030E54
:10135000030500BFE7E700BFAEF1C070B0FA80F050
:10136000400904E0032D04D3BAD1CEF30060002875
:10137000B6D0012240230120636584F83520BDE802
:10138000F081000070B590F834C0BCF1010F46D078
:101390004FF0010C80F834C0D0F858E090F835C018
:1013A000BCF1010F38D14FF0020C80F835C04FF07E
:1013B000000CC0F854C0D0F800C08468056CC06D43
:1013C000DCF80060402C26F48026CCF80060CCF8D5
:1013D00004300B4604BF13460A463F2101FA00F0D1
:1013E000CCF80830CCF80C20CEF80800DCF800006F
:1013F00040F01600CCF800002DB1DCF8000040F001
:101400000800CCF80000DCF8000040F00100CCF847
:101410000000002070BD00BF002180F834100220C1
:1014200070BD00002DE9F04F82B000F13E4241F660
:10143000004502F1FF77C4F2020508224FEAB72601
:10144000A84208BF0722072E38BF4FEAB7224FF045
:10145000010A002400274FF00008009208E000BFB6
:10146000023708F10108202F04F1040400F0B480D1
:101470000E680AFA08F916EA090FF1D0D1F804A0AB
:101480000AF0030BABF10106012E17D80322866880
:1014900002FA07FECA6826EA0E06BA4032438260A4
:1014A0004268CAF3001522EA090205FA08F54FEA74
:1014B000480C6FEA0E062A4342600BE00322BA4052
:1014C000D643BBF1030FBC4604D1BC464FF0030B1F
:1014D00022E000BFC2688D68324005FA0CF52A434D
:1014E000BBF1020FC26017D16FF0030202EA58028B
:1014F000024404F01C030F25D2F820E005FA03FA99
:101500000D692EEA0A0E05FA03F343EA0E0313628D
:10151000D1F804A00AF0030B02680BFA0CF3324076
:101520001A431AF4403F4FF0010A026098D000229B
:1015300043F644030192C4F202031A6843F6004ED4
:1015400042F480421A601A68C4F2010E02F480422A
:101550000192019A28F003024FF6084C7244CFF62C
:10156000FF7C52F80C3004F00C060F25B540AB435D
:10157000009D05FA06F6334342F80C30DEF80820E9
:101580004B6842EA090643F60C4CDD0258BF22EADA
:101590000906CEF80860C4F2010CDCF800209D02B8
:1015A00042EA090658BF22EA0906CCF80060DEF8D4
:1015B00004209D0342EA090658BF22EA0906CEF834
:1015C0000460DEF80020DB0342EA090658BF22EA85
:1015D0000906CEF8006043E702B0BDE8F08F0000D6
:1015E00040F2BC60C2F200000068704740F20000A8
:1015F00040F2BC61C2F20000C2F2000100780A6849
:10160000104408607047000080B543F60040C4F203
:101610000200016841F400710160016841F48061D9
:101620000160016841F480710160032000F084F8DA
:101630000F2000F005F800F027F8002080BD000022
:1016400070B540F20006C2F2000640F2080132789E
:10165000C2F200014FF47A730968B3FBF2F2044658
:10166000B1FBF2F1084600F041FB0F2C4FF00105F1
:1016700008D838B94FF0FF3021460022002500F08D
:101680002FF87460284670BD82B0002043F64001F8
:101690000190C4F202014A6842F480424A604A68FA
:1016A00002F480420192019A0090086840F0805054
:1016B0000860086800F080500090009802B0704701
:1016C000002848BF704700F01F01012202FA01F113
:1016D0004EF200124009CEF2000242F8201070478C
:1016E00010B54EF60C5CCEF2000CDCF80030C3F303
:1016F000022E8EF00704042C28BF0424BEF103033D
:101700004FF0FF3E0EFA04F438BF0023A143994086
:101710000EFA03F39A43114300F00F02043A6244B5
:1017200009010C3200F16043B0F1FF3FC8BF03F57F
:101730006442117010BD00004EF60C51CEF2000153
:101740000A684FF6FF031A4060F30A2242F08060F5
:1017500040F0FD70086070472DE9F041002800F06E
:101760008B8043F60808C4F202080446D8F8F80350
:101770000D4600F00700884207D288F8F853D8F8E1
:10178000F80300F00700A84276D12068810717D53A
:10179000410705D5D8F8001041F4E051C8F8001011
:1017A000010705D5D8F8001041F46041C8F80010D1
:1017B000D8F80010A26821F0F0011143C8F8001019
:1017C000C0073FD1D8F8F80300F00700A84207D9B6
:1017D00088F8F853D8F8F80300F00700A8424BD176
:1017E0002068410707D5D8F80010E26821F4E051DD
:1017F0001143C8F80010000708D5D8F80000216987
:1018000020F4604040EAC100C8F8000000F07CF815
:10181000D8F8001044F6EC72C1F30311C0F60002D0
:10182000515C40F2080220FA01F140F20400C2F2D9
:1018300000000068C2F200021160FFF701FF002003
:10184000BDE8F0816068811E022907D258F8081CA3
:1018500089015CBF0120BDE8F08111E0012807D1BA
:1018600058F8081C89035CBF0120BDE8F08107E03F
:1018700058F8081C890703D40120BDE8F08100BF97
:10188000D8F8001021F003010843C8F80000FFF762
:10189000A7FE064641F28837D8F80000616800F0DC
:1018A0000C00B0EB810F8DD0FFF79AFE801BB84281
:1018B000F2D90320BDE8F08140F2080043F60801A8
:1018C000C2F20000C4F202010068096844F6FC722A
:1018D000C1F38221C0F60002515CC840704700008D
:1018E00040F2080043F60801C2F20000C4F202010F
:1018F0000068096844F6FC72C1F34231C0F6000288
:10190000515CC8407047000010B543F60404C4F2AF
:101910000204606800F00C0008280BD0042819BFEE
:1019200042F20040C0F2F40041F60030C0F2B700CD
:1019300010BD00BF206821682368490241F60031CC
:10194000C0F2B70100F03F02C3F388105CBF42F25F
:101950000041C0F2F401A1FB00010023FEF794FC5A
:1019600021680222C1F3014102EB4101B0FBF1F019
:1019700010BD00002DE9F04182B000286AD0044675
:10198000007843F60006C007C4F202060BD0B06828
:1019900000F00C00042840F0A1803068800302D5DC
:1019A0006068002856D0207880071AD5B06810F0FB
:1019B0000C0F09D0B06800F00C00082840F0A88097
:1019C0007068400200F1A4803068800702D5E068AA
:1019D00001283FD13068216920F0F80040EAC100B9
:1019E00030602078000739D4207840074ED4A569AC
:1019F0005DB3B06800F00C00082840F0BD80012DF8
:101A000028D07068E16900F480028A4222D1216AFC
:101A100000F03F028A421DD147F6C071626A014060
:101A2000B1EB821F16D1A26A0023CFF6FF7303EB3E
:101A3000C23200F440316FF30F0291420AD1E16AE1
:101A400000F07060B0EB016F04D1002002B0BDE87F
:101A5000F08100BF012002B0BDE8F081606900287C
:101A600040F20000C4F2472076D00121C0F8801E69
:101A7000FFF7B6FD054600BF706F8007B4D4FFF7CF
:101A8000AFFD401B0228F7D9DDE000BF306C10F03D
:101A900080580AD100200190306C40F080503064B2
:101AA000306C00F080500190019847F20007C4F2BA
:101AB00000073868C00541D4386840F48070386049
:101AC000FFF78EFD054600BF3868C00536D4FFF726
:101AD00087FD401B0228F7D9B5E000BFB06800F0D1
:101AE0000C00082803D1706840023FF556AF6068CB
:101AF000B0F5803F07D0B0F5A02F40F08D80306862
:101B000040F480203060306840F4803030608DE0F8
:101B1000E068002852D00020C4F247200121016073
:101B2000FFF75EFD054600BF306880073FF552AF06
:101B3000FFF756FD401B0228F6D984E0A068012873
:101B400005D005284ED1306F40F004003067306F6B
:101B500040F0010030674FE00021C0F8801EFFF721
:101B60003FFD0546706F80077FF53EAFFFF738FDFC
:101B7000401B0228F6D966E00027C4F24727002060
:101B80003866FFF72DFD022D05460BD13068800128
:101B90005ED5FFF725FD401B02284FF00300F5D965
:101BA00054E700BF306880017FF54FAFFFF718FDA5
:101BB000401B02284FF00300F4D947E70020C4F28D
:101BC000472000210160FFF70BFD054630688007C4
:101BD0007FF507AFFFF704FD401B02284FF003001D
:101BE000F4D933E7316F002821F001013167316FFB
:101BF00021F0040131674DD0FFF7F2FC054641F2B8
:101C0000883700BF306F800756D4FFF7E9FC401BD0
:101C1000B842F7D917E000BF3168002821F48031BD
:101C20003160316821F4802131604FD0FFF7D8FC5A
:101C3000054600BF306880033FF5B5AEFFF7D0FC26
:101C4000401B6428F6D9032002B0BDE8F08100BF34
:101C500004F11C052FCD08430021CFF6FF7140EAA7
:101C6000821001EBC3316FF30F0140EA05600843B6
:101C7000706001203866FFF7B3FC044630688001CD
:101C80003FF5E3AEFFF7ACFC001B02284FF003006A
:101C9000F4D9DBE6FFF7A4FC054641F2883700BF24
:101CA000306F800708D5FFF79BFC401BB8424FF010
:101CB0000300F5D9CAE600BFB8F1000F7FF497AE74
:101CC000306C20F08050306491E600BFFFF788FC54
:101CD000054600BF306880037FF565AEFFF780FCE6
:101CE000401B64284FF00300F4D9AFE6411E0020EA
:101CF000B0EB116F1CBF012070474EF21002CEF204
:101D0000000251604EF62351CEF20001F0230B7019
:101D10000721906011607047704700007047000015
:101D200010B590F83C20012A4FF0020251D080F803
:101D30003D200268D2F804E0D2F808C00C682EF00A
:101D40007003234341F2FF74C4F20004A2425360C3
:101D50000EDC40F2FF73C4F200039A4216DCB2F1CB
:101D6000804F2BD040F20043C4F2000324E000BFB8
:101D700040F2FF33C4F201039A4213DC41F6000340
:101D8000C4F200039A4219D0002313E040F6000386
:101D9000C4F200039A4211D040F60043C4F200039B
:101DA0000AE000BF44F20003C4F201039A4205D0E6
:101DB00040F20043C4F201039A4204D149682CF076
:101DC0008003194391600121002280F83D1080F8C2
:101DD0003C20104610BD0000002804BF01207047C1
:101DE00010B5044690F83D0028B9002084F83C0066
:101DF000204600F01FF8022084F83D002068211DD5
:101E000001F04CFB012084F8460084F83E0084F881
:101E10003F0084F8400084F8410084F8420084F8D0
:101E2000430084F8440084F8450084F83D00002015
:101E300010BD000080B582B0006841F20041C4F2DC
:101E40000001884216D040F60041C4F200018842E9
:101E50000ED10020019043F64000C4F20200016858
:101E600041F008010160006800F00800019001984D
:101E700002B080BD0020009043F64000C4F2020092
:101E80000168002241F0200101600068012100F09A
:101E90002000009000983720FFF722FC372002B086
:101EA000BDE88040FFF70CBC80B590F83C20012ACB
:101EB0004FF0020200F0C28080F83D20D0F800C050
:101EC0004FF67772DCF8083023EA0202CCF80820DB
:101ED0000B684F2B28DC1F2B44DD202B45D0302BEB
:101EE00043D0402B40F0AC80D1F804E0C968DCF866
:101EF0002030DCF8202022F00102CCF82020DCF891
:101F0000182022F0F00242EA011123F00A0242EA0C
:101F10000E02CCF81810CCF82020DCF8081041F0A4
:101F2000470121F0300180E06F2B27DDB3F5005F22
:101F300048D0B3F5805F7AD0702B40F08180D1E932
:101F400001E3C968DCF8082043EA0E0322F47F426B
:101F500043EA01211143CCF80810DCF8081041F0E5
:101F6000770162E00BB1102B6AD1DCF8081021F088
:101F70007001194341F0070157E000BF502B35D0E5
:101F8000602B5DD1D1F804E0C968DCF82030DCF8C2
:101F9000202022F01002CCF82020DCF8182022F4B7
:101FA000704242EA013123F0A00242EA0E12CCF85C
:101FB0001810CCF82020DCF8081041F0670121F05F
:101FC000100132E0D1E901E3C968DCF8082043EAF6
:101FD0000E0322F47F4243EA01211143CCF808109A
:101FE000DCF8081041F480411FE000BFD1F804E0A4
:101FF000C968DCF82030DCF8202022F00102CCF89F
:102000002020DCF8182022F0F00242EA011123F02F
:102010000A0242EA0E02CCF81810CCF82020DCF8B4
:10202000081041F0570121F02001CCF808100022DF
:10203000012180F83D10002180F83C10104680BD41
:102040000122F5E77047000070B504460068C568D6
:102050000669B10716D515F0020113D06FF0020121
:102060000161012121778069800703D02046FFF7B5
:10207000E9FF05E0204600F08FF8204600F0EAF97D
:1020800000202077700719D515F0040016D02068BD
:102090006FF00401016102212177806910F4407F13
:1020A00004D02046FFF7CEFF06E000BF204600F038
:1020B00073F8204600F0CEF900202077300717D5BE
:1020C00015F0080014D020686FF0080101610421A8
:1020D0002177C069800703D02046FFF7B3FF05E0F2
:1020E000204600F059F8204600F0B4F9002020778F
:1020F000F00619D515F0100016D020686FF0100109
:10210000016108212177C06910F4407F04D0204686
:10211000FFF798FF06E000BF204600F03DF820469C
:1021200000F098F900202077F00718BF15F00100A3
:1021300002D1300609D412E020686FF0010101617C
:10214000204600F089F9300609D515F0800006D048
:1021500020686FF0800101612046FFF7DDFD700609
:1021600009D515F0400006D020686FF040010161EC
:10217000204600F073F9B00658BF70BD15F020007E
:1021800008D021686FF0200220460A61BDE8704047
:10219000FFF7C4BD70BD0000704700002DE9F0419D
:1021A00090F83C30012B04BF0220BDE8F0814FEADB
:1021B000B202032A00F2FC80DFE802F0023E7EBE9B
:1021C000036840F200471C6A1A6A24F0020422F0F5
:1021D00001021A621A46D3F804E052F818CF8E684A
:1021E00043F48065C4F20107BD4244EA060405D108
:1021F000CE6824F00C0426F0040634430E68BD4279
:1022000007D1D1E905572EF4407E45EA0E0545EA8F
:10221000070E2CF073073743C3F804E09F614F6843
:1022200009695F631C629F6947F008079F619F69A6
:1022300027F004079F61B1E0036840F200481C6A80
:102240001A6A24F0200422F010021A621A46D3F807
:1022500004E052F818CF8F6843F48065C4F2010897
:10226000454544EA071407D1CF686FF0400624F0D3
:10227000C00406EA071634430F68454507D1D1E983
:1022800005562EF4406E4EEA850545EA860E2CF47E
:10229000E64646EA0727C3F804E09F614F680969EC
:1022A0009F631C629F6947F400679F619F6927F4E1
:1022B00080679F6171E000BF036840F200481C6ABC
:1022C0001A6A24F4007422F480721A621A46D3F84F
:1022D00004E052F81CCF8F6843F48065C4F2010813
:1022E000454544EA072408D1CF6840F2FF463F0243
:1022F00024F4406427EA060634430F68454507D1B5
:10230000D1E905562EF4405E4EEA051545EA061E53
:102310002CF073063743C3F804E0DF614F680969A6
:10232000DF631C62DF6947F00807DF61DF6927F0C0
:102330000407DF6132E000BF036840F20045D3F8D4
:1023400020C01A6A43F4806722F480521A621A4647
:102350005C6852F81CEFD1F800808E68C4F2010569
:10236000AF4204D14D6924F4804444EA85142CF42E
:10237000005747EA06372EF4E64646EA08265C6030
:10238000DE614E6809691E641F62DF6947F40067F9
:10239000DF61DF6927F48067DF6109021368194391
:1023A00011600021002280F83C200846BDE8F08141
:1023B0000121002280F83C200846BDE8F0810000A1
:1023C000002804BF0120704710B5044690F83D0076
:1023D00028B9002084F83C00204600F01FF80220B5
:1023E00084F83D002068211D01F058F8012084F890
:1023F000460084F83E0084F83F0084F8400084F8EA
:10240000410084F8420084F8430084F8440084F8D2
:10241000450084F83D00002010BD000081B0006838
:1024200040F60001C4F20001884201D001B07047BB
:102430000020009043F64000C4F20200016841F021
:1024400004010160006800F004000090009801B0F1
:1024500070470000704700007047000070470000A0
:102460007047000070470000B0B582B004460068B5
:102470000168C368426901F02F05202D03F0200593
:1024800006D12DB1204602B0BDE8B04001F0CCB974
:102490005FEA017C1EBF02F0010E03F4907212EBA2
:1024A0000E0255D1226B012A05D111F0100218BF7E
:1024B00013F0100236D10A0622D513F080021FD085
:1024C00094F84110212941D1A168B1F5805F03D171
:1024D0002169002900F07282216A4A1C226209786F
:1024E0004160E18C01390A04E1842FD1C16821F0F7
:1024F0008001C160C16841F04001C16002B0B0BD5F
:10250000490623D513F0400120D0C16821F04001D5
:10251000C1602021204684F8411002B0BDE8B040DF
:1025200000F06EBC002101910168019141680191A8
:1025300001994169490600F18F80A18DE28DE38DFB
:10254000002B1CBF891A5FEA01420CD102B0B0BD5A
:10255000CA0718BF13F4807240F038814A0700F1AF
:102560003B8140E1206850E8030F226820F490701E
:1025700042E80303DBB1206850E8030F226820F42F
:10258000907042E8030393B1206850E8030F22687B
:1025900020F4907042E803034BB1206850E8030F29
:1025A000226820F4907042E80303002BDAD12068FF
:1025B00050E8050F226820F0010042E80503DBB176
:1025C000206850E8050F226820F0010042E805036A
:1025D00093B1206850E8050F226820F0010042E81E
:1025E00005034BB1206850E8050F226820F0010078
:1025F00042E80503002BDAD1202084F842000020B5
:102600002063206850E8030F226820F0100042E8A1
:102610000303DBB1206850E8030F226820F01000AC
:1026200042E8030393B1206850E8030F226820F0CA
:10263000100042E803034BB1206850E8030F226802
:1026400020F0100042E80303002BDAD1022289B205
:1026500020466263B4E000BFE16B0A68526893B23F
:10266000002B3FF473AFA58DAB42BFF46FAFE28593
:10267000C969B1F5807F00F09C8050E8030F2168A4
:1026800020F4807041E80302E2B1206850E8030FB3
:10269000216820F4807041E803029AB1206850E874
:1026A000030F216820F4807041E8030252B12068D2
:1026B00050E8030F216820F4807041E803020AB15A
:1026C0002068DAE7206850E8050F216820F0010053
:1026D00041E80502DAB1206850E8050F216820F0D2
:1026E000010041E8050292B1206850E8050F216819
:1026F00020F0010041E805024AB1206850E8050FCA
:10270000216820F0010041E80502002ADAD12068A2
:1027100050E8050F216820F0400041E80502DAB1D9
:10272000206850E8050F216820F0400041E80502CC
:1027300092B1206850E8050F216820F0400041E880
:1027400005024AB1206850E8050F216820F04000DA
:1027500041E80502002ADAD1202084F84200002056
:102760002063206850E8030F216820F0100041E842
:102770000302DAB1206850E8030F216820F010004E
:1027800041E8030292B1206850E8030F216820F06D
:10279000100041E803024AB1206850E8030F2168A5
:1027A00020F0100041E80302002ADAD1E06BFEF7C6
:1027B000FBFB02206063A08DE18D401A81B22046B0
:1027C00002B0BDE8B040FFF74BBE00BF626C42F004
:1027D000010262644A0706D5BEF1000F03D0626CA5
:1027E00042F0020262648A0706D5BEF1000F03D0F0
:1027F000626C42F004026264BCF1000F06D555EA37
:102800000E0203D0626C42F008026264626C002A1D
:102810003FF49CAE11F0200118BF002D03D02046DC
:1028200001F002F820684169626C01F0400102F099
:102830000802891800F0A28050E8030F216820F4F4
:10284000907041E80302C2B3206850E8030F21688A
:1028500020F4907041E803027AB3206850E8030F37
:10286000216820F4907041E8030232B3206850E8F8
:10287000030F216820F4907041E80302EAB1206858
:10288000DAE700BF206850E8050F216820F001005A
:1028900041E80502DAB1206850E8050F216820F010
:1028A000010041E8050292B1206850E8050F216857
:1028B00020F0010041E805024AB1206850E8050F08
:1028C000216820F0010041E80502002ADAD1206BDE
:1028D000012824D1206850E8030F216820F010005F
:1028E00041E80302DAB1206850E8030F216820F0C4
:1028F000100041E8030292B1206850E8030F2168FC
:1029000020F0100041E803024AB1206850E8030FAC
:10291000216820F0100041E80302002ADAD12020CB
:1029200084F84200002020632068416949063FD5B1
:1029300050E8050F216820F0400041E805022AB365
:10294000206850E8050F216820F0400041E80502AA
:10295000E2B1206850E8050F216820F0400041E80E
:1029600005029AB1206850E8050F216820F0400068
:1029700041E8050252B12068DAE700BF2046FFF7C0
:1029800071FD0020606402B0B0BD00BFE06B78B1A3
:1029900043F2E951C0F600010165FEF74FFB002844
:1029A0003FF4D4ADE06B016D02B0BDE8B040084724
:1029B000204602B0BDE8B040FFF754BD216A31F8AF
:1029C000022B6FF35F22426021628AE5002804BF78
:1029D0000120704710B5044690F8410028B9002046
:1029E00084F84000204600F021F8242084F84100BB
:1029F0002068C16821F40051C160204600F094FFB6
:102A00002068016921F490410161416921F02A01A6
:102A10004161C16841F40051C1600020202160641F
:102A200084F8411084F84210606310BD2DE9F04F26
:102A300087B00446006844F60001C4F20001002695
:102A40008842CDE90566CDE90366029600F09480E0
:102A500041F20041C4F20101884200F0F78041F2E6
:102A60000001C4F20101884240F06081002743F672
:102A700030000197C4F202004169002541F01001C5
:102A800041614169C4F2020501F01001019101990F
:102A90000197016802AE41F002010160016846F24F
:102AA000280801F0020101910199019701684FF096
:102AB000020941F00101016000684FF0030A00F0D3
:102AC000010001900198802002904FF0070B05F55E
:102AD00080603146C4F20208CDE90397CDF814A016
:102AE000CDF818B0FEF79EFC4FF40070CDE9020956
:102AF00004A880E8800C28463146FEF793FC40F29B
:102B00002C3508F59260C2F200054FF000664021B6
:102B1000C5E9000605F108004FF4806980E88202EB
:102B20002846C5E90577C5E907776F62FEF778FBA8
:102B3000002818BFFDF7ACFCA563AC6340F2CC25C0
:102B400008F58360C2F2000585E8C1002846C5E9A2
:102B50000379C5E90577C5E907776F62FEF760FB82
:102B6000002818BFFDF794FCE563AC632520002125
:102B700000222524D5E000BF43F630000196C4F2C0
:102B80000200016946F2280841F4802101610169CF
:102B9000C4F2020801F480210191019901960168B3
:102BA00041F004010160006802A900F004000190F6
:102BB00001984FF4406002900220CDE90306032003
:102BC0000590072006900020C4F2020000F5006086
:102BD000FEF728FC40F28C35C2F200054FF000678A
:102BE0004FF480692846C5E90087C5E90266C5E952
:102BF0000496C5E90666C5E90866FEF711FB0028DC
:102C000018BFFDF745FCE563AC6340F2EC3508F115
:102C10003000C2F200054021C5E9000705F10800B7
:102C2000002280E806022846C5E90522C5E90722F8
:102C30006A62FEF7F5FA002818BFFDF729FCA563C4
:102C4000AC6327200421002227246AE0002643F6F3
:102C500030000196C4F20200416946F2280841F0B2
:102C6000200141614169C4F2020801F02001019193
:102C700001990196016841F040010160006802A9D4
:102C800000F04000019001984FF48440029002202F
:102C9000CDE9030603200590082006900020C4F229
:102CA000020000F5C050FEF7BDFB40F2AC4508F550
:102CB0008F60C2F200054FF020674021C5E9000790
:102CC00005F108004FF4806980E842022846C5E912
:102CD0000566C5E907666E62FEF7A2FA002818BF0E
:102CE000FDF7D6FBA563AC6340F24C4508F5806068
:102CF000C2F20005C5E900072846C5E90266C5E934
:102D00000496C5E90666C5E90866FEF789FA002853
:102D100018BFFDF7BDFBE563AC634720042100222B
:102D20004724FEF7DDFC2046FEF7CAFC07B0BDE8ED
:102D3000F08F00007047000070B5044690F8410025
:102D400020281CBF022070BD00294FF0010553D080
:102D50001346002A50D0002521202162A384E38459
:102D6000656484F841002668A06B43F2F55243F293
:102D7000717C43F6210EC0F60002C0F6000CC0F6CE
:102D8000000EC0E91325321DC0E90FCEFEF7FAFA96
:102D900020686FF0400140F8141B50E8000F2168D4
:102DA00040F0800041E8050232B300BF206850E8DF
:102DB000050F216840F0800041E80502F2B120686B
:102DC00050E8050F216840F0800041E80502AAB1F3
:102DD000206850E8050F216840F0800041E80502B6
:102DE00062B1206850E8050F216840F0800041E89A
:102DF0000502002ADAD10025284670BD002070BDEA
:102E00007047000070470000FEE7000070B58AB010
:102E100040F27C2401200021C2F200046D4608909B
:102E2000CDE90011CDE90211CDE90411CDE906107B
:102E30000E26204629460996FDF798FB059640F296
:102E4000A4261C20C2F20006099030462946FDF750
:102E50008DFB2046FEF76CF820460221FDF71CFB97
:102E60003046FEF765F830460221FDF715FB40F2CB
:102E70004820C2F200004DF20A71C3F6234141F22C
:102E80006F2244F200032830C3F68322C4F21C638D
:102E90000EC00AB070BD000080B540F27C2046F242
:102EA0000041C2F20000C4F200010622002380E8C3
:102EB0000E0000F10C014FF4403C4FF4801E81E8FD
:102EC000085083618383FDF7A1FD002808BF80BD02
:102ED000BDE88040FDF7DCBA80B540F2A42046F69C
:102EE0000001C2F20000C4F200010622002380E8C3
:102EF0000E0000F10C014FF4403C4FF4801E81E8BD
:102F0000085083618383FDF781FD002808BF80BDE1
:102F1000BDE88040FDF7BCBA80B582B0002043F622
:102F200030010190C4F202010A6842F480020A6092
:102F30000A6802F480020192019A00900868002257
:102F400040F4001008600868002100F400100090B0
:102F500000980C20FEF7C4FB0C20FEF7B1FB0E20FE
:102F600000210022FEF7BCFB0E20FEF7A9FB392052
:102F700000210022FEF7B4FB3920FEF7A1FB3A2026
:102F800000210022FEF7ACFB3A20FEF799FB45201A
:102F900000210022FEF7A4FB4520FEF791FB46200E
:102FA00000210022FEF79CFB462002B0BDE88040D5
:102FB000FEF786BB81B0002143F630000091C4F2D9
:102FC0000200026842F002020260026802F002029D
:102FD0000092009A0091026842F04002026002688A
:102FE00002F040020092009A0091026842F0010251
:102FF0000260026802F001020092009A00910268E9
:1030000042F008020260026802F008020092009A90
:103010000091026842F004020260026802F00402B9
:103020000092009A0091016841F0800101600068FF
:1030300000F080000090009801B0704770B590B02B
:1030400040F6000540F20C50C4F200050021C2F227
:103050000000A7224FF6FF73CDE90811CDE9061154
:10306000CDE90411C0E90052C0E902130161816198
:10307000FFF7A6F9002818BFFDF70AFA40F20C5036
:10308000C2F2000008A9FEF74BFE002818BFFDF7AA
:10309000FFF940F20C546020C2F2000401900026B7
:1030A00001A920460822CDE902660596FFF776F8C9
:1030B000002818BFFDF7ECF9206840F60041C4F283
:1030C000000188420B9619D0A84234D100200A9002
:1030D00043F63000C4F202000168032241F0080107
:1030E00001600068012100F008000A900A984FF47E
:1030F00080400B9005F5013015E000BF002143F63C
:1031000030000A91C4F20200026842F080020260BC
:103110000068002200F080000A900A984FF4E05006
:103120000B9005F505300223CDE90C310BA9CDE953
:103130000E23FEF777F910B070BD0000B0B594B063
:1031400040F6004540F25450C4F200050021C2F29E
:1031500000004FF6FF720D91CDE90B110991CDE9F9
:103160000711CDE90511CDE90311CDE90111C0E940
:103170000051C0E9021201618161FEF72DFE0028B5
:1031800018BFFDF785F94FF480500A9040F2545073
:10319000C2F200000AA9FEF787FE002818BFFDF75B
:1031A00077F940F25450C2F20000FFF709F9002805
:1031B00018BFFDF76DF940F254500024C2F2000030
:1031C00008A9CDE90844FEF7ABFD002818BFFDF7BC
:1031D0005FF96020019042F21070CDE9020440F2E4
:1031E0005450C2F2000001A900220594FEF7D6FF58
:1031F000002818BFFDF74CF940F25450C2F200000D
:1032000001A90422FEF7CAFF002818BFFDF740F904
:1032100040F25454C2F2000401A920460822FEF7ED
:10322000BDFF002818BFFDF733F920680021A84230
:103230000F911DD040F60001C4F20001884233D145
:1032400000200E9043F63000C4F202000168032211
:1032500041F0080101600068012100F008000E90B3
:103260000E984FF480400F9005F5003014E000BF39
:1032700043F630000E91C4F20200026842F0800270
:1032800002600068002200F080000E900E984FF45B
:10329000E0500F9005F504300223CDE910310FA95D
:1032A000CDE91223FEF7BEF814B0B0BD80B582B0F0
:1032B00040F29C500021C2F2000041F2004240F274
:1032C000E73CCDE90011C4F200025323C0E9021C1F
:1032D0008021C0E900238161FEF77EFD002818BF30
:1032E000FDF7D6F840F29C50C2F200006946FEF7A6
:1032F00017FD002818BFFDF7CBF802B080BD000015
:1033000080B540F2E45041F20001C2F20000C4F284
:10331000010100234FF00C0C4FF4E13280E80E0065
:10332000C0E90333C0E905C3C361FFF74FFB0028C1
:1033300008BF80BDBDE88040FDF7AAB810B540F2D7
:103340002C6044F6000C48F2A062C2F20000C4F205
:10335000000CC0F201024FF4805300214FF4806E44
:103360000C24C0E900C2C0E90231C0E904E4C0E9AC
:103370000611FFF72BFB002808BF10BDBDE8104069
:10338000FDF786B880B540F2746041F20041C2F2A8
:103390000000C4F2010100234FF00C0C4FF4E132A5
:1033A00080E80E00C0E90333C0E905C3C361FFF73D
:1033B0000DFB002808BF80BDBDE88040FDF768B860
:1033C000FEE70000FEE700007047000070470000C5
:1033D000FEF70CB9B0B592B0002443F64000CDE939
:1033E0000A44CDE908440594CDE90344CDE90144FC
:1033F0000094C4F202000168022541F0805101608E
:10340000006800F080500090009847F2000000949F
:10341000C4F20000016841F480410160006800F4DA
:10342000804000900098012006904FF48030079073
:103430004FF480000D9006200E90A820CDE90F05D6
:103440000420119006A80C95FEF794FA10B172B6FC
:10345000FEE700BF0F20CDE901054FF4A050049016
:103460004FF48050059001A805210394FEF774F9EC
:1034700010B172B6FEE700BF12B0B0BD4EF6885074
:10348000CEF20000016841F4700101607047000055
:1034900040F29C50C2F20000FEF7D6BD10B540F6D7
:1034A000FF3E0368C4F2000E40F2004C7045C4F2C7
:1034B000010C27DCB0F1804F31D040F20042C4F261
:1034C000000290422BD040F60002C4F2000290426B
:1034D00025D041F6FF72C4F20002904229DC70450B
:1034E0003CDCB0F1804F5FD040F20042C4F20002F9
:1034F000904259D040F60002C4F20002904253D0EC
:1035000056E000BF40F60042C4F20002904206D0EE
:10351000604504D00022C4F201029042D9D14A6829
:1035200023F07003134341F6FF72C4F2000290428D
:10353000D5DD43F6FF72C4F20102904222DC42F272
:103540000002C4F2000290422ED00022C4F2010216
:10355000904229D0604527D02AE000BF40F60042C3
:10356000C4F2000290421FD041F60002C4F20002F1
:10357000904219D041F60042C4F20002904213D0AA
:1035800016E000BF44F20002C4F2010290420BD0E8
:1035900044F60002C4F20102904205D044F2004217
:1035A000C4F20102904203D1CA6823F4407313436A
:1035B00023F080024B69D1F800E08C681A43026066
:1035C000C46240F48062C0F828E0624504BF096923
:1035D0000163012141610169C90708BF10BD01698B
:1035E00021F00101016110BD806B0021C185C18402
:1035F000FEF738BF806B01684A6990F84130212B93
:103600002ED112F080022BD00022C28451E8031F79
:10361000026821F0C00142E80313EBB1016851E8F0
:10362000031F026821F0C00142E80313A3B101683F
:1036300051E8031F026821F0C00142E803135BB1A7
:10364000016851E8031F026821F0C00142E803133A
:1036500013B10168DAE700BF202180F8411001684A
:103660004A6990F84230222B7CD112F0400279D086
:103670000022C28551E8031F026821F4907142E8DC
:103680000313C3B3016851E8031F026821F490716A
:1036900042E803137BB3016851E8031F026821F479
:1036A000907142E8031333B3016851E8031F0268C5
:1036B00021F4907142E80313EBB10168DAE700BF2F
:1036C000016851E8051F026821F0010142E8051375
:1036D000DBB1016851E8051F026821F0010142E8F1
:1036E000051393B1016851E8051F026821F001013B
:1036F00042E805134BB1016851E8051F026821F04B
:10370000010142E80513002BDAD1016B012924D114
:10371000016851E8031F026821F0100142E8031319
:10372000DBB1016851E8031F026821F0100142E893
:10373000031393B1016851E8031F026821F01001DF
:1037400042E803134BB1016851E8031F026821F0FE
:10375000100142E80313002BDAD1202180F8421037
:1037600000210163416C41F010014164FEF77ABE13
:103770000168806B0968C90548BFFFF741BB00219C
:10378000C18400BF016851E8051F026821F0800173
:1037900042E8051383B3016851E8051F026821F070
:1037A000800142E805133BB3016851E8051F026838
:1037B00021F0800142E80513F3B1016851E8051FCB
:1037C000026821F0800142E80513002BDAD113E0F2
:1037D000016851E8031F026841F0400142E8031309
:1037E000002B08BF7047016851E8031F026841F0D1
:1037F000400142E8031393B1016851E8031F0268D6
:1038000041F0400142E803134BB1016851E8031F46
:10381000026841F0400142E80313002BD8D1704701
:10382000806BFFF7EFBA000081B090F842102229B8
:1038300020D18368B3F5805F08D10169002965D084
:1038400000F128010A6803685B680AE0014651F844
:10385000282F13B90369002BF5D003685B6803F0C8
:103860007F0313700A6801320A60C18D01390A04AE
:10387000C18501D001B070470168CA6822F02002FA
:10388000CA60CA6822F48072CA604A6922F00102E2
:103890004A61202280F8422000224263036B012B00
:1038A0003ED1026351E8031F026821F0100142E893
:1038B00003130168DBB151E8031F026821F0100116
:1038C00042E80313016893B151E8031F026821F035
:1038D000100142E8031301684BB151E8031F02686D
:1038E00021F0100142E803130168002BDAD10A68C5
:1038F000D20606D5002200920A680092496800911B
:103900000099818D01B0FEF7ABBD00BF0168826AEE
:1039100049686FF35F2122F8021B8262A5E700BFAE
:1039200001B0FFF707BA000010B504460068D4E9FB
:1039300002C22369016921F44051114301616269A6
:1039400043EA0C01E3691143C268194349F20C636D
:103950009A431143C1604169A26921F4407141F267
:103960000043114340F48062C4F201039A42416172
:1039700002D1FDF7B5FF01E0FDF79EFFE169636845
:103980001922B1F5004FA0FB02011FD15A00DB0F35
:10399000FCF77AFC48F21F51C5F2EB11A0FB0123A2
:1039A0005A096FF0630302FB0300322303EBC000EC
:1039B000A0FB01014FF4F87000EA111000EB0210B7
:1039C000C1F3421108442168886010BD9A009B0F22
:1039D000FCF75AFC48F21F51C5F2EB11A0FB012382
:1039E0005A096FF0630302FB0300322303EB00105C
:1039F000A0FB0101F02000EA511000EB0210C1F31E
:103A0000431108442168886010BD000040F2E45072
:103A1000C2F20000FEF728BD40F22C60C2F20000A6
:103A2000FEF722BD40F27460C2F20000FEF71CBD3A
:103A3000FEE70000B0F9502090F8603089B21A44D7
:103A4000914218BF704704990A68496813BAC0E9DF
:103A50001621120C52BA09BA1B0CA0F85A200A0CF3
:103A60000021A0F85830A0F85C2000F001B8000058
:103A70002DE9F04F81B02DED0A8B92B0064600681B
:103A80000C46426868463146904706EBC405B5F9D6
:103A90005800B5F95A70B5F95C8000F05AFF9DEDF9
:103AA0000A0B02460B469DED0CBB9DED0E9B9DED5A
:103AB00010AB51EC100B00F0EFFF9FED530B824663
:103AC00041EC180B04EBC40006EBC00653EC102BC2
:103AD0005046894686ED028B00F0DEFF41EC100B6C
:103AE000384686ED040B00F034FF02460B4641ECED
:103AF0001C0B51EC1B0B00F0CFFF41EC100B4046B0
:103B000086ED060B86ED08CB00F023FF02460B4640
:103B100051EC1A0B00F0C0FF41EC100B53EC192BC9
:103B200086ED0A0B00F0B8FF41EC100B95F85E0033
:103B300086ED0C0B00F024FF41EC100B504686ED97
:103B40000E0B96ED100B494658EC107B3A46434657
:103B500006F1400B01F09EF89FED2D0B044653EC4F
:103B6000102B0D4601F0C4F9C0B99FED2F0B3A465A
:103B700051EC100B434601F08DF802460B465046BF
:103B8000494600F06DFC96ED120B53EC102B00F043
:103B900067FC41EC100B86ED120B2DE09FED1E0B28
:103BA000204653EC102B294601F0A9F9C0B99FED2E
:103BB0001C0B504653EC102B494600F051FC3A4682
:103BC000434601F067F896ED120B02460B4651ECA6
:103BD000100B00F045FC41EC100B86ED120B0BE0D6
:103BE00096ED120B204653EC102B294600F038FCC2
:103BF00041EC100B86ED120B8BED008B12B0BDEC7F
:103C00000A8B01B0BDE8F08F172751A246DF913F24
:103C100000000000008066C00000000000806640D8
:103C200000000000008076C00000000000807640A8
:103C300010B542F61D3340F2B221C3F69073CAF2BA
:103C4000614140F2000C0024C0E902130021C4F2DB
:103C5000330C002240F2000EC4F23404C4F2C0015E
:103C6000C4F2D00EC0E9002CC0E9062448F20003DB
:103C700049F24B3C4CF29864C0E9082100F128015C
:103C8000C0E9042EC3F6A673C3F6767CCBF6907417
:103C900040F2000E81E81C100021C3F6387EC3F606
:103CA0005471C0E90E2EC0E9102110BD00000000C3
:103CB0002DE9F04F81B02DED0C8B8CB0B0EE458A24
:103CC000B0EE429AB0EE41AAB0EE40BA834680ED23
:103CD000003B80ED044B51EC130B53EC142BF0EE36
:103CE000658AF0EE629AF0EE61AAF0EE60BA00F03A
:103CF000D1FF80460E4641EC1C0B00F07FFB9BED94
:103D00001A2A9BED1D3A9BED191A9BED1C4A22EED7
:103D1000035A00EE100A35EE011AB8EE005A8BED88
:103D2000191A24EE055A30EE410A24EE041A20EE48
:103D3000010A25EE021A31EE000A20EE030ACBF842
:103D4000600032EE00DA51EC1B0B424633468BED3D
:103D50001ADA8BED16CB00F09FFE9FED69BBCDE923
:103D6000061054EC1B9B41EC100BE00F354660F342
:103D7000DF75DBF888008BED060B01F079F89BED21
:103D80000E0B05908A4653EC102B4046314600F04E
:103D900067FB059A07460E4640462946534601F002
:103DA000B5F80028059408BF2646CDF8109008BF46
:103DB0004F4646EC107B51EC1A0B3A4633468BEDDE
:103DC0000E0BCDE9020100F067FE9BED20AB41EC4C
:103DD000100B55EC1A4B22462B46814688468BED3C
:103DE000080B019501F07DF84646002818BF2E46C5
:103DF0008DED0AAB9DF82F004F4680F080008DF8C6
:103E00002F009DED0A0B18BF274655EC10AB384626
:103E1000314652462B4601F079F8002830463946A3
:103E20001CBF28465146019B40EC1A1B48464146A0
:103E3000224601F056F858B93846314652462B46CC
:103E400001F056F8002808BF8BED08AB02E000BF78
:103E50008BED08AB1DEE100A01F00AF802460B4686
:103E600051EC190B00F018FE02AB07460E4641EC70
:103E7000100B0FCB8BED0A0B8BED12CB01F023F85F
:103E800030B1B0EE4BAA0020F0EE6BAACBE90800EF
:103E9000DDE9061053EC1A2B00F0E2FA02460B465D
:103EA0003846314600F0DCFA57EC188B42463B4668
:103EB00005460E4601F015F88DED088B00289DF89B
:103EC000270018BF3E4680F080008DF82700DDE90E
:103ED000087418BF4546284631463A46234601F045
:103EE00015F800281CBF26463D4646EC105B8BEDBE
:103EF000020B0CB0BDEC0C8B01B0BDE8F08F00BF25
:103F00000000000000000000014610EE100A0860EA
:103F100010EE900A486011EE100A886011EE900AC7
:103F2000C86012EE100A086112EE900A486140F271
:103F3000E4504FF0FF43C2F200002022CB61FEF7B5
:103F4000FBBE0000FDF760FBFFF744FAFFF732F815
:103F5000FEF7E2FFFEF7A0FFFEF7BEFFFFF7D0F986
:103F6000FFF7ECF9FFF70EFAFFF7A0F9FFF766F895
:103F7000FFF7E4F8FEF74AFFFEE74100080218BF2A
:103F800004200A0E18BF40F001004FF07F4232EAD1
:103F9000010108BF40F00200012808BF052070475A
:103FA00010EE101A08B5444A6846B2EB410F28D902
:103FB0004FF0E640B0EB410F94BF00204FF0FF30D0
:103FC00000900098002861DB60EE000A10F0010FFD
:103FD00045D010F0020FDFED391A9FED391A00EECF
:103FE000A11ADFED381A40EE811A21EEA01AF0EE88
:103FF000400A40EE010A08BFF1EE600AB0EE600A26
:1040000008BD314B21F0004293423CD911F0004FE2
:10401000DFED2E0A20EE201ADFED2D0A19BF31EE5A
:10402000601A71EE200A31EE201A71EE600ABDEEC0
:10403000E01A11EE100A9FED271A00F0030000EEBF
:10404000C10A9FED251A009000EEC10A9FED231AC8
:1040500000EEC10A9FED221A00EEC10AB1E79FED02
:10406000211A9FED210A10F0020F00EE810A9FED48
:104070001F1A00EE801AB7EE000A00EE810A18BF80
:10408000B1EE400A08BD00F00FF99AE710EE100AF1
:104090004000B0F17F4F3CBFB7EE000A08BD07D12A
:1040A0004FF00100FCF770F9BDE8084000F0ECB8F3
:1040B000BDE8084000F0E4B8B61F927E336D4CB9FD
:1040C000DA82083CA0AA2ABE490E494683F9223F5B
:1040D0000000004B0000C93F00A0FD390020A233C2
:1040E0001A61342CB93AB2BACA9F2A3DDDFFFFBE2D
:1040F00000B510EE101A2DED028B81B0524A6846C1
:10410000B2EB410F2ED94FF0E640B0EB410F94BF18
:1041100000204FF0FF3000900098B0EE408A002859
:104120006ADB10F0010F4BD068EE080A9FED471ACA
:104130009FED470A00EE810A9FED461A10F0020F2C
:1041400000EE801AB7EE000A00EE810A02BF01B04D
:10415000BDEC028B00BD00BF01B0B1EE400ABDEC6A
:10416000028B00BD3C4B21F00042934241D911F03B
:10417000004FDFED3A0A20EE201ADFED390A19BFB1
:1041800031EE601A71EE200A31EE201A71EE600AEB
:10419000BDEEE01A11EE100A9FED321A00F0030096
:1041A00000EEC10A9FED301A009000EEC10A9FEDAB
:1041B0002F1A00EEC10A9FED2E1A00EEC10AABE7DE
:1041C00028EE080A9FED2B1ADFED2B0A10F0020FE4
:1041D00040EE010A9FED291A00EE201A61EE000A56
:1041E000B0EE480A08EE200AB6D101B0BDEC028B51
:1041F00000BD00F059F88FE718EE100A4000B0F14A
:104200007F4F0DD218EE100AFFF7B7FE042808BF43
:1042100000F042F8B0EE480A01B0BDEC028B00BDE0
:1042200009D10120FCF7B0F801B0BDEC028B5DF8BC
:1042300004EB00F029B801B0B0EE480ABDEC028BE7
:104240005DF804EB00F01CB8B61F927EB93AB2BA22
:10425000CA9F2A3DDDFFFFBE490E494683F9223F32
:104260000000004B0000C93F00A0FD390020A23330
:104270001A61342C336D4CB9DA82083CA0AA2ABEEC
:1042800030EE000A70470000DFED020A80EEA00A5F
:1042900070470000000000009FED020A20EE000AB7
:1042A00070470000000000102DE9F0014FF07F4240
:1042B000B2EB410F9FBF4FF0FF310160BDE8F0014D
:1042C00070474FF0004242EA0123C1F3C752783AE7
:1042D000551112F01F0C434CCCF120067C44C1F365
:1042E000C752A2F178024FEA621204EB820254F83C
:1042F000254008BFD2E9015612D0556804FA0CF4E3
:1043000025FA06F73C43976805FA0CF527FA06F8F4
:10431000D26807FA0CFCF24045EA08054CEA0206AE
:10432000A4FB034CA5FB0352A6FB03631D449D4263
:1043300034BF012600261319334416B1934202D923
:1043400003E0934201D2012200E00022624402F124
:10435000200C9206DC0C42EA443200EE102A5B0389
:10436000DFED210AF8EEC01A00EE103A4FEA9C1C6D
:1043700011F0004FB8EE400AC0F800C020EE201A3D
:1043800000EE105ADFED190AB8EE400A20EE200ABE
:1043900071EE810A70EE800A10EE902A02F500623A
:1043A0006FF30B0200EE902A70EEE11A31EEC11AA3
:1043B000DFED101A30EE411A9FED0D0A20EE800A53
:1043C00001EE210A9FED0C1A00EE810A04BFBDE840
:1043D000F0017047CCF180510160BDE8F001B1EE11
:1043E000400A7047EC0C0000000000360000802CF2
:1043F00022AAFD29DB0FC92F0000C92F21F000429E
:1044000001F00043A2F16052B2F5801F28BFD2F143
:104410007F6C0BD95FEA001C43EAC20242EB50708A
:1044200018BF704728BF20F001007047B2F5801F09
:10443000BCBF184670474FEA410C1CF5001F02D262
:10444000084600F0BDBD70B500F0D0FB000000894B
:10445000FFF7F6BF4FF00040A0F580007047000066
:1044600010B591EA030F48BF83F0004300F11A84AE
:10447000841A71EB030C05D2121943EB0C03001BD9
:1044800061EB0C014FEA1154A4EB135CDFF81CE163
:104490001EEA430F18BF9EEA445F00F0748021EAD1
:1044A000045123EA0E0343F48013DCF1200E32D3CF
:1044B00022FA0CFE10EB0E0023FA0CFE41EB0E016B
:1044C000CCF1200E03FA0EFE10EB0E00CCF1200E04
:1044D00051F10001B1F5801F32D201EB045112FA03
:1044E0000EF2BDE8104058BF7047401C38BF5FEA6D
:1044F000420218BF7047002814BF20F0010041F1AC
:1045000000014FEA410313F5001F38BF7047A1F1C6
:10451000C04100F0B9BB012A43EB0302ACF1200C0F
:10452000DCF11F0E32BF4FF0000E23FA0CF310EB3C
:10453000030041EB0451B4EB115FD0D0A1EB045167
:1045400001F58011490801EB04515FEA30000ED3F8
:1045500050F1000038BF12FA0EFE08D1BDE810403D
:10456000C9E7401C38BF5FEA4202CAD1C3E7BDE8D1
:1045700010404FEA410313F5001F38BF7047A1F107
:10458000C04100F081BB9EEA445F08D011EA5E0F93
:10459000BDE8104004BF01F0004100207047BDE8B5
:1045A000104070B500F022FB64FBBE3E0000E0FF4F
:1045B000491058BFC1F140415B1058BFC3F140439F
:1045C0008B42EFF3008070472DE9C04130B4DFF833
:1045D000A4C23CEA111418BF3CEA131400F0ED80A9
:1045E0001CEA111481EA030544EAD57418BF1CEAD9
:1045F000131500F0C880A4EB050404F17F7404F5E2
:1046000000344FF0004545EAC12145EAC32341EAA1
:10461000505143EA52534FEAC0204FEAC222994216
:1046200008BF904200F09D804FEA13650FF24416D8
:10463000765D4FEA134506FB05F7C7F1807706FB69
:1046400007F74FEAD737A7FB03687642A7FB06CEEA
:10465000C8F5803838BFA8F1010807FB08E6A6FBBB
:10466000028C4FF0000EE6FB03CEDCF1000CCEF125
:10467000004E38BFAEF1010EA6FB0C584FF00007FC
:10468000E6FB0E87A1FB08C6A0FB07CE16EB0E06C5
:104690004FF0000545F10005E1FB076515F1E04E1F
:1046A0007EBFA4F580345FEA46066D4116F18007AF
:1046B00045F100054FEA172747EA05674FEA152538
:1046C0004FEA0666A6F1DE46B6F1805F20D938468D
:1046D00005EBC47124F0010C01EB0C11BCF1FE6F71
:1046E00002D8F0BCBDE8008124425CBF01F5801E09
:1046F0009EEAC47F02D4F0BCBDE80081244200F1F0
:104700003980A1F1C041F0BCBDE8004100F0BCBA65
:104710004FEAD02040EA41504FEAD1214FEAD2225D
:1047200042EA43524FEAD323A7FB028607FB036604
:1047300005FB02661EEA0E0F58BFA6EB0056B6EB4D
:1047400000564FEA520E4EEAC37E18EB0E0E56EBA1
:10475000530EBCD518EB02085E417F1C55F10005D5
:10476000B5E74FF480154FF000074FF000064FF00B
:104770000008ACE701F1C04101F000414FF000003A
:10478000F0BCBDE800810CEA131511EA0C1F00D043
:104790000CE013EA0C1F00F026804FF0000081EAC5
:1047A000030101F00041F0BCBDE80081F0BCBDE8B0
:1047B000004181EA030100F067BAF0BCBDE80041A6
:1047C00070B500F013FA00BF097EFC3E00F007B898
:1047D0004FF0000081EA030101F00041704781EAD7
:1047E000030100F051BAF0BCBDE8004122494FF08E
:1047F00000007047FFFDFBF9F7F5F4F2F0EEEDEB8A
:10480000E9E8E6E4E3E1E0DEDDDBDAD8D7D5D4D3CE
:10481000D1D0CFCDCCCBCAC8C7C6C5C4C2C1C0BF1A
:10482000BEBDBCBBBAB9B8B7B6B5B4B3B2B1B0AF20
:10483000AEADACABAAA9A8A8A7A6A5A4A3A3A2A104
:10484000A09F9F9E9D9C9C9B9A99999897979695BF
:1048500095949393929191908F8F8E8E8D8C8C8B5B
:104860008B8A8989888887878685858484838382E3
:10487000828181800000FF070000F87F51EA030C6D
:1048800017D41CF5801F58BFBCF5801F00F10680AF
:10489000994218BF704708BF9042704707D711F57B
:1048A000801F58BF13F5801F19D499427047894261
:1048B00070471CF5801F08D5BCF5801FF7D58B42CB
:1048C00018BF704708BF824270474FF4001C1CEBB2
:1048D000410F38BF1CEB430F01D28B42704770B5BC
:1048E00000F084F9922449004FF000514FF08053BA
:1048F000FFF75EBE4FEA41034FEA5353A3F58063CF
:10490000D3F11E03C8BFD3F1210C0CDD4FF00042E0
:1049100042EAC12242EA505232FA03FC8CEAE17CBC
:10492000ACEBE1707047102BC4BF0020704703F55B
:10493000787CBCF1FF3F04D06FF0004282EA210096
:10494000704770B500F052F94992248000207047FA
:10495000F2E710F0004248BF4042B0FA80F310FA8C
:1049600003F10AD0C3F11D0303F5806302EB035288
:104970004FEA415002EBD12170474FF000007047E1
:10498000B0FA80F310FA03F10AD0C3F11D0303F566
:1049900080634FEA03524FEA415002EBD121704746
:1049A0004FF000007047000051EA030C17D41CF5CB
:1049B000801F58BFBCF5801F00F10680994218BFC8
:1049C000704708BF9042704707D711F5801F58BF46
:1049D00013F5801F19D499427047894270471CF51E
:1049E000801F08D5BCF5801FF7D58B4218BF7047D4
:1049F00008BF824270474FF4001C1CEB410F38BFC8
:104A00001CEB430F01D28B42704770B500F0EEF8FB
:104A1000922449004FF080514FF00053FFF7C8BD7A
:104A200051EA030C17D41CF5801F58BFBCF5801F3A
:104A300000F10680994218BF704708BF9042704746
:104A400007D711F5801F58BF13F5801F19D499425D
:104A50007047894270471CF5801F08D5BCF5801F40
:104A6000F7D58B4218BF704708BF824270474FF49A
:104A7000001C1CEB410F38BF1CEB430F01D28B42D3
:104A8000704770B500F0B2F8922449004FF0005121
:104A90004FF08053FFF78CBD70B5DFF848C11CEABA
:104AA000111E1EBF1CEA13159EEA0C0F95EA0C0F8F
:104AB00000F06F8081EA03044EEAD47EAE4421EA1E
:104AC0004C1123EA4C1341F4801143F48013AEF1EE
:104AD0007F7EA1FB024CA0FB0365361955EB0C054C
:104AE000A1FB034C4CF10003A0FB021C16EB0C06CF
:104AF000654153F10003094218BF46F0010613F463
:104B0000007F0BD14FEA03314FEA053041EA1551DE
:104B100040EA165034036FF003020AE04FEAC32163
:104B20004FEAC52041EA555140EA5650F4026FF071
:104B3000020202EB2E4201EB025585EACE710AD049
:104B40005FEA440C18BF24F0004450F1000041F12A
:104B5000000120EAD47040F2FE7C624500D270BDB4
:104B6000A84214BF4FF080444FF04044002E08BFCD
:104B70000024BEF1806FA8BFA1F1C041BDE8704024
:104B800080F2828001F1C04101F000414FF000004D
:104B900070470CEA13159EEA0C0F18BF95EA0C0F2C
:104BA00006D081EA030E4FF000000EF0004170BD08
:104BB00000F01CF88900013E00F007B800F009B8C9
:104BC0004FEA430C5FEA5C5C08D081EA030100F025
:104BD0005BB84FEA410C5FEA5C5CF6D102494FF0EA
:104BE000000070470000FF070000F87F0EF1020E82
:104BF0002EF0030E5EF8046B364205D4012A43EB17
:104C0000030515F5001F12D8012841EB010C1CF516
:104C1000001F0CD80ED14FEAD17C0CEB4C0C0CF1E0
:104C2000020C15F5001F08BF4CEBD37C04E04FF0DD
:104C3000080C01E04FEAD37C0CEB4C0526FA05F694
:104C400006F00706B6F1040C06D20EEB860CBDE8A2
:104C500070404CF0010C6047DFE80CF0090B0202D9
:104C60004FF00041A1F500214FF0000070BD194642
:104C70001046012851EB010418BFD4F5001484BF7D
:104C8000002001F0004170BD0808A0F500114FEAB6
:104C90003101704710B591EA030F48BF83F000431C
:104CA0003FF5E6AB841A71EB030C07D28CF0004C95
:104CB000121943EB0C03001B61EB0C014FEA11547A
:104CC000A4EB135CDFF8A4E11EEA430F18BF9EEAD1
:104CD000445F00F0B48021EA045123EA6E0352429B
:104CE000C3EB6E0338BF5B1EDCF1200E25D322FA26
:104CF0000CFE10EB0E0043FA0CFE41EB0E01CCF162
:104D0000200E03FA0EFE10EB0E00CCF1200E51F136
:104D1000000129D401EB045112FA0EF2BDE8104053
:104D200058BF7047401C1CBFB2F1004F70470028AD
:104D30000CBF491C20F00100704712EB020E43EB40
:104D4000030218BF4FF0010E4EEA4202ACF1200CF4
:104D5000DCF11E0E56D943FA0CFE10EB0E00CCF11E
:104D60001E0E51F1FF31D5D50EF1010E12FA0EFED5
:104D7000404141EB010101EB445C5FEA5C5C10D90E
:104D800001EB045110EBDE7038BFBEF1004FBDE8FF
:104D9000104018BF704700280CBF491C20F00100CC
:104DA000704734D24FEAD42C24F4006411F500117A
:104DB0001BD0B1FA81F20B3AA41AA41ED2F120033F
:104DC000914030FA03F31943904001EBCC7101EBB1
:104DD0000451002CBDE81040A8BF704701F1C0414C
:104DE00001F000414FF000007047B0FA80F310FA74
:104DF00003F102D1BDE810407047E41A173C4805A2
:104E0000C90AE2E701EB0451BDE8104070474910C0
:104E10004FEA300001EB0451BDE8104002E04FF0D2
:104E2000000170474A0008BF0042F8D0B2F5001FE9
:104E300028BF704701F000414FF0000070479EEA24
:104E4000445F07D011EA5E0FBDE8104004BF0021A7
:104E500000207047BDE8104070B5FFF7C7FE00BFE7
:104E600040DFF63E104683F0004170470000E0FF4F
:104E700043004FEAD30C4FEA3C0C43401FBF4007AE
:104E80000CF1605113F0FE4F70471CF0006F03D11E
:104E90000CF00041002070470CF0004343EA5070D2
:104EA00040EACC0010B500F038F800BF00000092D6
:104EB0004FEA0001FFF7E8BE4FF00041A1F50021E5
:104EC0004FF00000704710B5FFF7D8FC0CBF012071
:104ED000002010BD10B5FFF7D1FC14BF0120002049
:104EE00010BD10B5FFF760FD8CBF0120002010BD84
:104EF00010B5FFF759FD2CBF0120002010BD10B5E3
:104F0000FFF78EFD94BF0120002010BD10B5FFF704
:104F100087FD34BF0120002010BD0EF1020E2EF0DF
:104F2000030E5EF8044B244204D44FEA4102B2F16E
:104F30007F4F11D84FEA4003B3F17F4F0CD80ED109
:104F40004FEAD07C0CEB4C0C0CF1020CB2F17F4F11
:104F500008BF4CEBD17C04E04FF0080C01E04FEAB5
:104F6000D17C0CEB4C0324FA03F404F00704B4F1F5
:104F7000040C06D20EEB840CBDE810404CF0010C82
:104F80006047DFE80CF0070802024FF00040A0F590
:104F9000800010BD0846420018BFD2F1807288BF61
:104FA00000F0004010BDF1EE100A4FF6FF71C0F2A4
:104FB000C03120EA010040F04070E1EE100A704775
:104FC000FF2141EAD050C0057047000000000000FA
:104FD0006E83F9A22915444ED15727FCC0DD34F564
:104FE000999562DB4190433CAB6351FE00000000A9
:104FF0000000000001020304060708090000000089
:10500000010203040000000000000000353A00081F
:10501000313C00080006101600061016405000082B
:105020000000002058010000C40100088050000862
:1050300058010020680B000000020008000000007A
:10504000420152106324F4054E0C500008F202E2B3
:10505000047B3340B20261A41D2B903F73D0407398
:10506000344063C0407C80A63F98C690BF4B937687
:105070003F73383F037B543F0719C8426F12833A8E
:040000050800018965
:00000001FF
